:020000040000FA
:06000000BCEF1AF0120033
:0A000600010096350000D50000004F
:0400100023000000C9
:0C001400D9CFE6FFE1CFD9FFE652A0945F
:100020000F015F6B626A536B010EE66EE66AE66A69
:10003000540EE66E0F0EE66E8CEC1AF0006E050E96
:10004000E15E0050160E616E0F019F0E5B6F7B0E1E
:10005000606EDF6ADF50006E016A080E005C000E01
:10006000015810E2DF50040DF3CFE9FFF4CFEAFFAF
:10007000000EE926020EEA22EE6AEE6AEE6AEE6AE7
:10008000DF2AE8D7648C0F015C6B6498649C62A6DD
:1000900007D062960001B96BBE6BBF6BC06BF7D720
:1000A0000001010ED16FD26FD36BD46BC76BDF6AC7
:1000B000020EDF5C26E2EA6ADF34FE0BEA36E96E06
:1000C000B00EE926000EEA22EE6AED6AEA6ADF3433
:1000D000FE0BEA36E96EAC0EE926000EEA22EE6A65
:1000E000ED6ADF50EA6ACB0FE96E000EEA22EF6A92
:1000F000DF50EA6ACD0FE96E000EEA22EF6ADF2ACE
:10010000D7D70001080EB06F020EB16F0F01160EA7
:10011000536F0201200E026F020E036F080E016F73
:10012000840E006F0001A66BA56BE552E552E7CF88
:10013000D9FF1200D9CFE6FFE1CFD9FFE652000187
:10014000A55117E106D0646A606A0001A56BA1940D
:10015000BFD0646A606A160E616E0F019F0E5B6FFE
:100160007B0E606E64B602D06486FCD70001010E7F
:10017000A56FA50508E164BA06D0626A606A60806E
:100180006088020EA56F6250040B06E06050040BFD
:1001900003E062940DEC07F064A202D0A19498D021
:1001A0006250010B08E06050010B05E033DF0001F5
:1001B000040EA56F62906250100B06E06050100BA9
:1001C00003E0F8EC06F0629862AC19D060AC0FD096
:1001D000010EE66EE66A000EE66EE66A730EE66EE5
:1001E000E66AEEEC0EF0006E060EE15E0050629CD8
:1001F0000001CF5101E0CF07CF5101E1F0D96250AA
:10020000200B05E06050200B02E0DEEC06F06250AF
:10021000020B14E06050020B11E0010EE66EE66A7C
:10022000000EE66EE66AE6687F0EE66EEEEC0EF015
:10023000006E060EE15E00500F015F6B040E0001C0
:10024000E76EA519E8AE02D0E73402D0E750A55D0D
:1002500002E2A1943DD060A63AD0DF6A040EDF5CD2
:1002600036E262A631D063CFC8F00001C851780BE6
:10027000E842E842E842C96F6296C8B508D0C95161
:10028000EA6ACD0FE96E000EEA22EF7007D0C9517D
:10029000EA6ACB0FE96E000EEA22EF70C95103E162
:1002A00024EC07F010D0000EE66EE66AC80EE66E8B
:1002B000000EE66E720EE66EE66AEEEC0EF0006E72
:1002C000060EE15E005001D002D0DF2AC7D7A1940C
:1002D000E552E552E7CFD9FF1200D9CFE6FFE1CFD3
:1002E000D9FF020EE126FD0EDBA407D0E66AFE0E62
:1002F000DBCFE6FF05DAE552E552FD0EDBA208D0C2
:10030000010EE66EFE0EDBCFE6FFFAD9E552E552AE
:10031000FE0EDB50016A530F006E0F0E012200C06B
:10032000DEFF01C0DDFFDECFE9FFDDCFEAFFFD0E1E
:10033000DBCFEFFF020EE15C02E2E16AE552E16E23
:10034000E552E7CFD9FF1200D9CFE6FFE1CFD9FFC1
:10035000020EE126FD0EDB500FE0FE0EEA6ADB34F2
:10036000FE0BEA36E96EB00EE926000EEA22EECF69
:10037000DEFFEDCFDDFF0ED0FE0EEA6ADB34FE0BB2
:10038000EA36E96EAC0EE926000EEA22EECFDEFF79
:10039000EDCFDDFFD9CFE9FFDACFEAFFEE50ED1068
:1003A00003E1F36AF46A49D0DECFE9FFDDCFEAFF6B
:1003B000020EE926000EEA22FB0EDBCFEEFFFC0E5A
:1003C000DBCFEDFFDECFE9FFDDCFEAFFEE52FA0E25
:1003D000DBCFEFFF400E006EDECFE9FFDDCFEAFF9F
:1003E0000050EF16880E006EDECFE9FFDDCFEAFF8A
:1003F0000050EF12FD0EDB500CE0FE0EEA6ADB341B
:10040000FE0BEA36E96EB00EE926000EEA22EF7422
:100410000BD0FE0EEA6ADB34FE0BEA36E96EAC0E58
:10042000E926000EEA22EF74DECF00F0DDCF01F006
:1004300000C0F3FF01C0F4FF00D0020EE15C02E255
:10044000E16AE552E16EE552E7CFD9FF1200D9CF5C
:10045000E6FFE1CFD9FF020EE126FE0EDB5020E1E0
:10046000AAC0E9FFABC0EAFFEE52080EEF6EAAC0C9
:10047000E9FFABC0EAFF020EE926000EEA22200ED9
:10048000EE6E020EED6EAAC0E9FFABC0EAFF8C0E65
:10049000EF6EB0C0E9FFB1C0EAFF840EEF6E3DD051
:1004A000FD0EDB50E824026EFE0EDB50040DF3500F
:1004B0000224040DF3CF00F0F4CF01F0000E00266B
:1004C000020E012200C0DEFF01C0DDFF840E006EBF
:1004D000DECFE9FFDDCFEAFF0050EF12FD0EDB506B
:1004E000E824026EFE0EDB50040DF3500224010FCF
:1004F000040DF3CF00F0F4CF01F0000E0026020E41
:10050000012200C0DEFF01C0DDFF840E006EDECFE1
:10051000E9FFDDCFEAFF0050EF12020EE15C02E2DC
:10052000E16AE552E16EE552E7CFD9FF1200D9CF7B
:10053000E6FFE1CFD9FF64A84ED0FE0EEA6ADB34B5
:10054000FE0BEA36E96EB00EE926000EEA22EE5006
:10055000EFCFEAFFE96E400EEE16EE6AEE6AEE6A43
:10056000FE0EEA6ADB34FE0BEA36E96EB00EE926CF
:10057000000EEA22EE50EFCFEAFFE96EEE7CFE0EAF
:10058000EA6ADB34FE0BEA36E96EB00EE926000EAD
:10059000EA22EF74400E006EFE0EEA6ADB34FE0BB8
:1005A000EA36E96EB00EE926000EEA22EE50EFCFF1
:1005B000EAFFE96E0050EF16FE0EEA6ADB34FE0B2E
:1005C000EA36E96EB00EE926000EEA22EE50EFCFD1
:1005D000EAFFE96EEF7CE552E7CFD9FF1200000198
:1005E000D1514DE1010ED16FD25149E1010ED26FCF
:1005F000020EB55D0DE1B0C0E9FFB1C0EAFFEE52F9
:10060000EF6AB0C0E9FFB1C0EAFFC80EEF6E37D0A5
:10061000B50535E1CA6BA8C0E9FFA9C0EAFFEE52F3
:10062000080EEF6EA8C0E9FFA9C0EAFF020EE92696
:10063000000EEA22200EEE6E020EED6EA8C0E9FF5B
:10064000A9C0EAFF840EEF6E010ECA6FAAC0E9FFCF
:10065000ABC0EAFFEE52080EEF6EAAC0E9FFABC0D6
:10066000EAFF020EE926000EEA22200EEE6E020ECE
:10067000ED6EAAC0E9FFABC0EAFF800EEF6E12007C
:100680000001D36BD46B020EB55D1AE1AAC0E9FF7D
:10069000ABC0EAFFEE52080EEF6EAAC0E9FFABC096
:1006A000EAFF020EE926000EEA22280EEE6E020E86
:1006B000ED6EAAC0E9FFABC0EAFFC80EEF6E1FD017
:1006C000BA510201265D0001BB510201275904E223
:1006D00026C2BAF027C2BBF0D1D8B0C0E9FFB1C082
:1006E000EAFF020EE926000EEA22280EEE6E020E46
:1006F000ED6EB0C0E9FFB1C0EAFFC80EEF6E1200A8
:10070000D9CFE6FFE1CFD9FF020EE126000EDE6E63
:10071000020EDD6EFD0EDB50E824026EFE0EDB5095
:10072000040DF3500224040DF3CF00F0F4CF01F0D8
:10073000D9CFE9FFDACFEAFF0050EE260150ED22D3
:10074000DECFE9FFDDCFEAFFEF9EFD0EDB500FE1CC
:10075000FE0EEA6ADB34FE0BEA36E96EAC0EE926E1
:10076000000EEA22DECFEEFFDDCFEDFF0ED0FE0E53
:10077000EA6ADB34FE0BEA36E96EB00EE926000EBB
:10078000EA22DECFEEFFDDCFEDFFDECFE9FFDDCFEA
:10079000EAFFEF9CDECFE9FFDDCFEAFF040EE9269A
:1007A000000EEA22EF8C020EE15C02E2E16AE55201
:1007B000E16EE552E7CFD9FF120064980001B9BF9E
:1007C0002BD0BEAF09D0020EB56FD45101E158DF76
:1007D0000001D26BD16B1FD0AAC0E9FFABC0EAFF0A
:1007E000EE52080EEF6EAAC0E9FFABC0EAFF020EA0
:1007F000E926000EEA22200EEE6E020EED6EAAC071
:10080000E9FFABC0EAFF8C0EEF6EB0C0E9FFB1C0EC
:10081000EAFF840EEF6E31D0020120AF0DD000014F
:10082000010EB56FD35101E12BDF0001D26BD16B0B
:10083000D05101E1D4DE21D00001020EB56FAAC073
:10084000E9FFABC0EAFFEE52080EEF6EAAC0E9FF67
:10085000ABC0EAFF020EE926000EEA22200EEE6E81
:10086000020EED6EAAC0E9FFABC0EAFF840EEF6E88
:10087000D26BD16BD05101E1B2DE1200D9CFE6FFCD
:10088000E1CFD9FFE652080EDF6E0001BA5D000E1F
:10089000BB590BE2BAC0DFFFB45103E1010EB46FE4
:1008A00004D0B40502E1020EB46FDF50006E016A9D
:1008B0000050BA5DBA6F0150BB59BB6FB0C0E9FFC1
:1008C000B1C0EAFFEE52DFCFEFFF280EC46F020E79
:1008D000C56FB9B11CD0DF5019E0B6C0F6FFB62B1A
:1008E000B7C0F7FF000EB723B8C0F8FFB823080061
:1008F000F550E66EC4C0E9FFC5C0EAFFC42B000E88
:10090000C523E552E750EF6EDF06E5D717D0DF507D
:1009100015E0B6C0E9FFB7C0EAFFB62B000EB7235B
:10092000EF50E66EC4C0E9FFC5C0EAFFC42B000E5D
:10093000C523E552E750EF6EDF06E9D7E552E552F1
:10094000E7CFD9FF1200D9CFE6FFE1CFD9FF020EE2
:10095000E126A8C0E9FFA9C0EAFFEE52EFCFDFFF12
:10096000DFCF00F000500001BF5D000EC05902E271
:10097000BFC0DFFFDF50006E016A0050BF5DBF6F78
:100980000150C059C06F010EDB6ADF50F36E010EDB
:10099000DBCFF4FFF350F45C16E2010EDB50EA6AA1
:1009A000280FE96E020EEA22EF50E66EBCC0E9FFA6
:1009B000BDC0EAFFBC2B000EBD23E552E750EF6E31
:1009C000010EDB2AE2D7000ED880BF55000EC055BD
:1009D00028E2AAC0E9FFABC0EAFFEE52080EEF6EB4
:1009E000AAC0E9FFABC0EAFF020EE926000EEA2228
:1009F000280EEE6E020EED6EA8C0E9FFA9C0EAFF58
:100A0000EF50400B07E1AAC0E9FFABC0EAFFC80EF8
:100A1000EF6E06D0AAC0E9FFABC0EAFF880EEF6E0A
:100A20002BD0AAC0E9FFABC0EAFFEE52080EEF6E72
:100A3000AAC0E9FFABC0EAFF020EE926000EEA22D7
:100A4000200EEE6E020EED6EAAC0E9FFABC0EAFF0B
:100A5000840EEF6EC151C211C31109E007D0C3C0AB
:100A6000FBFFC2C0FAFF0001C151F96EF8DF0001BF
:100A7000BE9FD05101E1B3DD020EE15C02E2E16A0A
:100A8000E552E16EE552E7CFD9FF1200D9CFE6FF7C
:100A9000E1CFD9FFE6520001B98F010EE66EE66A9A
:100AA000E66A540EE66E0F0EE66E8CEC1AF0006EDF
:100AB000050EE15E0050DF6ADF50006E016A080E2D
:100AC000005C000E015810E2DF50040DF3CFE9FF87
:100AD000F4CFEAFF000EE926020EEA22EE6AEE6A81
:100AE000EE6AEE6ADF2AE8D7648CDF6A020EDF5C0A
:100AF00010E2DF50EA6ACB0FE96E000EEA22EF6ADD
:100B0000DF50EA6ACD0FE96E000EEA22EF6ADF2AB3
:100B1000EDD7010EE66EE66AE66AA70EE66E000EF7
:100B2000E66E8CEC1AF0006E050EE15E0050649CDF
:100B30000001080EB06F020EB16F000EA86F020E1A
:100B4000A96FA8C0AAF0A9C0ABF022C2A6F0A65116
:100B500003E1100EA56F13D0010EE66EE66AA60E35
:100B6000E66E000EE66E010EE66EE66AEEEC0EF044
:100B7000006E060EE15E00500001200EA56FE552EA
:100B8000E552E7CFD9FF1200800E0201205D01E09F
:100B9000ACD00001C00EB96F02012351030A61E01D
:100BA000010A10E0030A03E00001B96B9ED00001C6
:100BB000EC0EB66F320EB76F000EB86F120EBA6F32
:100BC000BB6B93D0B50E006E330E016E000E026E3D
:100BD00022C203F0046A056A030E366E376A386A69
:100BE00003C031F004C032F005C033F08EEC10F0D9
:100BF0002EC003F02FC004F030C005F000500324D5
:100C0000F36E01500420F46E02500520F86EF4CF0C
:100C1000F7FFF3CFF6FF0900F5CFB6F00900F5CFE7
:100C2000B7F00800F5CFB8F0B6C0F6FFB7C0F7FFD1
:100C3000B8C0F8FF020EF626000EF722F8220800D0
:100C4000F5CFBAF0B6C0F6FFB7C0F7FFB8C0F8FFEF
:100C5000030EF626000EF722F8220800F5CFBBF0AF
:100C600044D0030E225D3EE2B80E006E330E016EDC
:100C7000000E026E22C203F0046A056A030E366E8D
:100C8000376A386A03C031F004C032F005C033F06F
:100C90008EEC10F02EC003F02FC004F030C005F031
:100CA00000500324F36E01500420F46E025005201E
:100CB000F86EF4CFF7FFF3CFF6FF0900F5CFB6F0EB
:100CC0000900F5CFB7F00800F5CFB8F0B6C0F6FFD1
:100CD000B7C0F7FFB8C0F8FF0800F5500001BA6FC1
:100CE000BB6B02D00001B96B00D01200D9CFE6FF78
:100CF000E1CFD9FF020EE1260201286B296B2051BA
:100D00001F0B020A12E0030A0DE0010A01E042D0C3
:100D10000001B98F020128810001C60502E102012C
:100D2000288338D00001B98F35D00001B98F020176
:100D300024BF10D024510F0BE96EEA6AD890E9362F
:100D4000EA36AC0EE926000EEA22EECFDEFFEDCF4A
:100D5000DDFF0FD024510F0BE96EEA6AD890E93617
:100D6000EA36B00EE926000EEA22EECFDEFFEDCF26
:100D7000DDFFDECFE9FFDDCFEAFFEF50800B09E0BA
:100D8000DECFE9FFDDCFEAFFEF50040B02E0010EFA
:100D9000286F00D00001B9AF07D0280EB66F020E41
:100DA000B76FB981020EBA6F020EE15C02E2E16A2E
:100DB000E552E16EE552E7CFD9FF12000F0153A1D2
:100DC00015D0A8C0E9FFA9C0EAFFEF5080080DE1E7
:100DD000B0C0E9FFB1C0EAFFEF50840806E1A8C047
:100DE000E9FFA9C0EAFF8C0EEF6E5391629A1200E0
:100DF0006084629864820001010EC76F000EE66E87
:100E0000E66AE66EE66A750EE66EE66AEEEC0EF0EF
:100E1000006E060EE15E005012000001C76B000E6E
:100E2000E66EE66AE66EE66A740EE66EE66AEEEC7A
:100E30000EF0006E060EE15E00506492609462A4B3
:100E400002D06294FCD71200D9CFE6FFE1CFD9FFE0
:100E5000E65200012D0ECF6FFD0EC81553E17E0E38
:100E6000C815E8407F0B040DF3CFA8F0F4CFA9F02C
:100E7000000EA827020EA923A8C0AAF0A9C0ABF0B3
:100E8000AA75A8C0E9FFA9C0EAFFEF503C0BE842F1
:100E9000E8420D0835E1DF6A080EDF5C23E2A8C0F6
:100EA000E9FFA9C0EAFF020EE926000EEA22EE5091
:100EB000EFCFEAFFE96EEF50E66EDF50EA6A200FEF
:100EC000E96E020EEA22E552E750EF6EA8C0E9FF94
:100ED000A9C0EAFF020EE926000EEA22EE2AEF225E
:100EE000DF2ADAD7A8C0E9FFA9C0EAFF020EE92687
:100EF000000EEA22200EEE6E020EED6E0DD801D02D
:100F00003AD805D0FD0EC815040801E159D8E552BC
:100F1000E552E7CFD9FF12000001B46BD06BD36B61
:100F2000D46BCA6BB56BB0C0E9FFB1C0EAFFEF9EEE
:100F3000B075B0C0E9FFB1C0EAFFEF9EB075AAC0BE
:100F4000E9FFABC0EAFFEF9EB96BBA6BBB6BBE6B40
:100F5000BF6BC06B95D8000EE66EE66AE66EE66A79
:100F6000030EE66EE66AEEEC0EF0006E060EE15E33
:100F70000050DDEF03F0020E0001B55D02E1E3DC9D
:100F80001ED0B56BCA511AE1AAC0E9FFABC0EAFF97
:100F9000EE52080EEF6EAAC0E9FFABC0EAFF020EE8
:100FA000E926000EEA22200EEE6E020EED6EAAC0B9
:100FB000E9FFABC0EAFF8C0EEF6E01D0CA6B1200E6
:100FC000D9CFE6FFE1CFD9FFE652B0C0E9FFB1C00B
:100FD000EAFFEF50400B01E0010EDF6E0001B0753B
:100FE000080EA55D0CE122C25CFF0F015C5104E01C
:100FF0000001100EA56F03D00001040EA56FB5050A
:1010000028E1B0C0E9FFB1C0EAFF020EE926000EF8
:10101000EA22280EEE6E020EED6E30DC020E0001AA
:10102000B45D07E1B0C0E9FFB1C0EAFF840EEF6E26
:101030000FD0DF5007E1B0C0E9FFB1C0EAFFC80E32
:10104000EF6E06D0B0C0E9FFB1C0EAFF880EEF6EC8
:1010500012D0BEAF0FD0C151C211C31109E007D0E9
:10106000C3C0FBFFC2C0FAFF0001C151F96EF8DF37
:101070000001BE9FB56BE552E552E7CFD9FF1200E4
:1010800002012051600BE842E842E842E842E842AF
:10109000000901E058D021510C0A54E00B0A43E04A
:1010A0000C0A35E0010A26E00B0A22E0020A20E0E1
:1010B000030A1CE0080A10E0010A0CE00F0A08E02D
:1010C000030A01E03FD00001B98F080EA56F3BD0A5
:1010D0005BDD39D0DBDC37D00001A60EB66F000E29
:1010E000B76FB981010EBA6FB98F2DD0FFDD2BD04C
:1010F0002BD829D024510001B66FB76BA70EB627A5
:10110000000EB723B981010EBA6FB98F1CD0000150
:10111000B98F02012451EA6AA70FE96E000EEA2294
:1011200022C2EFFF10D0000EE66EE66AE66EE66AB7
:10113000020EE66EE66AEEEC0EF0006E060EE15E62
:10114000005001D000D01200D9CFE6FFE1CFD9FF87
:10115000050EE1260201220510E120511F0B0009B6
:101160000CE10001B98F030E0201215D04E10001D1
:10117000010EC66F02D00001C66B0201225101E0D0
:1011800020D120511F0B020801E01BD124510F0B6D
:10119000000901E116D124510F0B010801E211D120
:1011A000200E0001A55D01E00CD1B98F020124BF22
:1011B0001AD024510F0BE96EEA6AD890E936EA3664
:1011C000AC0EE926000EEA22EECFDEFFEDCFDDFF0A
:1011D00024510F0BEA6ACD0FE96E000EEA22020ECF
:1011E000EFCFDBFF19D024510F0BE96EEA6AD890DC
:1011F000E936EA36B00EE926000EEA22EECFDEFF2F
:10120000EDCFDDFF24510F0BEA6ACB0FE96E000E24
:10121000EA22020EEFCFDBFFD950020FE96EDACFE0
:10122000EAFFEF50010B03E1000EDF9401D0DF84F1
:1012300024BF10D024510F0BE96EEA6AD890E9362A
:10124000EA36AC0EE926000EEA22DECFEEFFDDCF55
:10125000EDFF0FD024510F0BE96EEA6AD890E93602
:10126000EA36B00EE926000EEA22DECFEEFFDDCF31
:10127000EDFF030E215D23E1DECFE9FFDDCFEAFFC5
:10128000EF50800B13E024BF09D024510F0BEA6A02
:10129000CD0FE96E000EEA22EF8208D024510F0B29
:1012A000EA6ACB0FE96E000EEA22EF82840E006E2E
:1012B000DECFE9FFDDCFEAFF0050EF1282D0DF740E
:1012C000DECFE9FFDDCFEAFFEF50800B1BE0DECF82
:1012D000E9FFDDCFEAFFEF9EDECFE9FFDDCFEAFFDA
:1012E000EF8C020EE66EE66ADECFE6FFDDCFE6FFAC
:1012F000050EE66EE66AEEEC0EF0006E060EE15E9E
:10130000005005D0DECFE9FFDDCFEAFFEF8CDF74C0
:10131000D950020FE96EDACFEAFFEF50020B07E176
:10132000DECFE9FFDDCFEAFFEF50800B2DE00201B9
:1013300024BF09D024510F0BEA6ACD0FE96E000ECD
:10134000EA22EF9208D024510F0BEA6ACB0FE96E24
:10135000000EEA22EF923B0E006EDECFE9FFDDCFFA
:10136000EAFF0050EF16020EE66EE66ADECFE6FFF9
:10137000DDCFE6FF050EE66EE66AEEEC0EF0006EDF
:10138000060EE15E005008D03B0E006EDECFE9FF96
:10139000DDCFEAFF0050EF16020124510F0B016A66
:1013A000530F006E0F0E0122030E00C0DBFF040E70
:1013B00001C0DBFF030EDBCFE9FF040EDBCFEAFF4A
:1013C000EF90050EE15C02E2E16AE552E16EE55262
:0613D000E7CFD9FF120077
:0A13D600DACFE4FFE2CFDAFFE652BF
:1013E000E552E5CFDAFF1100D8CFE4FFE0CFE4FF0C
:1013F000E46EDACFE4FFE2CFDAFFE652E552E5CF62
:10140000DAFFE550E5CFE0FFE5CFD8FF100005D8C3
:101410009AEC00F014D8FCD712007E6A8B6A826ABC
:1014200094688A6A816A9368D16A02D80AEF00F0E8
:101430000001D56BD66B0001606B616B1200D9CFD8
:10144000E6FFE1CFD9FF0F0EE126200E0001E76E87
:10145000A519E8AE02D0E73402D0E750A55D03E35A
:101460006450020B02E09FEF0EF000016051611129
:1014700002E1000E08D060C0E9FF61C0EAFFEF5052
:10148000800B01E0010E000902E079EF0EF07DEC27
:1014900018F00001625102E09FEF0EF0010E000112
:1014A000D81502016091E8B06081010E0001D915E4
:1014B00002016093E8B06083010E0001DA150201B9
:1014C0006095E8B06085010E0001DB1502016097B0
:1014D000E8B06087010E0001DC1502016099E8B0F8
:1014E0006089010E0001DD150201609BE8B0608B90
:1014F000010E0001DE150201609DE8B0608D010E55
:101500000001DF150201609FE8B0608F010E00014D
:10151000E21502016191E8B06181010E0001E3155D
:1015200002016193E8B06183629162936295628780
:10153000060EDB6A070EDB6A080EDB6A090EDB6A41
:101540000A0EDB6A0B0EDB6A0C0EDB6A0D0EDB6A21
:101550000001E45124E0006A016A026A400E036E51
:10156000D9500A0FE96EDACFEAFFEECF31F0EECFB5
:1015700032F0EECF33F0EFCF34F000C036F001C0E0
:1015800037F002C038F003C039F037EC0FF034C048
:10159000EDFF33C0EDFF32C0EDFF31C0EFFF0001C2
:1015A000E55124E0006A016A026A400E036ED950D8
:1015B0000A0FE96EDACFEAFFEECF31F0EECF32F06C
:1015C000EECF33F0EFCF34F000C036F001C037F08B
:1015D00002C038F003C039F038EC0FF034C0EDFF32
:1015E00033C0EDFF32C0EDFF31C0EFFF0001E65127
:1015F00024E0006A016A026A400E036ED950060FA9
:10160000E96EDACFEAFFEECF31F0EECF32F0EECF77
:1016100033F0EFCF34F000C036F001C037F002C035
:1016200038F003C039F037EC0FF034C0EDFF33C0B1
:10163000EDFF32C0EDFF31C0EFFF0001E75124E0C4
:10164000006A016A026A400E036ED950060FE96E05
:10165000DACFEAFFEECF31F0EECF32F0EECF33F05B
:10166000EFCF34F000C036F001C037F002C038F0E0
:1016700003C039F038EC0FF034C0EDFF33C0EDFF9C
:1016800032C0EDFF31C0EFFF0A0EDBCF31F00B0EA1
:10169000DBCF32F00C0EDBCF33F00D0EDBCF34F0AE
:1016A000366A376A386A396A06EC11F0010A15E1C0
:1016B000060EDBCF31F0070EDBCF32F0080EDBCFAA
:1016C00033F0090EDBCF34F0366A376A386A396A8C
:1016D00006EC11F0010A01E151D20A0EDBCF00F055
:1016E0000B0EDBCF01F00C0EDBCF02F00D0EDBCFCB
:1016F00003F0366A376A386A396A00C031F001C0CF
:1017000032F002C033F003C034F00DEC11F0010AE6
:1017100001E031D1D00E0A6E0F0E0B6EC90E0C6EA9
:10172000400E0D6E0AC0E6FF0BC0E6FF0CC0E6FFE0
:101730000DC0E6FF060EDBCF16F0070EDBCF17F06D
:10174000080EDBCF18F0090EDBCF19F016C0E6FF4C
:1017500017C0E6FF18C0E6FF19C0E6FF060EDBCF94
:1017600031F0070EDBCF32F0080EDBCF33F0090E7D
:10177000DBCF34F0060EDBCF36F0070EDBCF37F0D1
:10178000080EDBCF38F0090EDBCF39F021EC10F07A
:1017900031C022F032C023F033C024F034C025F031
:1017A0000A0EDBCF31F00B0EDBCF32F00C0EDBCFAD
:1017B00033F00D0EDBCF34F00A0EDBCF36F00B0E1C
:1017C000DBCF37F00C0EDBCF38F00D0EDBCF39F06E
:1017D00021EC10F031C026F032C027F033C028F0E1
:1017E00034C029F026C036F027C037F028C038F0C2
:1017F00029C039F022C031F023C032F024C033F0C8
:1018000025C034F038EC0FF031C01EF032C01FF0AC
:1018100033C020F034C021F01EC0E6FF1FC0E6FF39
:1018200020C0E6FF21C0E6FFA5EC14F0E552E5522A
:10183000E552E552E552E7CF19F0E552E7CF18F04F
:10184000E552E7CF17F0E552E7CF16F030C01AF0B7
:1018500031C01BF032C01CF033C01DF01AC036F08E
:101860001BC037F01CC038F01DC039F016C031F075
:1018700017C032F018C033F019C034F0CEEC0FF0BE
:1018800031C012F032C013F033C014F034C015F080
:1018900012C0E6FF13C0E6FF14C0E6FF15C0E6FF66
:1018A00064EC1AF0E552E552E552E552E552E7CF15
:1018B0000DF0E552E7CF0CF0E552E7CF0BF0E55223
:1018C000E7CF0AF030C00EF031C00FF032C010F098
:1018D00033C011F00EC036F00FC037F010C038F032
:1018E00011C039F00AC031F00BC032F00CC033F037
:1018F0000DC034F037EC0FF031C006F032C007F005
:1019000033C008F034C009F08C0E366EF90E376E15
:10191000A20E386E3F0E396E06C031F007C032F0AD
:1019200008C033F009C034F021EC10F031C002F0EF
:1019300032C003F033C004F034C005F0366A376AB1
:10194000386A3F0E396E02C031F003C032F004C075
:1019500033F005C034F038EC0FF0D7EC10F032C0A3
:1019600000F033C001F0020E0026000E01220E0E20
:1019700000C0DBFFFAD0060EDBCF0EF0070EDBCF88
:101980000FF0080EDBCF10F0090EDBCF11F00EC008
:10199000E6FF0FC0E6FF10C0E6FF11C0E6FF060E2F
:1019A000DBCF31F0070EDBCF32F0080EDBCF33F0A8
:1019B000090EDBCF34F0060EDBCF36F0070EDBCF9F
:1019C00037F0080EDBCF38F0090EDBCF39F021EC11
:1019D00010F031C01AF032C01BF033C01CF034C01C
:1019E0001DF00A0EDBCF31F00B0EDBCF32F00C0E08
:1019F000DBCF33F00D0EDBCF34F00A0EDBCF36F049
:101A00000B0EDBCF37F00C0EDBCF38F00D0EDBCF3B
:101A100039F021EC10F031C01EF032C01FF033C09D
:101A200020F034C021F01EC036F01FC037F020C0B7
:101A300038F021C039F01AC031F01BC032F01CC0A0
:101A400033F01DC034F038EC0FF031C016F032C066
:101A500017F033C018F034C019F016C0E6FF17C0F5
:101A6000E6FF18C0E6FF19C0E6FFA5EC14F0E5524A
:101A7000E552E552E552E552E7CF11F0E552E7CFE6
:101A800010F0E552E7CF0FF0E552E7CF0EF030C08F
:101A900012F031C013F032C014F033C015F012C090
:101AA00036F013C037F014C038F015C039F00EC04E
:101AB00031F00FC032F010C033F011C034F0CEEC72
:101AC0000FF031C00AF032C00BF033C00CF034C05C
:101AD0000DF00AC0E6FF0BC0E6FF0CC0E6FF0DC02C
:101AE000E6FF64EC1AF0E552E552E552E55230C0EB
:101AF00006F031C007F032C008F033C009F08C0E98
:101B0000366EF90E376EA20E386E3F0E396E06C075
:101B100031F007C032F008C033F009C034F021ECD6
:101B200010F031C002F032C003F033C004F034C012
:101B300005F0366A376A386A3F0E396E02C031F0F6
:101B400003C032F004C033F005C034F038EC0FF0BD
:101B5000D7EC10F032C000F033C001F0020E0026C6
:101B6000000E01220E0E00C0DBFFDB50070B02014E
:101B70000F0BF36EF00E6215F310626F010E000191
:101B8000EF15066E020EEE15056E040EED15046ED1
:101B9000080EEC15036E100EEB15026E200EEA1502
:101BA000016E400EE915006E800EE8150010011060
:101BB00002100310041005100610DF6E010EF71559
:101BC000066E020EF615056E040EF515046E080E6F
:101BD000F415036E100EF315026E200EF215016E51
:101BE000400EF115006E800EF0150010011002106D
:101BF0000310041005100610E76E010EE7CFDBFF9F
:101C0000DFCF00F0016A00BE01687F0E0026000EE3
:101C10000122020E00C0DBFF030E01C0DBFF010E3C
:101C2000DBCF00F0016A00BE01687F0ED88000564D
:101C3000000E0156040E00C0DBFF050E01C0DBFFE5
:101C4000020EDBCF00F0030EDBCF01F0013404E223
:101C50000050FF08000E015405E2020EDB68030E7F
:101C6000DB6A0ED0020EDBCF00F0030EDBCF01F0FB
:101C70000001800E011404E0020EDB6A030EDB6A31
:101C8000040EDBCF00F0050EDBCF01F0013404E2DF
:101C90000050FF08000E015405E2040EDB68050E3B
:101CA000DB6A0ED0040EDBCF00F0050EDBCF01F0B7
:101CB0000001800E011404E0040EDB6A050EDB6AED
:101CC000020EDBCF63F2040EDBCF64F2050EE66E8C
:101CD000600EE66E020EE66E010EE66EE66EA4EC97
:101CE00001F0006E050EE15E0050F3CF60F0F4CF1E
:101CF00061F00001D551D61102E1000E08D0D5C027
:101D0000E9FFD6C0EAFFEF50800B01E0010E0009A9
:101D100016E10201505100D0200EE66E500EE66E24
:101D2000020EE66EE66A010EE66EA4EC01F0006EAD
:101D3000050EE15E0050F3CFD5F0F4CFD6F00F0ED4
:101D4000E15C02E2E16AE552E16EE552E7CFD9FFDC
:101D50001200120012001200120003EF19F012001C
:101D60001E0EE66E010EE66E6DEC01F0E552E552D8
:101D7000400EE66E500EE66E020EE66EE66A010E4C
:101D8000E66EA4EC01F0006E050EE15E0050F3CFAC
:101D9000D5F0F4CFD6F012000001C6051EE1000117
:101DA000C7051BE1D7DF64920001C76B0001100E6D
:101DB000A36F0E0EA46FA307000EA45BA351A41182
:101DC000FAE16484080EA36F070EA46FA307000E48
:101DD000A45BA351A411FAE164941200D9CFE6FFE9
:101DE000E1CFD9FFFD0EDBCF32F0FE0EDBCF33F0BB
:101DF000E868321802E17F0E331831E0030E321822
:101E000001E133502AE0020E321801E1335023E0A1
:101E1000010E321801E133501CE0740E321801E15A
:101E2000335015E0750E321801E133500EE0730E99
:101E3000321801E1335007E0720E321801E13350DD
:101E400001E00FD00ED087DF0CD083DF0AD082DF15
:101E500008D086DF06D083DF04D07FDF02D07CDFAE
:0E1E600000D0010E00D0E552E7CFD9FF1200EE
:021E6E00397EBB
:101E70002B6AC3EC11F0DBEC11F02BB66BEF11F019
:101E80002BA20AD02BAA03D02BBE6BEF11F02BA4F0
:101E900077EF11F074EF11F02BAA05D02BAC77EF90
:101EA00011F074EF11F02BA00AD02BA808D02BBE94
:101EB00004D02BA402D080EF11F084EF11F03C6A23
:101EC0002F6A3950345C3B6E10E331C03DF032C0B4
:101ED0002CF033C02DF034C03AF036C031F037C0AA
:101EE00032F038C033F02B3A09D036C03DF037C05D
:101EF0002CF038C02DF039C03AF03B6C2B9E2BBC37
:101F00002B8E3AC02EF02BB0B3EF11F01A0E3B60BF
:101F1000B3EF11F02E6A346A2BA408D0316C321E54
:101F2000331E341EE86A3222332234222BAC08D00E
:101F30003D6C2C1E2D1E2E1EE86A2C222D222E22D8
:101F4000306A3B5207E0343433323232313230328D
:101F50003B2EF9D731503D2632502C2233502D22C2
:101F600034502E2230C03CF02B9E2EAE0BD03C6C59
:101F70003D1E2C1E2D1E2E1EE86A3D222C222D22D7
:101F80002E222B8E2EA006D0D8802D322C323D3220
:101F90003C323A2A3AC02EF087EF11F02B6AC3EC9C
:101FA00011F0DBEC11F02BB66BEF11F02BA205D08A
:101FB0002BBA6BEF11F072EF11F02BBA7EEF11F02C
:101FC0002BA005D02BB86BEF11F07EEF11F02BB8E2
:101FD00072EF11F02F6A7F0E34242E6EE86A2F22E2
:101FE00039502E5EE86A2F5A1A0E3A6E346A3C6AED
:101FF0003D6A2C6A2D6A3650315E3750325A38505D
:10200000335A000E345A09E73650312637503222FF
:1020100038503322000E342201D03C8AD890313619
:10202000323633363436D8903C363D362C362D3663
:102030003A2EE1D7335032103110D8A43C8A87EFC2
:1020400011F02B6AC3EC11F0DBEC11F02BB66BEF47
:1020500011F02BA205D02BB86BEF11F072EF11F03D
:102060002BAA05D02BB06BEF11F072EF11F02BB053
:1020700002D02BA802D07EEF11F02F6A3950342401
:102080002E6EE86A2F227E0E2E5EE86A2F5A3C6A78
:102090003D6A2C6A2D6A38503302F4CF2DF0F3CF0D
:1020A0002CF037503302F3503D26F4502C22000E12
:1020B0002D2238503202F3503D26F4502C22000ECF
:1020C0002D2236503302F3503C26F4503D22000EB0
:1020D0002C222D2237503202F3503C26F4503D2260
:1020E000000E2C222D2238503102F3503C26F450A1
:1020F0003D22000E2C222D2236503202F4503C2676
:10210000000E3D222C222D2237503102F4503C2665
:10211000000E3D222C222D2287EF11F033C03DF01E
:1021200032C03CF031C03BF031503602F4CF2FF0DA
:10213000F3CF2EF032503702F4CF31F0F3CF30F03E
:102140003602F3502F26F4503022E86A31223B50F9
:102150003702F3502F26F4503022E86A31223350F0
:102160003602F3503026F450312233503702326AAF
:10217000E86A3222F3503126F45032223B503802C2
:10218000F3503026F4503122336AE86A3222332287
:102190003C503802F3503126F4503222E86A3322A0
:1021A0003D503802F3503226F4503322000C2B6A93
:1021B000C3EC11F02BB6E1EF10F02BA20ED02BB434
:1021C00005D07F0E336EFF0E326E1FD0800E336E41
:1021D000326A1BD0336A326A18D02BB0FBD78F0E0D
:1021E0003460EDD77E0E3464F5D78E0E345C05E096
:1021F000D89033323232342AF8D72BA406D0326C3E
:10220000331EE86A332233AEE5D7120016EC11F024
:102210002BB6000C2BB0010C000C16EC11F02BB6F9
:10222000000C2BB0000C2BA4000C010C2B6AC3EC8F
:1022300011F0DBEC11F02BB612002BAE08D02BA066
:1022400004D02BA802D02B8012002B901200395002
:10225000345C0BE13850335C08E13750325C05E107
:102260003650315C02E12B801200D8A002D02B8EB8
:1022700010D0345039C034F0396E335038C033F098
:10228000386E325037C032F0376E315036C031F0D0
:10229000366E3950345C10E0FF0F09E02B902BB400
:1022A00003D02BAE2B8412002BAE2B941200392AB4
:1022B000D8903832373236323650315E3750325A53
:1022C0003850335A33BEEAD7D890313632363336A7
:1022D000342EF8D7C8D77F0E346EFF0E336E326EB1
:1022E000316E12007F0E2BBEFF0E346E02D07F0EB9
:1022F000346E800E336E326A316AF3D72BAE04D05F
:10230000800E346E336AF7D7346A336AF4D72D50AF
:102310002C103D103C10F8E02FBEF0D72DBE0CD095
:102320002E502F10EBE0D8903C363D362C362D3613
:102330002E06D8A02F06F2D72F50D4E12E28D2E0B7
:102340003CAE11D07F0E3C1402E13DA00CD03D2AE2
:10235000E86A2C222D2207E3D8802D322C323D3220
:102360002E2A2E28BFE02E50C9E03DC031F02CC0EF
:1023700032F02D34336E2E30346E3332349E2BBE19
:10238000348E71EF11F03336343602E32B842B7E1A
:1023900006E12B80346A336A326A316A12003428CB
:1023A00003E0D88033321200D890333202E12B821E
:1023B00012002B8612003836393602E32B8C2B7E26
:1023C00006E12B88396A386A376A366A120039287A
:1023D00003E0D88038321200D8903832EAE12B8AF4
:1023E000120016EC11F02BB6000C2BB0000C2BB425
:1023F000000C010C2A6A38AE03EF12F0376C381E5D
:10240000E86A38222A1E33AE0BEF12F0326C331E0C
:10241000E86A33222A1EA6EC1AF033BE1BEF12F034
:102420002AAE000C326C331EE86A33222E6C2F1E4B
:10243000E86A2F22000C2ABE12EF12F02B88FF0C44
:10244000D9CFE6FFDACFE6FFE1CFD9FFE2CFDAFF5F
:10245000210EE12402E3E168E652E16ED950FA0F61
:10246000E96EFF0E04DAD950050FE66E000EDA2091
:10247000E66ED950010FE96E000EEED962EC17F04E
:10248000006E060EE15C02E2E16AE552E16E005088
:10249000DF6E840EDF1405E0210E0001FA6FFB6B86
:1024A0000FDAD950FA0FE96EFF0ED6D931EC1AF0D7
:1024B000E552E552E552E552190E30C0DBFF1A0E27
:1024C00031C0DBFF1B0E32C0DBFF1C0E33C0DBFF55
:1024D00095D902DA390E36DA0DEC11F0010A07E16E
:1024E00008DAD950190FE96E000EC1D931D186D959
:1024F000F3D91EDA06E1E4D9210E0001FA6FFB6B75
:1025000052D17CD9366A376A386A12DA01E079D05A
:10251000F90EDBCFE6FF010EE552D880E754E76EF7
:102520000C0EE7CFDBFF006A016A026A3F0E036E02
:10253000086A096A800E0A6E3F0E0B6E190EDBCF19
:102540000CF01A0EDBCF0DF01B0EDBCF0EF01C0EC5
:10255000DBCF0FF00CC036F00DC037F00EC038F0F6
:102560000FC039F008C031F009C032F00AC033F0B2
:102570000BC034F037EC0FF0C3D988D934C0DBFF7F
:10258000006A016A026AC00E036E00C0E6FF01C065
:10259000E6FF02C0E6FFE66ED9501D0FE96E000EA1
:1025A0005BD9A5EC14F0E552E552E552E552E5524F
:1025B000E7CF03F0E552E7CF02F0E552E7CF01F0B5
:1025C000E552E7CF00F030C004F031C005F032C072
:1025D00006F033C007F030C036F031C037F032C0FB
:1025E00038F033C039F0F4D821EC10F0190E31C0B6
:1025F000DBFF1A0E32C0DBFF1B0E33C0DBFF1C0EED
:102600000FD077D950D9190EDBCF36F01A0EDBCFA9
:1026100037F01B0EDBCF38F01C0EDBCF39F036D98C
:1026200034C0DBFF1D0EDBCF04F01E0EDBCF05F048
:102630001F0EDBCF06F0200EDBCF07F00B0E366E41
:102640008D0E376EB10E386EC00E396E04C031F08B
:1026500005C032F006C033F007C034F038EC0FF09C
:10266000E7D8F00E366E500E376EB30E386E400E51
:10267000396E38EC0FF0110E31C0DBFF120E32C094
:10268000DBFF130E33C0DBFF140E34C0DBFF650E1F
:10269000316E200E326E010E336EBF0E346EC8D80E
:1026A0006B0E366E160E376E6F0E386E3F0E396E2D
:1026B00038EC0FF00D0E31C0DBFF0E0E32C0DBFF29
:1026C0000F0E33C0DBFF100E34C0DBFF1D0EDBCF5F
:1026D00031F01E0EDBCF32F01F0EDBCF33F0200EB9
:1026E000DBCF34F00D0EDBCF36F00E0EDBCF37F044
:1026F0000F0EDBCF38F0100E21D9110EDBCF36F0E4
:10270000120EDBCF37F0130EDBCF38F0140EDBCF19
:1027100039F0CEEC0FF0150E31C0DBFF160E32C0D3
:10272000DBFF170E33C0DBFF180E34C0DBFF66D8AB
:10273000BAD8150EDBCF36F0160EDBCF37F0170EFA
:10274000DBCF38F0180EFAD8DBD838EC0FF063D8AE
:10275000F90EDB500EE10C0EDB5006E042D8C1D87A
:10276000F1D838EC0FF057D80B0EDB501CE0DAD85C
:1027700019D00B0EDB500CE00C0EDB500EE131D803
:10278000DB0E366E0F0E376E490E386E400E07D0D8
:10279000C9D841D80C0EDB5006E023D8A2D8D2D835
:1027A00038EC0FF038D81DD800C030F001C031F03F
:1027B00002C032F003C033F0210EE15C02E2E16AB4
:1027C000E552E16EE552E5CFDAFFE7CFD9FF12001F
:1027D00000C031F001C032F002C033F003C034F069
:1027E0001200010EDBCF00F0020EDBCF01F0030E72
:1027F000DBCF02F0040EDBCF03F01200190EDBCFAB
:1028000000F01A0EDBCF01F01B0EDBCF02F01C0E26
:10281000DBCF03F01200010E31C0DBFF020E32C02D
:10282000DBFF030E33C0DBFF040E34C0DBFF1200FE
:102830001D0EDBCF36F01E0EDBCF37F01F0EDBCFC9
:1028400038F0200E7BD831C000F032C001F033C028
:1028500002F034C003F01200DA20EA6EEECFE6FF99
:10286000EECFE6FFEECFE6FFEFCFE6FF1200DA2075
:10287000EA6E010EEECFDBFF020EEECFDBFF030EA2
:10288000EECFDBFF040EEECFDBFF120021EC10F0E9
:102890001D0E31C0DBFF1E0E32C0DBFF1F0E33C02A
:1028A000DBFF200E1200190EDBCF31F01A0EDBCF4A
:1028B00032F01B0EDBCF33F01C0EDBCF34F01200F6
:1028C000010EDB68020EDB68030EDB687F0EF36E21
:1028D000040EF3CFDBFF1200366A376A800E386EC3
:1028E0001200DB0E366E0F0E376EC90E386E3F0EBD
:1028F0001200F90EDB50E76E0C0EE7CFDBFF120083
:1029000031C004F032C005F033C006F034C007F027
:1029100031C036F032C037F033C038F034C039F04F
:10292000E8EF13F05EDFD8DFBF0E0CD821EF10F018
:102930003F0E08D8F1EC11F0010A1200DBCF39F09C
:0A29400021EF10F0396EE8EF13F0FC
:06294A00D9CFE6FFDACF51
:10295000E6FFE1CFD9FFE2CFDAFF240EE12402E364
:10296000E168E652E16ED950FA0FE96EFF0EDA2007
:10297000EA6E020EEECFDBFF030EEECFDBFF040E9E
:10298000EECFDBFF050EEECFDBFFE8D9F2D962EC2C
:1029900017F0006E060EE15C02E2E16AE552E16EBC
:1029A0000050E76E0D0EE7CFDBFFDB50800815E02F
:1029B000A0D9366A376A386A396A00C031F001C076
:1029C00032F002C033F003C034F00DEC11F0010A14
:1029D00010E1210E0001FA6FFB6B020EDB68030EA3
:1029E000DB68040EDB687F0EF36E050EF3CFDBFFB2
:1029F00066D10D0EDB50050B01E061D10A0EDBCF75
:102A000000F00B0EDBCF01F0830E0026FF0E01223B
:102A100000C0DEFF01C0DDFFD950060F65D976D9B1
:102A2000DF50010B0FE0DF06010E01E2DB06D9509B
:102A3000180F5AD9D890EF36010EEB36020EEB364E
:102A4000030EEB36D9CFE9FFDACFEAFF020E376E7D
:102A5000386AEECF32F0EDCF33F0FAEC11F032C03D
:102A6000EEFF33C0EDFF140EDB6A150EDB6A160EA7
:102A7000DB6A170EDB6A1C0EDB6A1D0EDB6A1E0E9C
:102A8000DB6A010EF36E1F0EF3CFDBFF010EF36E58
:102A90000E0EF3CFDBFF0F0EDB6A0E0EDBCF00F066
:102AA0000F0EDBCF01F0D890015004E61A0E005C47
:102AB000000E015801E398D0180EDBCF00F0190E7C
:102AC000DBCF01F01A0EDBCF02F01B0EDBCF03F0E1
:102AD000010E1F0B07E0D890003601360236033690
:102AE000E806F9E1180E00C0DBFF190E01C0DBFF9C
:102AF0001A0E02C0DBFF1B0E03C0DBFF140EDBCF80
:102B000008F0150EDBCF09F0160EDBCF0AF0170E1A
:102B1000DBCF0BF0010E1F0B07E0D890083609360B
:102B20000A360B36E806F9E1D9501C0FDDD80850FB
:102B3000EE24046E0950EE20056E0A50EE20066E5B
:102B40000B50EE20076ED950180FCED80450EE5C13
:102B5000006E0550EE58016E0650EE58026E07509A
:102B6000EE58036E200E00C0DBFF210E01C0DBFF1C
:102B7000220E02C0DBFF230E03C0DBFF200EDBCFE3
:102B800031F0210EDBCF32F0220EDBCF33F0230EFB
:102B9000DBCF34F03434000E341809E6D880000E50
:102BA0003154000E3254000E3354000E345411E2EE
:102BB000D950200F99D8AAD8D8D81C0EDB50EE12C5
:102BC0001D0EDB50EE121E0EDB50EE121F0EDB5000
:102BD000EE12D9501C0F88D8AFD80E0EDB2A0F0E7C
:102BE00001E25BD7DB2A59D7C9D8100E00C0DBFF42
:102BF000110E01C0DBFF180EDBCF32F0190EDBCF58
:102C000033F0120E32C0DBFF130E33C0DBFFADD842
:102C100093D8D950100F68D8EE50ED1012E0D9506B
:102C2000120F62D8EE50ED1006E1A8D80050011046
:102C30000210031006E099D8EE2A000EEE22EE22D2
:102C4000EE220C0EDB6A91D8060EEECFDBFF070EEC
:102C5000EECFDBFF080EEECFDBFF090EEECFDBFF82
:102C60007E0EF36E0A0EF3CFDBFF0B0EDB6AD9503C
:102C7000020FE66E000EDA20E66E70D8F0EC17F068
:102C8000E552E552E552E552DECFE6FFDDCFE6FF45
:102C900070D8C6EC16F0006E060EE15C02E2E16A46
:102CA000E552E16E0050020E30C0DBFF030E31C072
:102CB000DBFF040E32C0DBFF050E33C0DBFF19D88B
:102CC00000C030F001C031F002C032F003C033F078
:102CD000240EE15C02E2E16AE552E16EE552E5CFE5
:102CE000DAFFE7CFD9FF1200E96E000EDA20EA6EB4
:102CF0001200020EDBCF00F0030EDBCF01F0040E5A
:102D0000DBCF02F0050EDBCF03F01200180EEECF82
:102D1000DBFF190EEECFDBFF1A0EEECFDBFF1B0E33
:102D2000EECFDBFF1200EECFE6FFEECFE6FFEECFF9
:102D3000E6FFEFCFE6FF1200D890030EEB32020E53
:102D4000EB32010EEB32EF321200EE500016EE5075
:102D50000116EE500216EE5003161200D950060F5F
:102D6000E66E000EDA20E66E1200D950140F74EFF2
:102D700016F0D950020FB8DF93EF16F0010E006E77
:0C2D8000016A026A036AF1DFA5EF16F099
:042D8C0096D8E1CF25
:102D9000D9FFE2CFDAFF0C0EE12402E3E168E6524C
:102DA000E16ED950FA0FE96EFF0EDA20EA6E080ED6
:102DB000EECFDBFF090EEECFDBFF0A0EEECFDBFF1F
:102DC0000B0EEECFDBFF79D8D950080FE96E000E5D
:102DD000DA20EA6EEECFE6FFEECFE6FFEECFE6FFBB
:102DE000EFCFE6FF62EC17F0006E060EE15C02E248
:102DF000E16AE552E16E0050E76E070EE7CFDBFFB8
:102E0000DB50840B3AE1070EDB041AE1060EDB50BF
:102E100006E0006A016A026A800E036E04D0006A4E
:102E2000016A026A036A080E00C0DBFF090E01C0D6
:102E3000DBFF0A0E02C0DBFF0B0E03C0DBFF1DD061
:102E4000F80EDBCF00F0F90EDBCF01F0D950040F04
:102E5000E96E000EDA20EA6E0050EE260150ED22F7
:102E6000D950080FE66E000EDA20E66E26D8F0EC98
:102E700017F0E552E552E552E552080EDBCF00F0BF
:102E8000090EDBCF01F00A0EDBCF02F00B0EDBCF19
:102E900003F000C030F001C031F002C032F003C0D6
:102EA00033F00C0EE15C02E2E16AE552E16EE552BC
:102EB000E5CFDAFFE7CFD9FF1200D9CFE6FFDACFAF
:042EC000E6FF120017
:0C2EC400D9CFE6FFDACFE6FFE1CFD9FF5F
:102ED000E2CFDAFFE652006801687F0E026E036AF5
:102EE000D950FA0FE96EFF0EDA20EA6EEE500016A6
:102EF000EE500116EE500216EE5003166AD800C0CE
:102F0000EEFF01C0EEFF02C0EEFF03C0EEFFFD0EBC
:102F1000DB50800B02E0010E01D0000EE66E59D8A6
:102F2000060EE926000EEA22E552E750EF6EFC0E8F
:102F3000DBCF00F0FD0EDBCF01F0D890003601367C
:102F4000FC0E00C0DBFFFD0E01C0DBFFDB50E66EB8
:102F500040D8040EE926000EEA22E552E750EE6E54
:102F6000ED6AFD0EDB50006E016AFF0E001818E1DD
:102F7000015016E12ED8EECF00F0EECF01F0EECFEB
:102F800002F0EFCF03F0005001100210031006E032
:102F9000210E0001FA6FFB6B800E0BD0040E09D0DE
:102FA000FD0EDB5008E115D8EE6AEE6AEE6AEE6AB5
:102FB000010EDF6E06D0020EDF6E0BD8EE52EE521F
:102FC000EE8EDF50E552E552E5CFDAFFE7CFD9FFCD
:102FD0001200F80EDBCFE9FFF90EDBCFEAFF12009B
:102FE000D9CFE6FFDACFE6FFE1CFD9FFE2CFDAFFB4
:102FF0005BD8013411E20050FE08000E01540CE2CF
:1030000076D805E06CD8800EEE6EEE6847D067D8B3
:10301000800EEE6E7F0E0ED047D8D890015004E699
:10302000010E005C000E01580BE261D805E057D894
:10303000EE6A800EEE6E32D052D8EE6AEE6A2ED074
:1030400047D8EECF00F0EECF01F0EECF02F0EFCF99
:1030500003F032D800C0EEFF01C0EEFF02C0EEFF69
:1030600003C0EEFF21D80050010B05E025D8020E69
:103070003AD8EF8E04D020D8020E35D8EF9E14D85F
:10308000D8900132003218D8030E2DD800C0EFFFBF
:103090001AD804E011D8030E26D8EF8EE552E5CFFA
:1030A000DAFFE7CFD9FF120013D8040E1CD8EECFF9
:1030B00000F0EFCF01F01200FA0EDBCFE9FFFB0EBC
:1030C000DBCFEAFF120004D8060E0DD8EF50120035
:1030D000FC0EDBCFE9FFFD0EDBCFEAFF1200ECDFD9
:1030E000EE6AEE6A1200E926000EEA221200220EB3
:0A30F0000001FA6FFB6B63EF18F0AC
:0630FA00200E036E00EE43
:10310000D8F0070E016E010E026E7F0E046E056E82
:103110008B9494940B0E006E002E8CEF18F0948418
:103120000000000000000000000000000000012E70
:1031300088EF18F08B9494940000000000000000C9
:103140000000000000000000000000000000948467
:103150000000070E006E0000002EABEF18F0022EEC
:103160009AEF18F08B949494000000000000000087
:103170000000000000000000000000000000948437
:103180000000020E006E0000002EC3EF18F09484C1
:10319000044EEEEF18F082B4C8EF18F07F0E046E04
:1031A000044EEEEF18F082A4D0EF18F0054EEEEFCB
:1031B00018F082B4D6EF18F00450055CFF0ED8B0BA
:1031C000000EEF6EE92A7F0E046E056E032ED0EF1F
:1031D00018F000EE62F0000EEF6E120000EE62F0EA
:1031E000FF0EEF6E1200000EF36E00EE00F0030E05
:1031F00001D81200EA6002D0EE6AFCD7F350E96011
:063200001200EE6AFCD78B
:0A320600020120511F0B010801E036
:103210006CD0245101E069D0060E215D29E12351D3
:10322000230A25E0010A13E0030A01E021D000018E
:10323000A6050CE10001100EB66F330EB76F000E3D
:10324000B86F090EBA6FBB6BC00EB96F11D0000119
:10325000A6050CE100016F0EB66F330EB76F000EBE
:10326000B86F460EBA6FBB6BC00EB96F01D000D0FD
:1032700002012051600BE842E842E842E842E8429D
:10328000010801E032D021510B0A29E0080A1CE0B4
:10329000090A14E0080A07E00B0A04E0080A01E042
:1032A00024D023D022D00001F80EB66F000EB76FE5
:1032B000010EBA6FBB6BC10EB96F17D00001800E43
:1032C000B96F23C2F8F011D00001F90EB66F000EED
:1032D000B76F010EBA6FBB6B810EB96F06D00001DC
:0C32E000800EB96F22C2F9F000D012007D
:0432EC0012010002C9
:1032F00000000008D8044400020001020301090292
:103300002900010100C0320904000002030000008E
:103310000921110100012246000705810340000137
:103320000705010340000104030904160349006175
:10333000006E002000470072006100680061006DAF
:10334000001E034E0036003400200043006F006E64
:1033500000740072006F006C006C00650072001059
:10336000034E00360034005F0031002E00300005AF
:10337000010905A1011500250135004501750195DB
:103380000A05091901290A8102950681010501250D
:1033900007463B01750495016514093981426500B2
:1033A0009501810126FF0046FF00093009317508AB
:1033B00095028102C0FE32002733002B33004133D7
:0433C000005F330077
:0C33C400060EF66E000EF76E000EF86E9E
:1033D00002010900F5506A6F0900F5506B6F03E1B7
:1033E0006A6701D03DD00900F550656F0900F550BE
:1033F000666F0900F550676F09000900F550E96E26
:103400000900F550EA6E090009000900F550686FDF
:103410000900F550696F09000900F6CF6CF2F7CF8B
:103420006DF2F8CF6EF265C2F6FF66C2F7FF67C2B3
:10343000F8FF0201685302E1695307E00900F55003
:10344000EE6E6807F8E26907F9D76CC2F6FF6DC245
:10345000F7FF6EC2F8FF02016A07000E6B5BBFD771
:02346000120058
:0E346200D9CFE6FFDACFE6FFE1CFD9FFE2CF08
:10347000DAFFE652E652D950FD0F006EFF0EDA2059
:1034800000C0DEFFDD6EDECFE9FFDDCFEAFFEF9E9D
:10349000FA0EDBCF00F0FB0EDBCF01F0FC0EDBCF32
:1034A00002F0FD0EDBCF03F000C030F001C031F0C0
:1034B00002C032F003C033F0E552E552E552E5CFE9
:0834C000DAFFE7CFD9FF12008B
:0834C800D9CFE6FFDACFE6FFE1
:1034D000E1CFD9FFE2CFDAFF010EE66ED950FA0F45
:1034E000E96EFF0EDA20EA6EEECFE6FFEECFE6FFE2
:1034F000EECFE6FFEFCFE6FF20EC12F0006E050EF8
:10350000E15C02E2E16AE552E16E0050E552E5CF8E
:08351000DAFFE7CFD9FF12003A
:08351800FE0EE3CFE9FFFF0EF8
:10352000E3CFEAFFE9CFF3FFEACFF4FFFB0EE3506E
:1035300003E1FC0EE35009E0FB0EE30602E2FC0EA1
:0C354000E306FD0EE350EE6EF1D7120022
:04354C002F6A2E6A4A
:10355000100EE76ED890323633362E362F3637506F
:103560002E5C38502F5805E337502E5E38502F5AB6
:08357000322AE72EF0D7120009
:0835780011EE00F021EE00F05D
:10358000F86A2B9CE2EC19F0CAEC1AF007EC0AF08E
:04359000FBD7120053
:02359400120023
:0A359600000001000000000000002A
:1035A000000000000000000000000000000000001B
:0935B00000000000000000000012
:020000040030CA
:0100000000FF
:0100010012EC
:010003001EDE
:01000500807A
:00000001FF
