:020000040000FA
:0600000000EF25F01200E4
:0600080004EF08F01200F5
:060018000CEF08F01200DD
:0610000000EF25F01200D4
:06100800F3EF11F01200ED
:06101800FCEF11F01200D4
:06102A0001001E4A000057
:0810300075010000250000001D
:08103800D9CFE6FFE1CFD9FF9B
:10104000E652A09A6A6A686A706A010EE66EE66AFB
:10105000E66A710EE66E0F0EE66E9AEC24F0006EF4
:10106000050EE15E0050160E6F6E9F0E6B6E7B0ECE
:10107000696EDF6ADF50006E016A080E005C000EC8
:10108000015810E2DF50040DF3CFE9FFF4CFEAFF7F
:10109000000EE926040EEA22EE6AEE6AEE6AEE6AB5
:1010A000DF2AE8D76D8C6E6A6D986D9C68A607D0B4
:1010B00068960101596B5E6B5F6B606BF7D701013E
:1010C000010E716F726F736B746B676BDF6A020E68
:1010D000DF5C26E2EA6ADF34FE0BEA36E96E500E88
:1010E000E926010EEA22EE6AED6AEA6ADF34FE0BB7
:1010F000EA36E96E4C0EE926010EEA22EE6AED6A46
:10110000DF50EA6A6B0FE96E010EEA22EF6ADF50E8
:10111000EA6A6D0FE96E010EEA22EF6ADF2AD7D77D
:101120000101080E506F040E516F160E706E04010F
:10113000200E026F040E036F080E016F840E006F05
:101140000101466B456BE552E552E7CFD9FF12002E
:10115000D9CFE6FFE1CFD9FFE6520101455116E1B3
:1011600006D06D6A696A0101456BA19ABDD06D6AAE
:10117000696A160E6F6E9F0E6B6E7B0E696E6DB692
:1011800002D06D86FCD70101010E456F450508E1CF
:101190006DBA06D0686A696A69806988020E456F0F
:1011A0006850040B06E06950040B03E0689418ECE7
:1011B0000FF06DA202D0A19A97D06850010B08E001
:1011C0006950010B05E038DF0101040E456F68909E
:1011D0006850100B06E06950100B03E003EC0FF0B1
:1011E000689868AC19D069AC0FD0010EE66EE66A5B
:1011F000000EE66EE66A730EE66EE66AC0EC17F065
:10120000006E060EE15E0050689C01016F5101E026
:101210006F076F5101E1EFD96850200B05E069506D
:10122000200B02E0EAEC0EF06850020B13E069506C
:10123000020B10E0010EE66EE66A000EE66EE66A4C
:10124000E6687F0EE66EC0EC17F0006E060EE15EFB
:1012500000506A6A040E0101E76E4519E8AE02D03B
:10126000E73402D0E750455D02E2A19A3DD069A67D
:101270003AD0DF6A040EDF5C36E268A631D06CCF6C
:1012800068F101016851780BE842E842E842696F71
:10129000689668B508D06951EA6A6D0FE96E010E6B
:1012A000EA22EF7007D06951EA6A6B0FE96E010E0E
:1012B000EA22EF70695103E12FEC0FF010D0000E1D
:1012C000E66EE66A680EE66E010EE66E720EE66E79
:1012D000E66AC0EC17F0006E060EE15E005001D029
:1012E00002D0DF2AC7D7A19AE552E552E7CFD9FF4E
:1012F0001200D9CFE6FFE1CFD9FF020EE126FD0EA5
:10130000DBA407D0E66AFE0EDBCFE6FF05DAE55286
:10131000E552FD0EDBA208D0010EE66EFE0EDBCF1D
:10132000E6FFFAD9E552E552FE0EDB50016A700F76
:10133000006E0F0E012200C0DEFF01C0DDFFDECF18
:10134000E9FFDDCFEAFFFD0EDBCFEFFF020EE15C30
:1013500002E2E16AE552E16EE552E7CFD9FF120001
:10136000D9CFE6FFE1CFD9FF020EE126FD0EDB501B
:101370000FE0FE0EEA6ADB34FE0BEA36E96E500E31
:10138000E926010EEA22EECFDEFFEDCFDDFF0ED023
:10139000FE0EEA6ADB34FE0BEA36E96E4C0EE926F5
:1013A000010EEA22EECFDEFFEDCFDDFFD9CFE9FF60
:1013B000DACFEAFFEE50ED1003E1F36AF46A49D0A8
:1013C000DECFE9FFDDCFEAFF020EE926000EEA22BA
:1013D000FB0EDBCFEEFFFC0EDBCFEDFFDECFE9FF38
:1013E000DDCFEAFFEE52FA0EDBCFEFFF400E006ECC
:1013F000DECFE9FFDDCFEAFF0050EF16880E006E6A
:10140000DECFE9FFDDCFEAFF0050EF12FD0EDB502B
:101410000CE0FE0EEA6ADB34FE0BEA36E96E500E93
:10142000E926010EEA22EF740BD0FE0EEA6ADB34E5
:10143000FE0BEA36E96E4C0EE926010EEA22EF7445
:10144000DECF00F0DDCF01F000C0F3FF01C0F4FFFC
:1014500000D0020EE15C02E2E16AE552E16EE55283
:10146000E7CFD9FF1200D9CFE6FFE1CFD9FF020EB7
:10147000E126FE0EDB5020E14AC1E9FF4BC1EAFF45
:10148000EE52080EEF6E4AC1E9FF4BC1EAFF020EB1
:10149000E926000EEA22200EEE6E040EED6E4AC121
:1014A000E9FF4BC1EAFF8C0EEF6E50C1E9FF51C15D
:1014B000EAFF840EEF6E3DD0FD0EDB50E824026E95
:1014C000FE0EDB50040DF3500224040DF3CF00F0A8
:1014D000F4CF01F0000E0026040E012200C0DEFF52
:1014E00001C0DDFF840E006EDECFE9FFDDCFEAFF35
:1014F0000050EF12FD0EDB50E824026EFE0EDB50B2
:10150000040DF3500224010F040DF3CF00F0F4CFCB
:1015100001F0000E0026040E012200C0DEFF01C013
:10152000DDFF840E006EDECFE9FFDDCFEAFF005065
:10153000EF12020EE15C02E2E16AE552E16EE55271
:10154000E7CFD9FF1200D9CFE6FFE1CFD9FF6DA8D1
:101550004ED0FE0EEA6ADB34FE0BEA36E96E500E20
:10156000E926010EEA22EE50EFCFEAFFE96E400EC7
:10157000EE16EE6AEE6AEE6AFE0EEA6ADB34FE0BE7
:10158000EA36E96E500EE926010EEA22EE50EFCF60
:10159000EAFFE96EEE7CFE0EEA6ADB34FE0BEA3609
:1015A000E96E500EE926010EEA22EF74400E006E3D
:1015B000FE0EEA6ADB34FE0BEA36E96E500EE926CF
:1015C000010EEA22EE50EFCFEAFFE96E0050EF166F
:1015D000FE0EEA6ADB34FE0BEA36E96E500EE926AF
:1015E000010EEA22EE50EFCFEAFFE96EEF7CE55202
:1015F000E7CFD9FF1200010171514DE1010E716F6A
:10160000725149E1010E726F020E555D0DE150C13C
:10161000E9FF51C1EAFFEE52EF6A50C1E9FF51C143
:10162000EAFFC80EEF6E37D0550535E16A6B48C149
:10163000E9FF49C1EAFFEE52080EEF6E48C1E9FF2B
:1016400049C1EAFF020EE926000EEA22200EEE6EE4
:10165000040EED6E48C1E9FF49C1EAFF840EEF6E4A
:10166000010E6A6F4AC1E9FF4BC1EAFFEE52080E54
:10167000EF6E4AC1E9FF4BC1EAFF020EE926000EF8
:10168000EA22200EEE6E040EED6E4AC1E9FF4BC158
:10169000EAFF800EEF6E12000101736B746B020E95
:1016A000555D1AE14AC1E9FF4BC1EAFFEE52080E4F
:1016B000EF6E4AC1E9FF4BC1EAFF020EE926000EB8
:1016C000EA22280EEE6E040EED6E4AC1E9FF4BC110
:1016D000EAFFC80EEF6E1FD05A510401265D0101CA
:1016E0005B510401275904E226C45AF127C45BF177
:1016F000D1D850C1E9FF51C1EAFF020EE926000E20
:10170000EA22280EEE6E040EED6E50C1E9FF51C1C3
:10171000EAFFC80EEF6E1200D9CFE6FFE1CFD9FF86
:10172000020EE126000EDE6E040EDD6EFD0EDB50B5
:10173000E824026EFE0EDB50040DF3500224040D6B
:10174000F3CF00F0F4CF01F0D9CFE9FFDACFEAFF11
:101750000050EE260150ED22DECFE9FFDDCFEAFF9B
:10176000EF9EFD0EDB500FE1FE0EEA6ADB34FE0B4E
:10177000EA36E96E4C0EE926010EEA22DECFEEFFD4
:10178000DDCFEDFF0ED0FE0EEA6ADB34FE0BEA364B
:10179000E96E500EE926010EEA22DECFEEFFDDCF24
:1017A000EDFFDECFE9FFDDCFEAFFEF9CDECFE9FF03
:1017B000DDCFEAFF040EE926000EEA22EF8C020ECE
:1017C000E15C02E2E16AE552E16EE552E7CFD9FF62
:1017D00012006D98010159BF2BD05EAF09D0020EE7
:1017E000556F745101E158DF0101726B716B1FD0AD
:1017F0004AC1E9FF4BC1EAFFEE52080EEF6E4AC143
:10180000E9FF4BC1EAFF020EE926000EEA22200E94
:10181000EE6E040EED6E4AC1E9FF4BC1EAFF8C0E7D
:10182000EF6E50C1E9FF51C1EAFF840EEF6E31D077
:10183000040120AF0DD00101010E556F735101E17C
:101840002BDF0101726B716B705101E1D4DE21D08D
:101850000101020E556F4AC1E9FF4BC1EAFFEE528A
:10186000080EEF6E4AC1E9FF4BC1EAFF020EE926FE
:10187000000EEA22200EEE6E040EED6E4AC1E9FF64
:101880004BC1EAFF840EEF6E726B716B705101E118
:10189000B2DE1200D9CFE6FFE1CFD9FFE652080E43
:1018A000DF6E01015A5D000E5B590BE25AC1DFFF8A
:1018B000545103E1010E546F04D0540502E1020EAD
:1018C000546FDF50006E016A00505A5D5A6F01502C
:1018D0005B595B6F50C1E9FF51C1EAFFEE52DFCFA8
:1018E000EFFF280E646F040E656F59B11CD0DF50F6
:1018F00019E056C1F6FF562B57C1F7FF000E5723CC
:1019000058C1F8FF58230800F550E66E64C1E9FF9E
:1019100065C1EAFF642B000E6523E552E750EF6EC8
:10192000DF06E5D717D0DF5015E056C1E9FF57C1F4
:10193000EAFF562B000E5723EF50E66E64C1E9FF15
:1019400065C1EAFF642B000E6523E552E750EF6E98
:10195000DF06E9D7E552E552E7CFD9FF1200D9CF2C
:10196000E6FFE1CFD9FF020EE12648C1E9FF49C1F8
:10197000EAFFEE52EFCFDFFFDFCF00F000500101B2
:101980005F5D000E605902E25FC1DFFFDF50006E55
:10199000016A00505F5D5F6F01506059606F010E1A
:1019A000DB6ADF50F36E010EDBCFF4FFF350F45C23
:1019B00016E2010EDB50EA6A280FE96E040EEA22F5
:1019C000EF50E66E5CC1E9FF5DC1EAFF5C2B000EE3
:1019D0005D23E552E750EF6E010EDB2AE2D7000EE1
:1019E000D8805F55000E605528E24AC1E9FF4BC11F
:1019F000EAFFEE52080EEF6E4AC1E9FF4BC1EAFF63
:101A0000020EE926000EEA22280EEE6E040EED6E9E
:101A100048C1E9FF49C1EAFFEF50400B07E14AC165
:101A2000E9FF4BC1EAFFC80EEF6E06D04AC1E9FFDD
:101A30004BC1EAFF880EEF6E2BD04AC1E9FF4BC1C4
:101A4000EAFFEE52080EEF6E4AC1E9FF4BC1EAFF12
:101A5000020EE926000EEA22200EEE6E040EED6E56
:101A60004AC1E9FF4BC1EAFF840EEF6E615162117A
:101A7000631109E007D063C1FBFF62C1FAFF0101F6
:101A80006151F96EF8DF01015E9F705101E1B3DD34
:101A9000020EE15C02E2E16AE552E16EE552E7CF57
:101AA000D9FF1200D9CFE6FFE1CFD9FFE6520101FD
:101AB000598F010EE66EE66AE66A710EE66E0F0E4B
:101AC000E66E9AEC24F0006E050EE15E0050DF6ACF
:101AD000DF50006E016A080E005C000E015810E233
:101AE000DF50040DF3CFE9FFF4CFEAFF000EE92643
:101AF000040EEA22EE6AEE6AEE6AEE6ADF2AE8D7A0
:101B00006D8CDF6A020EDF5C10E2DF50EA6A6B0F59
:101B1000E96E010EEA22EF6ADF50EA6A6D0FE96EA4
:101B2000010EEA22EF6ADF2AEDD7010EE66EE66AC1
:101B3000E66A470EE66E010EE66E9AEC24F0006E41
:101B4000050EE15E00506D9C0101080E506F040E01
:101B5000516F000E486F040E496F48C14AF149C1E8
:101B60004BF122C446F1465103E1100E456F13D0EC
:101B7000010EE66EE66A460EE66E010EE66E010E98
:101B8000E66EE66AC0EC17F0006E060EE15E0050ED
:101B90000101200E456FE552E552E7CFD9FF120053
:101BA000800E0401205D01E0ACD00101C00E596F30
:101BB00004012351030A61E0010A10E0030A03E073
:101BC0000101596B9ED00101540E566F470E576F9D
:101BD000000E586F120E5A6F5B6B93D0210E006E81
:101BE000480E016E000E026E22C403F0046A056AFC
:101BF000030E366E376A386A03C031F004C032F023
:101C000005C033F09FEC19F02EC003F02FC004F094
:101C100030C005F000500324F36E01500420F46E30
:101C200002500520F86EF4CFF7FFF3CFF6FF09005E
:101C3000F5CF56F10900F5CF57F10800F5CF58F16F
:101C400056C1F6FF57C1F7FF58C1F8FF020EF6263E
:101C5000000EF722F8220800F5CF5AF156C1F6FF20
:101C600057C1F7FF58C1F8FF030EF626000EF72202
:101C7000F8220800F5CF5BF144D0030E225D3EE26E
:101C8000240E006E480E016E000E026E22C403F098
:101C9000046A056A030E366E376A386A03C031F08B
:101CA00004C032F005C033F09FEC19F02EC003F0F1
:101CB0002FC004F030C005F000500324F36E015033
:101CC0000420F46E02500520F86EF4CFF7FFF3CF36
:101CD000F6FF0900F5CF56F10900F5CF57F10800DE
:101CE000F5CF58F156C1F6FF57C1F7FF58C1F8FFBD
:101CF0000800F55001015A6F5B6B02D00101596B6E
:101D000000D01200D9CFE6FFE1CFD9FF020EE126C5
:101D10000401286B296B20511F0B020A12E0030AF1
:101D20000DE0010A01E042D00101598F0401288130
:101D30000101660502E10401288338D00101598FB1
:101D400035D00101598F040124BF10D024510F0B4D
:101D5000E96EEA6AD890E936EA364C0EE926010EB9
:101D6000EA22EECFDEFFEDCFDDFF0FD024510F0BC7
:101D7000E96EEA6AD890E936EA36500EE926010E95
:101D8000EA22EECFDEFFEDCFDDFFDECFE9FFDDCFD4
:101D9000EAFFEF50800B09E0DECFE9FFDDCFEAFF7D
:101DA000EF50040B02E0010E286F00D0010159AF83
:101DB00007D0280E566F040E576F5981020E5A6FC6
:101DC000020EE15C02E2E16AE552E16EE552E7CF24
:101DD000D9FF120070A015D048C1E9FF49C1EAFF40
:101DE000EF5080080DE150C1E9FF51C1EAFFEF500B
:101DF000840806E148C1E9FF49C1EAFF8C0EEF6E95
:101E00007090689A1200698468986D820101010ED1
:101E1000676F000EE66EE66AE66EE66A750EE66EBF
:101E2000E66AC0EC17F0006E060EE15E005012008C
:101E30000101676B000EE66EE66AE66EE66A740EF6
:101E4000E66EE66AC0EC17F0006E060EE15E00502A
:101E50006D92699468A402D06894FCD71200D9CF1F
:101E6000E6FFE1CFD9FFE65201012D0E6F6FFD0EA7
:101E7000681553E17E0E6815E8407F0B040DF3CF23
:101E800048F1F4CF49F1000E4827040E492348C118
:101E90004AF149C14BF14A7548C1E9FF49C1EAFF1E
:101EA000EF503C0BE842E8420D0835E1DF6A080ECE
:101EB000DF5C23E248C1E9FF49C1EAFF020EE926DF
:101EC000000EEA22EE50EFCFEAFFE96EEF50E66E29
:101ED000DF50EA6A200FE96E040EEA22E552E7506D
:101EE000EF6E48C1E9FF49C1EAFF020EE926000E84
:101EF000EA22EE2AEF22DF2ADAD748C1E9FF49C1F8
:101F0000EAFF020EE926000EEA22200EEE6E040E13
:101F1000ED6E0DD801D03AD805D0FD0E6815040835
:101F200001E159D8E552E552E7CFD9FF120001018E
:101F3000546B706B736B746B6A6B556B50C1E9FFBC
:101F400051C1EAFFEF9E507550C1E9FF51C1EAFF50
:101F5000EF9E50754AC1E9FF4BC1EAFFEF9E596BF6
:101F60005A6B5B6B5E6B5F6B606B92D8000EE66EBC
:101F7000E66AE66EE66A030EE66EE66AC0EC17F005
:101F8000006E060EE15E0050E9EF0BF0020E01015B
:101F9000555D02E1E4DC1ED0556B6A511AE14AC17D
:101FA000E9FF4BC1EAFFEE52080EEF6E4AC1E9FFAE
:101FB0004BC1EAFF020EE926000EEA22200EEE6E69
:101FC000040EED6E4AC1E9FF4BC1EAFF8C0EEF6EC5
:101FD00001D06A6B1200D9CFE6FFE1CFD9FFE652FC
:101FE00050C1E9FF51C1EAFFEF50400B01E0010E83
:101FF000DF6E01015075080E455D09E122C46EFFD8
:102000006E5003E0100E456F02D0040E456F55056B
:1020100028E150C1E9FF51C1EAFF020EE926000E96
:10202000EA22280EEE6E040EED6E34DC020E010183
:10203000545D07E150C1E9FF51C1EAFF840EEF6E24
:102040000FD0DF5007E150C1E9FF51C1EAFFC80ED0
:10205000EF6E06D050C1E9FF51C1EAFF880EEF6E66
:1020600012D05EAF0FD061516211631109E007D049
:1020700063C1FBFF62C1FAFF01016151F96EF8DF34
:1020800001015E9F556BE552E552E7CFD9FF120083
:1020900004012051600BE842E842E842E842E8428D
:1020A000000901E058D021510C0A54E00B0A43E02A
:1020B0000C0A35E0010A26E00B0A22E0020A20E0C1
:1020C000030A1CE0080A10E0010A0CE00F0A08E00D
:1020D000030A01E03FD00101598F080E456F3BD044
:1020E0005FDD39D0DFDC37D00101460E566F010EBF
:1020F000576F5981010E5A6F598F2DD003DE2BD0A7
:102100002BD829D024510101566F576B470E562703
:10211000010E57235981010E5A6F598F1CD00101AE
:10212000598F04012451EA6A470FE96E010EEA2231
:1021300022C4EFFF10D0000EE66EE66AE66EE66A95
:10214000020EE66EE66AC0EC17F0006E060EE15E67
:10215000005001D000D01200D9CFE6FFE1CFD9FF67
:10216000050EE1260401220510E120511F0B000994
:102170000CE10101598F030E0401215D04E101010D
:10218000010E666F02D00101666B0401225101E06D
:1021900020D120511F0B020801E01BD124510F0B4D
:1021A000000901E116D124510F0B010801E211D100
:1021B000200E0101455D01E00CD1598F040124BFBF
:1021C0001AD024510F0BE96EEA6AD890E936EA3644
:1021D0004C0EE926010EEA22EECFDEFFEDCFDDFF49
:1021E00024510F0BEA6A6D0FE96E010EEA22020E0E
:1021F000EFCFDBFF19D024510F0BE96EEA6AD890BC
:10220000E936EA36500EE926010EEA22EECFDEFF6D
:10221000EDCFDDFF24510F0BEA6A6B0FE96E010E63
:10222000EA22020EEFCFDBFFD950020FE96EDACFC0
:10223000EAFFEF50010B03E1000EDF9401D0DF84D1
:1022400024BF10D024510F0BE96EEA6AD890E9360A
:10225000EA364C0EE926010EEA22DECFEEFFDDCF94
:10226000EDFF0FD024510F0BE96EEA6AD890E936E2
:10227000EA36500EE926010EEA22DECFEEFFDDCF70
:10228000EDFF030E215D23E1DECFE9FFDDCFEAFFA5
:10229000EF50800B13E024BF09D024510F0BEA6AE2
:1022A0006D0FE96E010EEA22EF8208D024510F0B68
:1022B000EA6A6B0FE96E010EEA22EF82840E006E6D
:1022C000DECFE9FFDDCFEAFF0050EF1282D0DF74EE
:1022D000DECFE9FFDDCFEAFFEF50800B1BE0DECF62
:1022E000E9FFDDCFEAFFEF9EDECFE9FFDDCFEAFFBA
:1022F000EF8C020EE66EE66ADECFE6FFDDCFE6FF8C
:10230000050EE66EE66AC0EC17F0006E060EE15EA2
:10231000005005D0DECFE9FFDDCFEAFFEF8CDF74A0
:10232000D950020FE96EDACFEAFFEF50020B07E156
:10233000DECFE9FFDDCFEAFFEF50800B2DE0040197
:1023400024BF09D024510F0BEA6A6D0FE96E010E0C
:10235000EA22EF9208D024510F0BEA6A6B0FE96E64
:10236000010EEA22EF923B0E006EDECFE9FFDDCFD9
:10237000EAFF0050EF16020EE66EE66ADECFE6FFD9
:10238000DDCFE6FF050EE66EE66AC0EC17F0006EE4
:10239000060EE15E005008D03B0E006EDECFE9FF76
:1023A000DDCFEAFF0050EF16040124510F0B016A44
:1023B000700F006E0F0E0122030E00C0DBFF040E33
:1023C00001C0DBFF030EDBCFE9FF040EDBCFEAFF2A
:1023D000EF90050EE15C02E2E16AE552E16EE55242
:0623E000E7CFD9FF120057
:0A23E600DACFE4FFE2CFDAFFE6529F
:1023F000E552E5CFDAFF1100D8CFE4FFE0CFE4FFEC
:10240000E46EDACFE4FFE2CFDAFFE652E552E5CF41
:10241000DAFFE550E5CFE0FFE5CFD8FF1000D9CFD8
:10242000E6FFE1CFD9FF020EE1267FD88980DE6A80
:10243000DD6ADECF00F0DDCF01F0000E005C7D0E26
:10244000015805E2DF2A010E01E3DB2AF2D7DE6A3A
:10245000DD6ADECF00F0DDCF01F0000E005C7D0E06
:10246000015805E2DF2A010E01E3DB2AF2D7DE6A1A
:10247000DD6ADECF00F0DDCF01F0000E005C7D0EE6
:10248000015805E2DF2A010E01E3DB2AF2D7DE6AFA
:10249000DD6ADECF00F0DDCF01F0000E005C7D0EC6
:1024A000015805E2DF2A010E01E3DB2AF2D7DE6ADA
:1024B000DD6ADECF00F0DDCF01F0000E005C7D0EA6
:1024C000015805E2DF2A010E01E3DB2AF2D7DE6ABA
:1024D000DD6ADECF00F0DDCF01F0000E005C7D0E86
:1024E000015805E2DF2A010E01E3DB2AF2D7DE6A9A
:1024F000DD6ADECF00F0DDCF01F0000E005C7D0E66
:10250000015805E2DF2A010E01E3DB2AF2D7A8EC2D
:1025100008F027D8FCD7020EE15C02E2E16AE5523E
:10252000E16EE552E7CFD9FF12000F0EC16E926A3D
:10253000936A946A956A966A806A816A826A836AF3
:10254000846A02D81CEF08F0010E89169216928256
:102550000101756B766B776B786B0101006B016B1A
:102560001200D9CFE6FFE1CFD9FF0F0EE126200EF2
:102570000101E76E4519E8AE02D0E73402D0E7501A
:10258000455D03E36D50020B02E071EF17F00101AE
:102590000051011102E1000E08D000C1E9FF01C1A4
:1025A000EAFFEF50800B01E0010E000902E071EF3D
:1025B00017F08EEC21F00101025102E071EF17F0EB
:1025C000050180918093809580978099809B809D64
:1025D000809F819181938195819781998291829346
:1025E00082958287800E836F846F856F866F01016D
:1025F0007A5102E00501808101017B5102E0050171
:10260000808301017C5102E00501808501017D513B
:1026100002E00501808701017E5102E00501808909
:1026200001017F5102E00501808B0101805102E030
:102630000501808D0101815102E00501808F0101BA
:10264000845102E0050181810101855102E005010B
:102650008183060EDB6A070EDB6A080EDB6A090E51
:10266000DB6A0A0EDB6A0B0EDB6A0C0EDB6A0D0EF0
:10267000DB6A0101865124E0006A016A026A400EA9
:10268000036ED9500A0FE96EDACFEAFFEECF31F0D0
:10269000EECF32F0EECF33F0EFCF34F000C036F0B3
:1026A00001C037F002C038F003C039F048EC18F030
:1026B00034C0EDFF33C0EDFF32C0EDFF31C0EFFF9E
:1026C0000101875124E0006A016A026A400E036E2C
:1026D000D9500A0FE96EDACFEAFFEECF31F0EECF34
:1026E00032F0EECF33F0EFCF34F000C036F001C05F
:1026F00037F002C038F003C039F049EC18F034C0AC
:10270000EDFF33C0EDFF32C0EDFF31C0EFFF01013F
:10271000885124E0006A016A026A400E036ED950B3
:10272000060FE96EDACFEAFFEECF31F0EECF32F0EE
:10273000EECF33F0EFCF34F000C036F001C037F009
:1027400002C038F003C039F048EC18F034C0EDFF97
:1027500033C0EDFF32C0EDFF31C0EFFF0101895101
:1027600024E0006A016A026A400E036ED950060F27
:10277000E96EDACFEAFFEECF31F0EECF32F0EECFF6
:1027800033F0EFCF34F000C036F001C037F002C0B4
:1027900038F003C039F049EC18F034C0EDFF33C015
:1027A000EDFF32C0EDFF31C0EFFF0A0EDBCF31F09D
:1027B0000B0EDBCF32F00C0EDBCF33F00D0EDBCF88
:1027C00034F0366A376A386A396A17EC1AF0010A47
:1027D00015E1060EDBCF31F0070EDBCF32F0080E2D
:1027E000DBCF33F0090EDBCF34F0366A376A386A54
:1027F000396A17EC1AF0010A01E149D20A0EDBCF5F
:1028000000F00B0EDBCF01F00C0EDBCF02F00D0E53
:10281000DBCF03F0366A376A386A396A00C031F0B4
:1028200001C032F002C033F003C034F01EEC1AF0E5
:10283000010A01E02DD1D00E0A6E0F0E0B6EC90EEB
:102840000C6E400E0D6E0AC0E6FF0BC0E6FF0CC01A
:10285000E6FF0DC0E6FF060EDBCF16F0070EDBCF5E
:1028600017F0080EDBCF18F0090EDBCF19F016C0F9
:10287000E6FF17C0E6FF18C0E6FF19C0E6FF060E28
:10288000DBCF31F0070EDBCF32F0080EDBCF33F0B9
:10289000090EDBCF34F0060EDBCF36F0070EDBCFB0
:1028A00037F0080EDBCF38F0090EDBCF39F032EC11
:1028B00019F031C022F032C023F033C024F034C00C
:1028C00025F00A0EDBCF31F00B0EDBCF32F00C0E11
:1028D000DBCF33F00D0EDBCF34F00A0EDBCF36F05A
:1028E0000B0EDBCF37F00C0EDBCF38F00D0EDBCF4D
:1028F00039F032EC19F031C026F032C027F033C085
:1029000028F034C029F026C036F027C037F028C0A0
:1029100038F029C039F022C031F023C032F024C091
:1029200033F025C034F049EC18F031C01EF032C04D
:102930001FF033C020F034C021F01EC0E6FF1FC0DE
:10294000E6FF20C0E6FF21C0E6FFB6EC1DF0E55231
:10295000E552E552E552E552E7CF19F0E552E7CFEF
:1029600018F0E552E7CF17F0E552E7CF16F030C088
:102970001AF031C01BF032C01CF033C01DF01AC079
:1029800036F01BC037F01CC038F01DC039F016C03F
:1029900031F017C032F018C033F019C034F0DFEC5A
:1029A00018F031C012F032C013F033C014F034C04C
:1029B00015F012C0E6FF13C0E6FF14C0E6FF15C015
:1029C000E6FFC2EC24F0E552E552E552E552E5524D
:1029D000E7CF0DF0E552E7CF0CF0E552E7CF0BF073
:1029E000E552E7CF0AF030C00EF031C00FF032C030
:1029F00010F033C011F00EC036F00FC037F010C029
:102A000038F011C039F00AC031F00BC032F00CC000
:102A100033F00DC034F048EC18F031C006F032C08D
:102A200007F033C008F034C009F08C0E366EF90E92
:102A3000376EA20E386E3F0E396E06C031F007C0F9
:102A400032F008C033F009C034F032EC19F031C074
:102A500002F032C003F033C004F034C005F002C00D
:102A6000E6FF03C0E6FF04C0E6FF05C0E6FFD1DADB
:102A7000E552E552E552E552F3CF00F0F4CF01F014
:102A8000020E0026000E01220E0E00C0DBFFF6D063
:102A9000060EDBCF0EF0070EDBCF0FF0080EDBCFFC
:102AA00010F0090EDBCF11F00EC0E6FF0FC0E6FFFD
:102AB00010C0E6FF11C0E6FF060EDBCF31F0070EB7
:102AC000DBCF32F0080EDBCF33F0090EDBCF34F072
:102AD000060EDBCF36F0070EDBCF37F0080EDBCF6C
:102AE00038F0090EDBCF39F032EC19F031C01AF0B2
:102AF00032C01BF033C01CF034C01DF00A0EDBCF17
:102B000031F00B0EDBCF32F00C0EDBCF33F00D0EBD
:102B1000DBCF34F00A0EDBCF36F00B0EDBCF37F015
:102B20000C0EDBCF38F00D0EDBCF39F032EC19F0A4
:102B300031C01EF032C01FF033C020F034C021F08D
:102B40001EC036F01FC037F020C038F021C039F069
:102B50001AC031F01BC032F01CC033F01DC034F07D
:102B600049EC18F031C016F032C017F033C018F03D
:102B700034C019F016C0E6FF17C0E6FF18C0E6FF24
:102B800019C0E6FFB6EC1DF0E552E552E552E552FC
:102B9000E552E7CF11F0E552E7CF10F0E552E7CF6D
:102BA0000FF0E552E7CF0EF030C012F031C013F055
:102BB00032C014F033C015F012C036F013C037F035
:102BC00014C038F015C039F00EC031F00FC032F02B
:102BD00010C033F011C034F0DFEC18F031C00AF04F
:102BE00032C00BF033C00CF034C00DF00AC0E6FF69
:102BF0000BC0E6FF0CC0E6FF0DC0E6FFC2EC24F000
:102C0000E552E552E552E55230C006F031C007F01A
:102C100032C008F033C009F08C0E366EF90E376EF4
:102C2000A20E386E3F0E396E06C031F007C032F08A
:102C300008C033F009C034F032EC19F031C002F0B2
:102C400032C003F033C004F034C005F002C0E6FF28
:102C500003C0E6FF04C0E6FF05C0E6FFDAD9E5528F
:102C6000E552E552E552F3CF00F0F4CF01F0020E49
:102C70000026000E01220E0E00C0DBFFDB50070B0A
:102C800005010F0BF36EF00E8215F310826F010E2B
:102C900001019115066E020E9015056E040E8F153A
:102CA000046E080E8E15036E100E8D15026E200E2A
:102CB0008C15016E400E8B15006E800E8A1500106B
:102CC000011002100310041005100610DF6E010E33
:102CD0009915066E020E9815056E040E9715046E72
:102CE000080E9615036E100E9515026E200E9415A3
:102CF000016E400E9315006E800E921500100110AB
:102D000002100310041005100610E76E010EE7CF45
:102D1000DBFF006A016AFE0E026E420E036EDFCF19
:102D20000CF00CC033F039EC18F031C008F032C0B0
:102D300009F033C00AF034C00BF0660E366E376E01
:102D4000E60E386E3F0E396E08C031F009C032F021
:102D50000AC033F00BC034F032EC19F031C004F08B
:102D600032C005F033C006F034C007F004C036F0BE
:102D700005C037F006C038F007C039F000C031F0A8
:102D800001C032F002C033F003C034F049EC18F057
:102D9000E8EC19F0020E32C0DBFF030E33C0DBFF9C
:102DA000006A016AFE0E026E420E036E010EDBCF58
:102DB0000CF00CC033F039EC18F031C008F032C020
:102DC00009F033C00AF034C00BF0660E366E376E71
:102DD000E60E386E3F0E396E08C031F009C032F091
:102DE0000AC033F00BC034F032EC19F031C004F0FB
:102DF00032C005F033C006F034C007F004C036F02E
:102E000005C037F006C038F007C039F000C031F017
:102E100001C032F002C033F003C034F048EC18F0C7
:102E2000E8EC19F0040E32C0DBFF050E33C0DBFF07
:102E3000020EDBCF00F0030EDBCF01F0013404E221
:102E40000050FF08000E015405E2020EDB68030E7D
:102E5000DB6A0ED0020EDBCF00F0030EDBCF01F0F9
:102E60000001800E011404E0020EDB6A030EDB6A2F
:102E7000040EDBCF00F0050EDBCF01F0013404E2DD
:102E80000050FF08000E015405E2040EDB68050E39
:102E9000DB6A0ED0040EDBCF00F0050EDBCF01F0B5
:102EA0000001800E011404E0040EDB6A050EDB6AEB
:102EB000020EDBCF83F5040EDBCF84F5070EE66E42
:102EC000800EE66E050EE66E010EE66EE66EB0EC66
:102ED00009F0006E050EE15E0050F3CF00F1F4CF73
:102EE00001F10F0EE15C02E2E16AE552E16EE552AA
:102EF000E7CFD9FF1200120012001200120037EFC4
:102F000023F012001E0EE66E010EE66E79EC09F05B
:102F1000E552E552400EE66E000EE66E050EE66ED8
:102F2000E66A010EE66EB0EC09F0006E050EE15E99
:102F30000050F3CF75F1F4CF76F112000101660570
:102F40001EE1010167051BE1D7DF6D920101676B8F
:102F50000101100E436F0E0E446F4307000E445BD9
:102F600043514411FAE16D84080E436F070E446F1C
:102F70004307000E445B43514411FAE16D94120083
:102F8000D9CFE6FFE1CFD9FFFD0EDBCF32F0FE0E49
:102F9000DBCF33F0E868321802E17F0E331831E0FE
:102FA000030E321801E133502AE0020E321801E11B
:102FB000335023E0010E321801E133501CE0740E4F
:102FC000321801E1335015E0750E321801E133502B
:102FD0000EE0730E321801E1335007E0720E321822
:102FE00001E1335001E00FD00ED087DF0CD083DF3A
:102FF0000AD082DF08D086DF06D083DF04D07FDFEF
:1030000002D07CDF00D0010E00D0E552E7CFD9FF1F
:103010001200D9CFE6FFE1CFD9FFFB0EDBCF02F0E4
:10302000FC0EDBCF03F0FD0EDBCF04F0FE0EDBCF9A
:1030300005F0366A376A386A3F0E396E02C031F0E1
:1030400003C032F004C033F005C034F049EC18F08E
:10305000E8EC19F032C000F033C001F000C0F3FF1B
:0E30600001C0F4FF00D0E552E7CFD9FF120007
:02306E002B9E97
:1030700005D02B9E33AE02D0336C2B8E33C02DF097
:103080002C6A3D6A3C6A860E2E6E2F6A98EF1AF003
:10309000397E2B6AD4EC1AF0ECEC1AF02BB67CEFEC
:1030A0001AF02BA20AD02BAA03D02BBE7CEF1AF069
:1030B0002BA488EF1AF085EF1AF02BAA05D02BACC1
:1030C00088EF1AF085EF1AF02BA00AD02BA808D0B1
:1030D0002BBE04D02BA402D091EF1AF095EF1AF07A
:1030E0003C6A2F6A3950345C3B6E10E331C03DF0CE
:1030F00032C02CF033C02DF034C03AF036C031F07D
:1031000037C032F038C033F02B3A09D036C03DF02A
:1031100037C02CF038C02DF039C03AF03B6C2B9EF4
:103120002BBC2B8E3AC02EF02BB0C4EF1AF01A0E27
:103130003B60C4EF1AF02E6A346A2BA408D0316CBD
:10314000321E331E341EE86A3222332234222BAC64
:1031500008D03D6C2C1E2D1E2E1EE86A2C222D221E
:103160002E22306A3B5207E034343332323231326D
:1031700030323B2EF9D731503D2632502C2233507D
:103180002D2234502E2230C03CF02B9E2EAE0BD080
:103190003C6C3D1E2C1E2D1E2E1EE86A3D222C224C
:1031A0002D222E222B8E2EA006D0D8802D322C320E
:1031B0003D323C323A2A3AC02EF098EF1AF02B6A90
:1031C000D4EC1AF0ECEC1AF02BB67CEF1AF02BA230
:1031D00005D02BBA7CEF1AF083EF1AF02BBA8FEFE1
:1031E0001AF02BA005D02BB87CEF1AF08FEF1AF055
:1031F0002BB883EF1AF02F6A7F0E34242E6EE86A04
:103200002F2239502E5EE86A2F5A1A0E3A6E346A0F
:103210003C6A3D6A2C6A2D6A3650315E3750325A0C
:103220003850335A000E345A09E736503126375099
:10323000322238503322000E342201D03C8AD890FA
:103240003136323633363436D8903C363D362C362D
:103250002D363A2EE1D7335032103110D8A43C8AA3
:1032600098EF1AF02B6AD4EC1AF0ECEC1AF02BB6AB
:103270007CEF1AF02BA205D02BB87CEF1AF083EF6D
:103280001AF02BAA05D02BB07CEF1AF083EF1AF0BE
:103290002BB002D02BA802D08FEF1AF02F6A395032
:1032A00034242E6EE86A2F227E0E2E5EE86A2F5A94
:1032B0003C6A3D6A2C6A2D6A38503302F4CF2DF0F7
:1032C000F3CF2CF037503302F3503D26F4502C222C
:1032D000000E2D2238503202F3503D26F4502C229D
:1032E000000E2D2236503302F3503C26F4503D227E
:1032F000000E2C222D2237503202F3503C26F4507F
:103300003D22000E2C222D2238503102F3503C2653
:10331000F4503D22000E2C222D2236503202F45061
:103320003C26000E3D222C222D2237503102F45033
:103330003C26000E3D222C222D2298EF1AF033C09D
:103340003DF032C03CF031C03BF031503602F4CF9A
:103350002FF0F3CF2EF032503702F4CF31F0F3CF0D
:1033600030F03602F3502F26F4503022E86A312232
:103370003B503702F3502F26F4503022E86A3122B6
:1033800033503602F3503026F45031223350370296
:10339000326AE86A3222F3503126F45032223B502E
:1033A0003802F3503026F4503122336AE86A322270
:1033B00033223C503802F3503126F4503222E86A6E
:1033C00033223D503802F3503226F4503322000CA1
:1033D0002B6AD4EC1AF02BB6F2EF19F02BA20ED018
:1033E0002BB405D07F0E336EFF0E326E1FD0800ED1
:1033F000336E326A1BD0336A326A18D02BB0FBD7D7
:103400008F0E3460EDD77E0E3464F5D78E0E345CAB
:1034100005E0D89033323232342AF8D72BA406D0C4
:10342000326C331EE86A332233AEE5D7120027EC44
:103430001AF02BB6000C2BB0010C000C27EC1AF084
:103440002BB6000C2BB0000C2BA4000C010C2B6A2B
:10345000D4EC1AF0ECEC1AF02BB612002BAE08D01C
:103460002BA004D02BA802D02B8012002B9012008E
:103470003950345C0BE13850335C08E13750325C32
:1034800005E13650315C02E12B801200D8A002D059
:103490002B8E10D0345039C034F0396E335038C0D0
:1034A00033F0386E325037C032F0376E315036C09C
:1034B00031F0366E3950345C10E0FF0F09E02B908C
:1034C0002BB403D02BAE2B8412002BAE2B94120006
:1034D000392AD8903832373236323650315E37504A
:1034E000325A3850335A33BEEAD7D8903136323652
:1034F0003336342EF8D7C8D77F0E346EFF0E336EB6
:10350000326E316E12007F0E2BBEFF0E346E02D073
:103510007F0E346E800E336E326A316AF3D72BAE73
:1035200004D0800E346E336AF7D7346A336AF4D726
:103530002D502C103D103C10F8E02FBEF0D72DBEC2
:103540000CD02E502F10EBE0D8903C363D362C3668
:103550002D362E06D8A02F06F2D72F50D4E12E28D4
:10356000D2E03CAE11D07F0E3C1402E13DA00CD065
:103570003D2AE86A2C222D2207E3D8802D322C32F6
:103580003D322E2A2E28BFE02E50C9E03DC031F03A
:103590002CC032F02D34336E2E30346E3332349EE4
:1035A0002BBE348E82EF1AF03336343602E32B848E
:1035B0002B7E06E12B80346A336A326A316A12004C
:1035C000342803E0D88033321200D890333202E13D
:1035D0002B8212002B8612003836393602E32B8CF0
:1035E0002B7E06E12B88396A386A376A366A120000
:1035F000392803E0D88038321200D8903832EAE116
:103600002B8A120027EC1AF02BB6000C2BB0000C02
:103610002BB4000C010C2A6A38AE14EF1BF0376C87
:10362000381EE86A38222A1E33AE1CEF1BF0326CBB
:10363000331EE86A33222A1EEAEC24F033BE2CEF54
:103640001BF02AAE000C326C331EE86A33222E6C5B
:103650002F1EE86A2F22000C2ABE23EF1BF02B88B6
:02366000FF0C5D
:0E366200D9CFE6FFDACFE6FFE1CFD9FFE2CF06
:10367000DAFF210EE12402E3E168E652E16ED9505F
:10368000FA0FE96EFF0E04DAD950050FE66E000E50
:10369000DA20E66ED950010FE96E000EEED91CEC6F
:1036A00022F0006E060EE15C02E2E16AE552E16E94
:1036B0000050DF6E840EDF1405E0210E0001F26F72
:1036C000F36B0FDAD950FA0FE96EFF0ED6D967EC1B
:1036D00024F0E552E552E552E552190E30C0DBFF09
:1036E0001A0E31C0DBFF1B0E32C0DBFF1C0E33C0D5
:1036F000DBFF95D902DA390E36DA1EEC1AF0010A30
:1037000007E108DAD950190FE96E000EC1D931D19D
:1037100086D9F3D91EDA06E1E4D9210E0001F26F51
:10372000F36B52D17CD9366A376A386A12DA01E013
:1037300079D0F90EDBCFE6FF010EE552D880E754D1
:10374000E76E0C0EE7CFDBFF006A016A026A3F0EEC
:10375000036E086A096A800E0A6E3F0E0B6E190E20
:10376000DBCF0CF01A0EDBCF0DF01B0EDBCF0EF013
:103770001C0EDBCF0FF00CC036F00DC037F00EC0C2
:1037800038F00FC039F008C031F009C032F00AC07B
:1037900033F00BC034F048EC18F0C3D988D934C0EA
:1037A000DBFF006A016A026AC00E036E00C0E6FF1A
:1037B00001C0E6FF02C0E6FFE66ED9501D0FE96EBC
:1037C000000E5BD9B6EC1DF0E552E552E552E5522C
:1037D000E552E7CF03F0E552E7CF02F0E552E7CF3D
:1037E00001F0E552E7CF00F030C004F031C005F041
:1037F00032C006F033C007F030C036F031C037F0C9
:1038000032C038F033C039F0F4D832EC19F0190E68
:1038100031C0DBFF1A0E32C0DBFF1B0E33C0DBFFF3
:103820001C0E0FD077D950D9190EDBCF36F01A0EF7
:10383000DBCF37F01B0EDBCF38F01C0EDBCF39F0BF
:1038400036D934C0DBFF1D0EDBCF04F01E0EDBCFFC
:1038500005F01F0EDBCF06F0200EDBCF07F00B0EBE
:10386000366E8D0E376EB10E386EC00E396E04C0D6
:1038700031F005C032F006C033F007C034F049EC37
:1038800018F0E7D8F00E366E500E376EB30E386E65
:10389000400E396E49EC18F0110E31C0DBFF120EEC
:1038A00032C0DBFF130E33C0DBFF140E34C0DBFF6E
:1038B000650E316E200E326E010E336EBF0E346E09
:1038C000C8D86B0E366E160E376E6F0E386E3F0E02
:1038D000396E49EC18F00D0E31C0DBFF0E0E32C010
:1038E000DBFF0F0E33C0DBFF100E34C0DBFF1D0EFD
:1038F000DBCF31F01E0EDBCF32F01F0EDBCF33F00B
:10390000200EDBCF34F00D0EDBCF36F00E0EDBCF0A
:1039100037F00F0EDBCF38F0100E21D9110EDBCFB0
:1039200036F0120EDBCF37F0130EDBCF38F0140E6B
:10393000DBCF39F0DFEC18F0150E31C0DBFF160ECF
:1039400032C0DBFF170E33C0DBFF180E34C0DBFFC5
:1039500066D8BAD8150EDBCF36F0160EDBCF37F0AF
:10396000170EDBCF38F0180EFAD8DBD849EC18F078
:1039700063D8F90EDB500EE10C0EDB5006E042D8A6
:10398000C1D8F1D849EC18F057D80B0EDB501CE029
:10399000DAD819D00B0EDB500CE00C0EDB500EE128
:1039A00031D8DB0E366E0F0E376E490E386E400E74
:1039B00007D0C9D841D80C0EDB5006E023D8A2D8D6
:1039C000D2D849EC18F038D81DD800C030F001C06A
:1039D00031F002C032F003C033F0210EE15C02E2AC
:1039E000E16AE552E16EE552E5CFDAFFE7CFD9FFB4
:1039F000120000C031F001C032F002C033F003C049
:103A000034F01200010EDBCF00F0020EDBCF01F02C
:103A1000030EDBCF02F0040EDBCF03F01200190E11
:103A2000DBCF00F01A0EDBCF01F01B0EDBCF02F074
:103A30001C0EDBCF03F01200010E31C0DBFF020EC3
:103A400032C0DBFF030E33C0DBFF040E34C0DBFFEC
:103A500012001D0EDBCF36F01E0EDBCF37F01F0E2F
:103A6000DBCF38F0200E7BD831C000F032C001F03F
:103A700033C002F034C003F01200DA20EA6EEECF59
:103A8000E6FFEECFE6FFEECFE6FFEFCFE6FF120058
:103A9000DA20EA6E010EEECFDBFF020EEECFDBFF87
:103AA000030EEECFDBFF040EEECFDBFF120032EC95
:103AB00019F01D0E31C0DBFF1E0E32C0DBFF1F0EE2
:103AC00033C0DBFF200E1200190EDBCF31F01A0ECF
:103AD000DBCF32F01B0EDBCF33F01C0EDBCF34F02C
:103AE0001200010EDB68020EDB68030EDB687F0E3E
:103AF000F36E040EF3CFDBFF1200366A376A800ED6
:103B0000386E1200DB0E366E0F0E376EC90E386E31
:103B10003F0E1200F90EDB50E76E0C0EE7CFDBFF15
:103B2000120031C004F032C005F033C006F034C0DA
:103B300007F031C036F032C037F033C038F034C04F
:103B400039F0F9EF1CF05EDFD8DFBF0E0CD832EF92
:103B500019F03F0E08D802EC1BF0010A1200DBCF6F
:0C3B600039F032EF19F0396EF9EF1CF06B
:043B6C00D9CFE6FFC8
:103B7000DACFE6FFE1CFD9FFE2CFDAFF240EE1246E
:103B800002E3E168E652E16ED950FA0FE96EFF0EEA
:103B9000DA20EA6E020EEECFDBFF030EEECFDBFF84
:103BA000040EEECFDBFF050EEECFDBFFE8D9F2D936
:103BB0001CEC22F0006E060EE15C02E2E16AE552C6
:103BC000E16E0050E76E0D0EE7CFDBFFDB508008A3
:103BD00015E0A0D9366A376A386A396A00C031F010
:103BE00001C032F002C033F003C034F01EEC1AF012
:103BF000010A10E1210E0001F26FF36B020EDB6887
:103C0000030EDB68040EDB687F0EF36E050EF3CF48
:103C1000DBFF66D10D0EDB50050B01E061D10A0E12
:103C2000DBCF00F00B0EDBCF01F0830E0026FF0E82
:103C3000012200C0DEFF01C0DDFFD950060F65D9AB
:103C400076D9DF50010B0FE0DF06010E01E2DB0643
:103C5000D950180F5AD9D890EF36010EEB36020E14
:103C6000EB36030EEB36D9CFE9FFDACFEAFF020ECF
:103C7000376E386AEECF32F0EDCF33F00BEC1BF03D
:103C800032C0EEFF33C0EDFF140EDB6A150EDB6AA7
:103C9000160EDB6A170EDB6A1C0EDB6A1D0EDB6A72
:103CA0001E0EDB6A010EF36E1F0EF3CFDBFF010E5B
:103CB000F36E0E0EF3CFDBFF0F0EDB6A0E0EDBCFC3
:103CC00000F00F0EDBCF01F0D890015004E61A0E81
:103CD000005C000E015801E398D0180EDBCF00F015
:103CE000190EDBCF01F01A0EDBCF02F01B0EDBCF7B
:103CF00003F0010E1F0B07E0D890003601360236A4
:103D00000336E806F9E1180E00C0DBFF190E01C00A
:103D1000DBFF1A0E02C0DBFF1B0E03C0DBFF140E1D
:103D2000DBCF08F0150EDBCF09F0160EDBCF0AF063
:103D3000170EDBCF0BF0010E1F0B07E0D8900836F3
:103D400009360A360B36E806F9E1D9501C0FDDD8E2
:103D50000850EE24046E0950EE20056E0A50EE2045
:103D6000066E0B50EE20076ED950180FCED80450B7
:103D7000EE5C006E0550EE58016E0650EE58026E75
:103D80000750EE58036E200E00C0DBFF210E01C06D
:103D9000DBFF220E02C0DBFF230E03C0DBFF200E81
:103DA000DBCF31F0210EDBCF32F0220EDBCF33F050
:103DB000230EDBCF34F03434000E341809E6D880FB
:103DC000000E3154000E3254000E3354000E3454A1
:103DD00011E2D950200F99D8AAD8D8D81C0EDB50A0
:103DE000EE121D0EDB50EE121E0EDB50EE121F0EF9
:103DF000DB50EE12D9501C0F88D8AFD80E0EDB2A3C
:103E00000F0E01E25BD7DB2A59D7C9D8100E00C0CC
:103E1000DBFF110E01C0DBFF180EDBCF32F0190EF5
:103E2000DBCF33F0120E32C0DBFF130E33C0DBFFEB
:103E3000ADD893D8D950100F68D8EE50ED1012E0DD
:103E4000D950120F62D8EE50ED1006E1A8D80050FC
:103E500001100210031006E099D8EE2A000EEE229F
:103E6000EE22EE220C0EDB6A91D8060EEECFDBFFBF
:103E7000070EEECFDBFF080EEECFDBFF090EEECF15
:103E8000DBFF7E0EF36E0A0EF3CFDBFF0B0EDB6A59
:103E9000D950020FE66E000EDA20E66E70D8AAEC5A
:103EA00022F0E552E552E552E552DECFE6FFDDCFE6
:103EB000E6FF70D8EBEC20F0006E060EE15C02E24B
:103EC000E16AE552E16E0050020E30C0DBFF030EE6
:103ED00031C0DBFF040E32C0DBFF050E33C0DBFF59
:103EE00019D800C030F001C031F002C032F003C078
:103EF00033F0240EE15C02E2E16AE552E16EE55244
:103F0000E5CFDAFFE7CFD9FF1200E96E000EDA2025
:103F1000EA6E1200020EDBCF00F0030EDBCF01F0E1
:103F2000040EDBCF02F0050EDBCF03F01200180EFB
:103F3000EECFDBFF190EEECFDBFF1A0EEECFDBFF6D
:103F40001B0EEECFDBFF1200EECFE6FFEECFE6FF5B
:103F5000EECFE6FFEFCFE6FF1200D890030EEB3274
:103F6000020EEB32010EEB32EF321200EE50001671
:103F7000EE500116EE500216EE5003161200D95004
:103F8000060FE66E000EDA20E66E1200D950140F0E
:103F900085EF1FF0D950020FB8DFA4EF1FF0010E1C
:0E3FA000006E016A026A036AF1DFB6EF1FF0DD
:023FAE00000110
:103FB000606B616B626B636B646B656B1200D9CF76
:103FC000E6FFE1CFD9FF020EE126FD0EDBCFE6FFD3
:103FD000FE0EDBCFE6FFB4EC24F0E552E552000123
:103FE0006451F324006E6551F420016E7E0E005C76
:103FF000000E015801E372D0DE6ADD6ADECF00F008
:10400000DDCF01F000C0E6FF01C0E6FFFD0EDBCF13
:10401000E6FFFE0EDBCFE6FFB4EC24F0E552E552FE
:10402000E552E7CF01F0E552E7CF00F0F3CF02F021
:10403000F4CF03F00250005C0350015828E2FD0E5B
:10404000DBCF00F0FE0EDBCF01F0DE500024E96E86
:10405000DD500120EA6EEF50E66E660E000162252B
:10406000E96E000E6321EA6EE552E750EF6E010E35
:104070006225626F000E6321636F636B629F642B26
:10408000000E6523DF2A010E01E3DB2AB7D7660E97
:1040900000016225E96E000E6321EA6E0D0EEF6EDF
:1040A000010E6225626F000E6321636F636B629F76
:1040B000642B000E6523660E6225E96E000E6321F7
:1040C000EA6E0A0EEF6E010E6225626F000E63212A
:1040D000636F636B629F642B000E6523020EE15CCD
:1040E00002E2E16AE552E16EE552E7CFD9FF120044
:1040F000D9CFE6FFE1CFD9FF040EE126DE6ADD6A03
:1041000000013F0ED8806455000E655504E23F0E55
:10411000DE6EDD6A04D064C0DEFF65C0DDFFDECF89
:1041200000F0DDCF01F00006000E015AFD0EDBCFDE
:10413000E9FFFE0EDBCFEAFF00C0EFFF645165111F
:1041400040E0010EF36E020EF3CFDBFF030EDB6ADD
:10415000020EDBCF00F0030EDBCF01F0DECF02F06A
:10416000DDCF03F00250005C035001582AE2660ED6
:104170006025E96E000E6121EA6EEF50E66E020ED8
:10418000DBCF00F0030EDBCF01F0FD0EDB5000248F
:10419000E96EFE0EDB500120EA6EE552E750EF6E4D
:1041A000010E6025606F000E6121616F616B609F81
:1041B0006407000E655B020EDB2A030E01E3DB2AB7
:1041C000C7D7040EE15C02E2E16AE552E16EE55216
:0641D000E7CFD9FF120049
:0A41D60096D8E1CFD9FFE2CFDAFF5F
:1041E0000C0EE12402E3E168E652E16ED950FA0FC9
:1041F000E96EFF0EDA20EA6E080EEECFDBFF090E45
:10420000EECFDBFF0A0EEECFDBFF0B0EEECFDBFFB8
:1042100079D8D950080FE96E000EDA20EA6EEECF99
:10422000E6FFEECFE6FFEECFE6FFEFCFE6FF1CECBA
:1042300022F0006E060EE15C02E2E16AE552E16EF8
:104240000050E76E070EE7CFDBFFDB50840B3AE14F
:10425000070EDB041AE1060EDB5006E0006A016A75
:10426000026A800E036E04D0006A016A026A036A61
:10427000080E00C0DBFF090E01C0DBFF0A0E02C002
:10428000DBFF0B0E03C0DBFF1DD0F80EDBCF00F011
:10429000F90EDBCF01F0D950040FE96E000EDA20E1
:1042A000EA6E0050EE260150ED22D950080FE66E5E
:1042B000000EDA20E66E26D8AAEC22F0E552E5528E
:1042C000E552E552080EDBCF00F0090EDBCF01F01E
:1042D0000A0EDBCF02F00B0EDBCF03F000C030F094
:1042E00001C031F002C032F003C033F00C0EE15CCB
:1042F00002E2E16AE552E16EE552E5CFDAFFE7CF8F
:0E430000D9FF1200D9CFE6FFDACFE6FF120098
:02430E00000E9F
:104310008A6E936E816E800E936E1200220E036E73
:10432000050005000500050001EE7AF0070E016E9C
:10433000020E026EFF0E046E056E8A9E939E0B0E99
:10434000006E002EA1EF21F0938E0000000000000F
:104350000000000000000000012E9DEF21F08A9E69
:10436000939E00000000000000000000000000001C
:104370000000000000000000938E0000070E006E99
:104380000000002EC0EF21F0022EAFEF21F0938E3F
:10439000044EF6EF21F081BEC8EF21F0FF0E046E4F
:1043A000044EF6EF21F081AED0EF21F0054EDCEFA8
:1043B00021F081BED6EF21F00450055CFF0ED8B08D
:1043C000000EEF6EE92AFF0E046E056E032ED0EF8D
:1043D00021F001EE02F0000EEF6EFFEC21F0FFEC99
:1043E00021F00600060006000600120001EE02F0B1
:1043F000FF0EEF6E060006000600060012005F0EBC
:10440000006E600E016E00000000012E03EF22F02E
:10441000002E01EF22F01200000EF36E00EE00F00D
:10442000080E01D81200EA6002D0EE6AFCD7F35001
:08443000E9601200EE6AFCD7FE
:08443800D9CFE6FFDACFE6FF61
:10444000E1CFD9FFE2CFDAFFE652006801687F0EC4
:10445000026E036AD950FA0FE96EFF0EDA20EA6E97
:10446000EE500016EE500116EE500216EE500316F6
:104470006AD800C0EEFF01C0EEFF02C0EEFF03C02D
:10448000EEFFFD0EDB50800B02E0010E01D0000EAE
:10449000E66E59D8060EE926000EEA22E552E750EC
:1044A000EF6EFC0EDBCF00F0FD0EDBCF01F0D890FD
:1044B00000360136FC0E00C0DBFFFD0E01C0DBFF45
:1044C000DB50E66E40D8040EE926000EEA22E552E3
:1044D000E750EE6EED6AFD0EDB50006E016AFF0ED6
:1044E000001818E1015016E12ED8EECF00F0EECF03
:1044F00001F0EECF02F0EFCF03F0005001100210F8
:10450000031006E0210E0001F26FF36B800E0BD05A
:10451000040E09D0FD0EDB5008E115D8EE6AEE6AF4
:10452000EE6AEE6A010EDF6E06D0020EDF6E0BD869
:10453000EE52EE52EE8EDF50E552E552E5CFDAFF55
:10454000E7CFD9FF1200F80EDBCFE9FFF90EDBCF82
:04455000EAFF12006C
:0C455400D9CFE6FFDACFE6FFE1CFD9FFB8
:10456000E2CFDAFF5BD8013411E20050FE08000E02
:1045700001540CE276D805E06CD8800EEE6EEE6841
:1045800047D067D8800EEE6E7F0E0ED047D8D890F9
:10459000015004E6010E005C000E01580BE261D8E8
:1045A00005E057D8EE6A800EEE6E32D052D8EE6A31
:1045B000EE6A2ED047D8EECF00F0EECF01F0EECF6E
:1045C00002F0EFCF03F032D800C0EEFF01C0EEFFE3
:1045D00002C0EEFF03C0EEFF21D80050010B05E042
:1045E00025D8020E3AD8EF8E04D020D8020E35D846
:1045F000EF9E14D8D8900132003218D8030E2DD86F
:1046000000C0EFFF1AD804E011D8030E26D8EF8EB1
:10461000E552E5CFDAFFE7CFD9FF120013D8040E39
:104620001CD8EECF00F0EFCF01F01200FA0EDBCF76
:10463000E9FFFB0EDBCFEAFF120004D8060E0DD80F
:10464000EF501200FC0EDBCFE9FFFD0EDBCFEAFFDF
:104650001200ECDFEE6AEE6A1200E926000EEA2292
:0E4660001200220E0001F26FF36B1DEF23F02B
:02466E00040145
:1046700020511F0B010801E06CD0245101E069D0EA
:10468000060E215D29E12351230A25E0010A13E0EA
:10469000030A01E021D0010146050CE10101780E79
:1046A000566F470E576F000E586F090E5A6F5B6BAF
:1046B000C00E596F11D0010146050CE10101D70E62
:1046C000566F470E576F000E586F4A0E5A6F5B6B4E
:1046D000C00E596F01D000D004012051600BE84298
:1046E000E842E842E842E842010801E032D02151C4
:1046F0000B0A29E0080A1CE0090A14E0080A07E08E
:104700000B0A04E0080A01E024D023D022D00101E2
:10471000F00E566F000E576F010E5A6F5B6BC10E95
:10472000596F17D00101800E596F23C4F0F011D0DA
:104730000101F10E566F000E576F010E5A6F5B6B41
:10474000810E596F06D00101800E596F22C4F1F01D
:0447500000D0120083
:0C4754001201000200000008D80444001C
:1047600002000102030109022900010100C032090F
:104770000400000203000000092111010001224A87
:104780000007058103400001070501034000010403
:104790000309041603490061006E002000470072FF
:1047A000006100680061006D001E034E0036003499
:1047B00000200043006F006E00740072006F006CF8
:1047C000006C006500720010034E00360034005F7C
:1047D0000031002E00300005010905A1011500255A
:1047E00001350045017501950D05091901290D8156
:1047F000029503810105012507463B0175049501DA
:1048000065140939814265009501810126FF004642
:10481000FF00093009310932093575089504810214
:10482000C06647008F4700934700A94700C747006D
:104830002A0EF66E100EF76E000EF86E00010900DB
:10484000F550EB6F0900F550EC6F03E1EB6701D019
:104850003DD00900F550E66F0900F550E76F0900FB
:10486000F550E86F09000900F550E96E0900F550B0
:10487000EA6E090009000900F550E96F0900F550DA
:10488000EA6F09000900F6CFEDF0F7CFEEF0F8CFB0
:10489000EFF0E6C0F6FFE7C0F7FFE8C0F8FF000161
:1048A000E95302E1EA5307E00900F550EE6EE9072B
:1048B000F8E2EA07F9D7EDC0F6FFEEC0F7FFEFC068
:0E48C000F8FF0001EB07000EEC5BBFD7120003
:0248CE00D9CF40
:1048D000E6FFDACFE6FFE1CFD9FFE2CFDAFFE6521B
:1048E000E652D950FD0F006EFF0EDA2000C0DEFF49
:1048F000DD6EDECFE9FFDDCFEAFFEF9EFA0EDBCF04
:1049000000F0FB0EDBCF01F0FC0EDBCF02F0FD0E62
:10491000DBCF03F000C030F001C031F002C032F054
:1049200003C033F0E552E552E552E5CFDAFFE7CFB9
:04493000D9FF120099
:0C493400FE0EE3CFE9FFFF0EE3CFEAFF29
:10494000E9CFF3FFEACFF4FFFB0EE35003E1FC0EE7
:10495000E35009E0FB0EE30602E2FC0EE306FD0E67
:10496000E350EE6EF1D71200FE0EE3CFE9FFFF0E2B
:10497000E3CFEAFFF36AF46AEE5203E0F34AF42A63
:04498000FBD712004F
:0C498400D9CFE6FFDACFE6FFE1CFD9FF84
:10499000E2CFDAFF010EE66ED950FA0FE96EFF0E94
:1049A000DA20EA6EEECFE6FFEECFE6FFEECFE6FFCF
:1049B000EFCFE6FF31EC1BF0006E050EE15C02E28A
:1049C000E16AE552E16E0050E552E5CFDAFFE7CF4C
:0449D000D9FF1200F9
:0C49D4002F6A2E6A100EE76ED890323663
:1049E00033362E362F3637502E5C38502F5805E38D
:1049F00037502E5E38502F5A322AE72EF0D7120049
:104A000013EE00F023EE00F0F86A2B9C18EC24F073
:0C4A10000EEC25F00FEC12F0FBD71200AA
:024A1C00120086
:024A1E00000096
:104A20000000010000000000000000000000000085
:104A30000000000000000000000000000000000076
:034A400000000073
:020000040030CA
:0100000024DB
:010001000EF0
:010002003FBE
:010003001EDE
:0100050001F9
:010006008178
:010008000FE8
:01000900C036
:01000A000FE6
:01000B00E014
:01000C000FE4
:01000D0040B2
:00000001FF
