:020000040000FA
:060000007FEF1EF012006C
:0600080004EF08F01200F5
:060018000CEF08F01200DD
:061000007FEF1EF012005C
:021006001200D6
:021008001200D4
:06100A0001001A3D000088
:08101000D300000023000000E2
:021018001200C4
:06101A0086EC0EF0A0942C
:101020000F015F6B626A536B80EC0EF020EC0EF0E8
:10103000DF6ADF50006E016A080E005C000E015886
:1010400010E2DF50040DF3CFE9FFF4CFEAFF000E0A
:10105000E926020EEA22EE6AEE6AEE6AEE6ADF2AFC
:10106000E8D7648C0F015C6B6498649C62A607D01F
:1010700062960001B76BBC6BBD6BBE6BF7D700010E
:10108000010ECF6FD06FD16BD26BC56BDF6A020ED2
:10109000DF5C11E2EA6ADF3489EC0EF0EA22EE6AE4
:1010A000ED6AEA6ADF3490EC0EF0EA22EE6AED6A4D
:1010B000E9EC0DF0ECD70001080EAE6F020EAF6F39
:1010C0000F01160E536F0201200E026F020E036F06
:1010D000080E016F840E006F0001A46BA36BE55234
:1010E000BBEF0DF086EC0EF00001A3510BE1646A3A
:1010F000606A20EC0EF064B602D06486FCD7000172
:10110000010EA36FA30508E164BA06D0626A606AA3
:1011100060806088020EA36F6250040B05E060508F
:10112000040B02E062943CDB64B245D06250010BD8
:1011300008E06050010B05E070DF0001040EA36FB2
:1011400062906250100B05E06050100B02E01EDB55
:10115000629862AC0FD060AC05D030EC0EF0730E2C
:101160007FEC0DF0629C0001CD5101E0CD07CD5127
:1011700001E1F3D86250200B04E06050200B01E045
:10118000F4DA6250020B0CE06050020B09E030EC24
:101190000EF0E6687F0EE66E97EC0EF00F015F6BC7
:1011A000040E0001E76EA319E8AE02D0E73402D0C6
:1011B000E750A35D02E2A1942ED060A62BD0DF6A97
:1011C000040EDF5C27E262A625D063CFC6F00001E3
:1011D000C651780BE842E842E842C76F6296C6B54E
:1011E00004D0C751A5EC0EF003D0C751AAEC0EF005
:1011F000EA22EF70C75102E1DFDA0AD0000EE66E94
:10120000E66AC60EE66E000EE66E720E7FEC0DF01C
:10121000DF2AD6D7A194E552BBEF0DF05AEC0EF0C1
:10122000FD0EDBA403D0E66A28EC0EF0FD0EDBA277
:1012300004D0010EE66E28EC0EF0FE0EDB50016AC3
:10124000530F006E0F0E1AEC0EF0ACEC0DF0FD0E0D
:10125000DBCFEFFF020EE15C02E2E16AE552E16EF4
:10126000BBEF0DF05AEC0EF0FD0EDB5003E07AEC14
:101270000DF002D0DAEC0DF006EC0EF0D9CFE9FF5C
:10128000DACFEAFFEE50ED1003E1F36AF46A28D0FA
:10129000ACEC0DF0B9EC0EF0FB0EDBCFEEFFFC0E6C
:1012A000DBCFEDFFACEC0DF0EE52FA0EDBCFEFFF33
:1012B000400EAFEC0EF0880EBEEC0EF0FD0EDB50D3
:1012C00003E07AEC0DF002D0DAEC0DF0EA22EF74D4
:1012D000DECF00F0DDCF01F000C0F3FF01C0F4FF6E
:1012E000020EE15C02E2E16AE552E16EBBEF0DF055
:1012F0005AEC0EF0FE0EDB5003E168EC0EF009D064
:10130000DFEC0DF048EC0EF0DFEC0DF0010F48ECD7
:101310000EF0020EE15C02E2E16AE552E16EBBEF23
:101320000DF0B6EC0DF064A816D079EC0EF0400E7E
:10133000EE16EE6AEE6AEE6A79EC0EF0EE7CDADB1F
:10134000EA22EF74400E006E79EC0EF00050EF16BA
:1013500079EC0EF0EF7CBBEF0DF00001CF5127E1EF
:10136000010ECF6FD05123E1010ED06F020EB35D9D
:1013700009E1B1EC0DF0EE52EF6AB1EC0DF0C80EE0
:10138000EF6E1200B30513E1C86BC7EC0DF0EE521F
:10139000080EEF6EC7EC0DF054EC0EF0C7EC0DF03C
:1013A000840EEF6E010EC86FA1DB800EEF6E12008F
:1013B0000001D16BD26B020EB35D06E1B3EC0EF00F
:1013C000EBDB43EC0EF010D0B8510201265D0001BA
:1013D000B9510201275904E226C2B8F027C2B9F078
:1013E00061D8BFDBD9DBBDDBC80EEF6E12005AEC53
:1013F0000EF0000EDE6E020EDD6EE1DB040DF4CFAA
:1014000001F0D9CFE9FFDACFEAFFF350EE26015021
:10141000ED22A2DBEF9EFD0EDB5002E1CBDB01D023
:1014200069DBEA22DECFEEFFDDCFEDFF95DBEF9C3F
:1014300093DB040EE926000EEA22EF8C020EE15C3B
:1014400002E2E16AE552E16E96D364980001B7BF0B
:101450000DD0BCAF09D0020EB36FD25101E1A8DFAD
:101460000001D06BCF6B120068EF0EF0020120AFCD
:101470000DD00001010EB36FD15101E199DF0001E0
:10148000D06BCF6BCE510DE1ADEF09F00001020E34
:10149000B36F2CDB840EEF6ED06BCF6BCE5101E1BE
:1014A0005CDF120086EC0EF0080EDF6E0001B85D06
:1014B000000EB9590AE2B8C0DFFFB25102E1010ED5
:1014C00003D0B20502E1020EB26FDF50016AE850AC
:1014D000B85DB86F0150B959B96F43DBEE52DFCF39
:1014E000EFFF280EC26F020EC36FB7B110D0DF50EE
:1014F0001AE0B4C0F6FFB42BB5C0F7FF000EB52359
:10150000B6C0F8FFB6230800F55073DBF0D7DF5004
:101510000AE0B4C0E9FFB5C0EAFFB42B000EB52362
:10152000EF5067DBF4D7E55226D3C4DB30DBEE5255
:10153000EFCFDFFFDFCF00F000500001BD5D000EF8
:10154000BE5902E2BDC0DFFFDF50006E016AE85005
:10155000BD5DBD6F0150BE59BE6F010EDB6ADF502D
:10156000F36E010EDBCFF4FFF350F45C16E2010ED4
:10157000DB50EA6A280FE96E020EEA22EF50E66EAF
:10158000BAC0E9FFBBC0EAFFBA2B000EBB23E5528D
:10159000E750EF6E010EDB2AE2D7000ED880BD5572
:1015A000000EBE550DE2DFDBF7DAF1DAEF50400B4B
:1015B00003E169DBC80E02D066DB880EEF6E15D042
:1015C00095DA840EEF6EBF51C011C11109E007D04A
:1015D000C1C0FBFFC0C0FAFF0001BF51F96EF8DFC8
:1015E0000001BC9FCE5101E1B8DE020EE15C02E2D7
:1015F000E16AE552E16EBFD289DB0001B78F80DB83
:10160000200EE66EE66AE66A000EE66E020ECADAA2
:10161000648CDF6A020EDF5C02E2DBDAFBD72EDBD2
:10162000A50EE66E000EBEDA649C0001080EAE6FD9
:10163000020EAF6F000EA66F020EA76FA6C0A8F035
:10164000A96F22C2A4F0A45102E1100E0BD0010E2A
:10165000E66EE66AA40EE66E000EE66E010E4FDA46
:101660000001200EA36FE55286D2800E0201205D9C
:1016700040E10001C00EB76F02012351030A25E0CB
:10168000010A0BE0030A33E10001A80EB46F390E22
:10169000B56F000EB66F120E24D0710E006E3A0EAA
:1016A000016E000E30DA020EF626000EF722F82246
:1016B0000800F5CFB8F042DB030EF626000EF72245
:1016C000F8220800F5CFB9F01200030E225D0CE2FB
:1016D000740E006E3A0E016E000E15DA0800F55019
:1016E0000001B86FB96B12000001B76B1200000166
:1016F000B76B1200DFDA0201286B296B20511F0B38
:10170000020A11E0030A0CE0010A1EE10001B78F92
:10171000020128810001C40517E10201288314D0C9
:101720000001B78F11D00001B78F020124BF02D092
:10173000D6DA01D0D9DA6ADADFDA06E00DDAEF506C
:10174000040B02E0010E286F0001B7AF07D0280E8E
:10175000B46F020EB56FB781020EB86F020EE15C76
:1017600002E2E16AE552E16E06D20F0153A10CD00C
:101770000EDAEF50800807E1F4D9EF50840803E156
:1017800006DA8C0EEF6E5391629A120060846298B2
:1017900064820001010EC56F3FDA750E7FEF0DF018
:1017A0000001C56B39DA740EAAD96492609462A400
:1017B00002D06294FCD71200A9DA00012D0ECD6F81
:1017C000FD0EC61539E17E0EC615E8407F0B040DEF
:1017D000F3CFA6F0F4CFA7F0000EA627020EA723A2
:1017E000A6C0A8F0A7C0A9F0A875D1D9EF503C0BAE
:1017F000E842E8420D081EE1DF6A080EDF5C16E2EF
:10180000C6D9020EE926000EEED9EF50E66EDF5083
:10181000EA6A200FE96E020EEA22E552E750EF6E07
:10182000B6D9A7DAEE2AEF22DF2AE7D7B0D93CDA19
:101830000AD807D023D805D0FD0EC615040801E14B
:101840002CD8E55298D10001B26BCE6BD16BD26B24
:10185000C86BB36B86D9EF9EAE7583D9EF9EAE751C
:1018600012DAEF9EB76BB86BB96BBC6BBD6BBE6B1E
:1018700054D8D2D9030E43D925EF0AF0020E000145
:10188000B35D02E195EF0AF0B36BC85104E12ED9C4
:101890008C0EEF6E1200C86B120038DA62D9EF506E
:1018A000400B01E0010EDF6E0001AE75080EA35D76
:1018B0000BE122C25CFF0F015C5103E00001100E3E
:1018C00002D00001040EA36FB30513E14AD964D915
:1018D000E9DD020E0001B25D03E143D9840E07D0B9
:1018E000DF5003E13ED9C80E02D03BD9880EEF6E1F
:1018F00012D0BCAF0FD0BF51C011C11109E007D049
:10190000C1C0FBFFC0C0FAFF0001BF51F96EF8DF94
:101910000001BC9FB36BE5522ED102012051600B38
:10192000E842E842E842E842E842000901E01200E9
:1019300021510C0A45E00B0A3FE00C0A31E0010A94
:1019400022E00B0A1EE0020A1CE0030A18E0080A63
:1019500010E0010A0CE00F0A08E0030A01E012009F
:101960000001B78F080EA36F120035EF0BF0FCEFEC
:101970000AF00001A40EB46F000EB56F0CD07AEF20
:101980000BF0E1EF0CF024510001B46FB56BA50E24
:10199000B427000EB523B781010EB86FB78F1200C0
:1019A0000001B78F02012451EA6AA50FE96E000E0B
:1019B000EA2222C2EFFF12002FD9020E7FEF0DF0B4
:1019C0001200D4D8050EE1260201220510E12051B3
:1019D0001F0B00090CE10001B78F030E0201215D0E
:1019E00004E10001010EC46F02D00001C46B0201CA
:1019F000225101E074D020511F0B020870E12451E4
:101A00000F0B00096CE024510F0B010868E3200E56
:101A10000001A35D64E1B78F020124BF04D05FD948
:101A2000F5D800D903D060D9F1D800D9EA22020E46
:101A3000EFCFDBFF1CD9010B03E1000EDF9401D0D7
:101A4000DF8424BF02D04BD901D04ED9EA22DECFA9
:101A5000EEFFDDCFEDFF030E215D0CE14DD907E078
:101A600024BF02D0DFD801D0E1D8EA22EF82840E71
:101A700085D935D0DF7440D906E06ED8EF9E6CD89A
:101A8000EF8C1CD902D068D8EF8CDF74F0D8020B31
:101A900002E132D90DE0020124BF02D0C3D801D047
:101AA000C5D8EA22EF923B0E006E59D907D902D071
:101AB0003B0E55D9020124510F0B016A530F006EE2
:101AC0000F0E0122030E00C0DBFF040E01C0DBFF7E
:101AD000030EDBCFE9FF040EDBCFEAFFEF90050E2C
:101AE000E15C02E2E16AE552E16E45D03CD9DCD826
:101AF00043EF0EF0FE0EEA6ADB3489EF0EF0E66E7D
:101B0000E66A97EF0EF0026E22C203F0046A056ADD
:101B1000030E366E376A386A03C031F004C032F003
:101B200005C033F05BEC14F000502E24F36E01502E
:101B30002F20F46E02503020F86EF4CFF7FFF3CF71
:101B4000F6FF0900F5CFB4F00900F5CFB5F00800B5
:101B5000F5CFB6F09EEF0EF0DECFE9FFDDCFEAFF66
:101B60001200AEC0E9FFAFC0EAFF1200D9CFE6FF16
:101B7000E1CFD9FF1200E552E7CFD9FF120024517F
:101B80000F0BE96EEA6AD890E936EA361200A6C071
:101B9000E9FFA7C0EAFF1200ECD8280EEE6E020E95
:101BA000ED6E1200E66E4FEC1EF0006E050EE15E6B
:101BB00000501200FE0EEA6ADB3490EF0EF0FD0ECC
:101BC000DB50E824026EFE0EDB50040DF3500224BD
:101BD0001200DF50BFD8EA22EF6ADF50B6D8EA22FF
:101BE000EF6ADF2A1200EA22EE50EFCFEAFFE96E39
:101BF0001200E66EC2C0E9FFC3C0EAFFC22B000EAE
:101C0000C323E552E750EF6EDF061200EA22EECF63
:101C1000DEFFEDCFDDFF1200000EE66EE66AE66E37
:101C2000E66A120024510F0BA5EF0EF024510F0BA2
:101C3000AAEF0EF0012200C0DEFF01C0DDFF12009E
:101C4000160E616E0F019F0E5B6F7B0E606E1200B1
:101C5000FE0EDBCFE6FFF7EC09F0E552E55212008D
:101C6000010EE66EE66A000EE66EE66A1200D950D4
:101C7000020FE96EDACFEAFFEF501200010EE66EB6
:101C8000E66AE66A1200A8C0E9FFA9C0EAFF1200EE
:101C9000040DF3CF00F0F4CF01F0000E0026020E89
:101CA000C9DF840EBEEF0EF064D8200EEE6E020E79
:101CB000ED6E12005BDF020EE1261200020EE66EF0
:101CC000E66ADECFE6FFDDCFE6FF050E7FEF0DF023
:101CD0000DDF8C0EEF6E45DF840EEF6E12004FDFCE
:101CE000AA0EE926000E12004ADFAE0EE926000E0B
:101CF000120000DFF3EF0DF02FDFEF50800B12002A
:101D0000BDDF540EE66E0F0ED2EF0DF02FDFE65260
:101D10001200FE0BEA36E96EAE0EE926000E120046
:101D2000FE0BEA36E96EAA0EE926000E1200F9EC67
:101D300011F0006E060EE15E00501200B4C0F6FF16
:101D4000B5C0F7FFB6C0F8FF1200EA6ACB0FE96E24
:101D5000000E1200EA6AC90FE96E000E1200FCDEE6
:101D6000E850EF1612008FDFEE52080EEF6E43EFD1
:101D70000EF0020EE926000EEA221200EDDEE85017
:041D8000EF1212004C
:0C1D8400C3EF12F0BBD3C3EF12F0B8D3D2
:101D9000BEEC12F0FE0EDB5000082EE2FE0EDB045D
:101DA000EA6AD50FE96E000EEA22EF50010B006ED1
:101DB000016A026A036AFE0EDBCFE6FF180EE552E7
:101DC000D880E7541F0B07E0D89000360136023662
:101DD0000336E806F9E1FC0EDBCFE9FFFD0EDBCFB1
:101DE000EAFF0050EE120150EE120250EE120350C4
:101DF000EE12FE0EDB06CED7D7D3C0DB060EE126F1
:101E0000DE6ADE6ADE6ADD6ADD52DD5204D872EC1B
:101E100008F011D8FCD77E6A8B6A826A040E946E31
:101E20008A6A816A936AD16A02D80DEF08F00001CC
:101E3000D36BD46B1200A2DB0F0EE126200E000143
:101E4000E76EA319E8AE02D0E73402D0E750A35DF5
:101E500001E296D26450020B01E092D20001D3510C
:101E6000D41102E1000E08D0D3C0E9FFD4C0EAFFCC
:101E7000EF50800B01E0010E000901E081D2060E57
:101E8000DB6A070EDB6A080EDB6A090EDB6A0A0EE4
:101E9000DB6A0B0EDB6A0C0EDB6A0D0EDB6A52ECA2
:101EA0001CF00001A05114E00001F52BF5510508CC
:101EB00001E366D2200EE66EE66AE66AD50EE66EAD
:101EC000000EE66E4FEC1EF0006E050EE15E005057
:101ED0000001F56B010ED51502013091E8B030819B
:101EE000010E0001D61502013093E8B03083010ED7
:101EF0000001D71502013095E8B03085010E0001D0
:101F0000D81502013097E8B03087010E0001D915CD
:101F100002013099E8B03089010E0001DA150201A2
:101F2000309BE8B0308B010E0001DB150201309DC3
:101F3000E8B0308D010E0001DC150201309FE8B0E1
:101F4000308F010E0001DF1502013191E8B03181BF
:101F5000010E0001E01502013193E8B031833291A6
:101F60003293329532870001E15103E0DEDA0A0F45
:101F700035DB0001E25103E0D8DA0A0F34DB00015F
:101F8000E35103E0D2DA060F29DB0001E45103E05C
:101F9000CCDA060F28DB0CDBCFDA04E114DBCCDA79
:101FA00001E14FD10A0EDBCF00F00B0EDBCF01F0C9
:101FB0000C0EDBCF02F00D0EDBCF03F0366A376A72
:101FC000386A396A00C031F001C032F002C033F023
:101FD00003C034F0DAEC14F0010A01E093D0D00E23
:101FE0000A6E0F0E0B6EC90E0C6E400E0D6E0AC0FF
:101FF000E6FF0BC0E6FF0CC0E6FFE66E060EDBCF89
:1020000016F0070EDBCF17F0080EDBCF18F0090E25
:10201000DBCF19F016C0E6FF17C0E6FF18C0E6FFD9
:1020200019C0E6FF39DA31C022F032C023F033C0E4
:1020300024F034C025F041DA31C026F032C027F058
:1020400033C028F034C029F081DA22C031F023C037
:1020500032F024C033F025C034F005EC13F07FDA01
:10206000C7DAE7CF19F0E552E7CF18F0E552E7CF2E
:1020700017F0E552E7CF16F030C01AF031C01BF070
:1020800032C01CF033C01DF047DA16C031F017C063
:1020900032F018C033F019C034F09BEC13F031C0AB
:1020A00012F032C013F033C014F034C015F01FDA50
:1020B00027EC1EF05DDAE7CF0DF0E552E7CF0CF02C
:1020C000E552E7CF0BF0E552E7CF0AF030C00EF053
:1020D00031C00FF032C010F033C011F01DDA0AC069
:1020E00031F00BC032F00CC033F00DC034F004EC12
:1020F00013F031C006F032C007F033C008F034C02E
:1021000009F068D0060EDBCF0EF0070EDBCF0FF024
:10211000080EDBCF10F0090EDBCF11F00EC0E6FF8A
:102120000FC0E6FF10C0E6FF11C0E6FFB5D931C011
:102130001AF032C01BF033C01CF034C01DF0BDD902
:102140000EDA04DA1AC031F01BC032F01CC033F0D2
:102150001DC034F005EC13F031C016F032C017F09A
:1021600033C018F034C019F043DAE7CF11F0E5526C
:10217000E7CF10F0E552E7CF0FF0E552E7CF0EF0D2
:1021800030C012F031C013F032C014F033C015F07B
:10219000C3D90EC031F00FC032F010C033F011C0FF
:1021A00034F09BEC13F031C00AF032C00BF033C0B6
:1021B0000CF034C00DF09BD927EC1EF0E552E5522F
:1021C000E552E55230C006F031C007F032C008F0E9
:1021D00033C009F08C0E366EF90E376EA20E386ED3
:1021E0003F0E396E06C031F007C032F008C033F040
:1021F00009C034F0EEEC13F031C002F032C003F04D
:1022000033C004F034C005F0366A376A386A3F0ECE
:10221000396E05EC13F0A4EC14F032C000F033C0BA
:1022200001F0020E0026000E01220E0E00C0DBFFA0
:10223000DB50070B02010F0BF36EF00E3215F3109B
:10224000326F010E0001EC15066E020EEB15056EE5
:10225000040EEA15046E080EE915036E100EE8155B
:10226000026E200EE715016E400EE615006E800E20
:10227000E5158BD9DF6E010EF415066E020EF3150F
:10228000056E040EF215046E080EF115036E100EA5
:10229000F015026E200EEF15016E400EEE15006E69
:1022A000800EED1572D9E76E010EE7CFDBFFDFCFB1
:1022B00000F0016A00BE01687F0E0026000E0122B8
:1022C000020E00C0DBFF030E01C0DBFF010EDBCFFF
:1022D00000F0016A00BE01687F0ED8800056000E33
:1022E0000156040E00C0DBFF050E01C0DBFF020E2D
:1022F000DBCF00F0030EDBCF01F0013408E2005029
:10230000FF08000E015403E2020EDB680AD0020E41
:10231000030EDBCF01F00001800E011404E0020E79
:10232000DB6A030EDB6A39D9013408E20050FF088A
:10233000000E015403E2040EDB6807D02ED9000121
:10234000800E011404E0040EDB6A050EDB6A020E47
:10235000DBCF33F2040EDBCF34F2050EE66E300E27
:10236000E66E020EE66E010EE66EE66E32EC09F0E7
:10237000006E050EE15E0050F3CFD3F0F4CFD4F041
:102380000F0EE15C02E2E16AE552E16E0DD112004E
:1023900012001200120040EF1DF012001E0EE66E39
:1023A000010EE66E0EEC09F0E552E5521200000156
:1023B000C4051EE10001C5051BE1EADF64920001CE
:1023C000C56B0001100EA16F0E0EA26FA107000ECB
:1023D000A25BA151A211FAE16484080EA16F070E5D
:1023E000A26FA107000EA25BA151A211FAE16494B1
:1023F0001200C4D8FD0EDBCF32F0FE0EDBCF33F07F
:10240000E868321802E17F0E33182FE0030E32180D
:1024100001E1335028E0020E321801E1335021E08F
:10242000010E321801E133501AE0740E321801E146
:10243000335013E0750E321801E133500CE0730E87
:10244000321801E1335005E0720E32180FE13350BB
:102450000DD09FDF0BD09BDF09D09ADF07D09EDF26
:1024600005D09BDF03D097DF01D094DF010E9CD015
:10247000E96EDACFEAFFEECF31F0EECF32F0EECFF9
:1024800033F0EFCF34F000C036F001C037F002C0B7
:1024900038F003C039F0120096D8DBCF34F0060EC6
:1024A000DBCF36F0070EDBCF37F0080EDBCF38F08E
:1024B000090EDBCF39F0EEEF13F07AD8DBCF34F032
:1024C0000A0EDBCF36F00B0EDBCF37F00C0EDBCF76
:1024D00038F00D0EDBCF39F0EEEF13F034C0EDFF26
:1024E00033C0EDFF32C0EDFF31C0EFFF120031C04D
:1024F000E6FF32C0E6FF33C0E6FF34C0E6FF12005D
:10250000D8CFE4FFE0CFE4FFE46E77D8E550E5CF25
:10251000E0FFE5CFD8FF100030C036F031C037F013
:1025200032C038F033C039F01200006A016A026A22
:10253000400E036ED9501200DBCF34F0366A376A92
:10254000386A396AD3EC14F0010A120031C036F04F
:1025500032C037F033C038F034C039F0120031C027
:102560001EF032C01FF033C020F034C021F0120042
:10257000E552E552E552E552E5521200D9CFE6FFA9
:10258000E1CFD9FF120039D811000010011002105C
:1025900003100410051006101200040EDBCF00F02B
:1025A000050EDBCF01F01200E552E7CFD9FF120094
:1025B0000A0EDBCF31F00B0EDBCF32F00C0EDBCF8F
:1025C00033F00D0E1200060EDBCF31F0070EDBCF1D
:1025D00032F0080EDBCF33F0090E120049DF04ECB5
:1025E00013F06EEF12F044DF05EC13F06EEF12F013
:1025F0007EDF72EC18F0B8EF12F0DACFE4FFE652AB
:08260000E552E5CFDAFF1200FC
:08260800397E2B6A90EC15F0FD
:10261000A8EC15F02BB638EF15F02BA20AD02BAA98
:1026200003D02BBE38EF15F02BA444EF15F041EF8B
:1026300015F02BAA05D02BAC44EF15F041EF15F0A7
:102640002BA00AD02BA808D02BBE04D02BA402D0DC
:102650004DEF15F051EF15F03C6A2F6A3950345C9C
:102660003B6E10E331C03DF032C02CF033C02DF092
:1026700034C03AF036C031F037C032F038C033F0F1
:102680002B3A09D036C03DF037C02CF038C02DF0C1
:1026900039C03AF03B6C2B9E2BBC2B8E3AC02EF0EF
:1026A0002BB080EF15F01A0E3B6080EF15F02E6A0C
:1026B000346A2BA408D0316C321E331E341EE86AF3
:1026C0003222332234222BAC08D03D6C2C1E2D1E1E
:1026D0002E1EE86A2C222D222E22306A3B5207E061
:1026E000343433323232313230323B2EF9D731503A
:1026F0003D2632502C2233502D2234502E2230C011
:102700003CF02B9E2EAE0BD03C6C3D1E2C1E2D1E85
:102710002E1EE86A3D222C222D222E222B8E2EA048
:1027200006D0D8802D322C323D323C323A2A3AC083
:102730002EF054EF15F02B6A90EC15F0A8EC15F084
:102740002BB638EF15F02BA205D02BBA38EF15F0C9
:102750003FEF15F02BBA4BEF15F02BA005D02BB89F
:1027600038EF15F04BEF15F02BB83FEF15F02F6A4F
:102770007F0E34242E6EE86A2F2239502E5EE86ACE
:102780002F5A1A0E3A6E346A3C6A3D6A2C6A2D6AD8
:102790003650315E3750325A3850335A000E345A60
:1027A00009E7365031263750322238503322000E96
:1027B000342201D03C8AD890313632363336343622
:1027C000D8903C363D362C362D363A2EE1D7335054
:1027D00032103110D8A43C8A54EF15F02B6A90ECDB
:1027E00015F0A8EC15F02BB638EF15F02BA205D09C
:1027F0002BB838EF15F03FEF15F02BAA05D02BB012
:1028000038EF15F03FEF15F02BB002D02BA802D017
:102810004BEF15F02F6A395034242E6EE86A2F22C0
:102820007E0E2E5EE86A2F5A3C6A3D6A2C6A2D6A3B
:1028300038503302F4CF2DF0F3CF2CF03750330261
:10284000F3503D26F4502C22000E2D223850320237
:10285000F3503D26F4502C22000E2D223650330228
:10286000F3503C26F4503D22000E2C222D223750EE
:102870003202F3503C26F4503D22000E2C222D2231
:1028800038503102F3503C26F4503D22000E2C22E9
:102890002D2236503202F4503C26000E3D222C22CE
:1028A0002D2237503102F4503C26000E3D222C22BE
:1028B0002D2254EF15F033C03DF032C03CF031C052
:1028C0003BF031503602F4CF2FF0F3CF2EF03250E0
:1028D0003702F4CF31F0F3CF30F03602F3502F2629
:1028E000F4503022E86A31223B503702F3502F2651
:1028F000F4503022E86A312233503602F350302649
:10290000F450312233503702326AE86A3222F350EF
:102910003126F45032223B503802F3503026F45026
:102920003122336AE86A322233223C503802F350B3
:102930003126F4503222E86A33223D503802F350F7
:102940003226F4503322000C2B6A90EC15F02BB693
:10295000AEEF14F02BA20ED02BB405D07F0E336E49
:10296000FF0E326E1FD0800E336E326A1BD0336A78
:10297000326A18D02BB0FBD78F0E3460EDD77E0EA5
:102980003464F5D78E0E345C05E0D89033323232A1
:10299000342AF8D72BA406D0326C331EE86A3322CF
:1029A00033AEE5D71200E3EC14F02BB6000C2BB0DD
:1029B000010C000CE3EC14F02BB6000C2BB0000C57
:1029C0002BA4000C010C2B6A90EC15F0A8EC15F070
:1029D0002BB612002BAE08D02BA004D02BA802D00F
:1029E0002B8012002B9012003950345C0BE13850D0
:1029F000335C08E13750325C05E13650315C02E16E
:102A00002B801200D8A002D02B8E10D0345039C0A9
:102A100034F0396E335038C033F0386E325037C02E
:102A200032F0376E315036C031F0366E3950345C8A
:102A300010E0FF0F09E02B902BB403D02BAE2B84BA
:102A400012002BAE2B941200392AD890383237322C
:102A500036323650315E3750325A3850335A33BEE0
:102A6000EAD7D890313632363336342EF8D7C8D735
:102A70007F0E346EFF0E336E326E316E12007F0E9B
:102A80002BBEFF0E346E02D07F0E346E800E336E7E
:102A9000326A316AF3D72BAE04D0800E346E336ABB
:102AA000F7D7346A336AF4D72D502C103D103C1000
:102AB000F8E02FBEF0D72DBE0CD02E502F10EBE03B
:102AC000D8903C363D362C362D362E06D8A02F0613
:102AD000F2D72F50D4E12E28D2E03CAE11D07F0E99
:102AE0003C1402E13DA00CD03D2AE86A2C222D22A4
:102AF00007E3D8802D322C323D322E2A2E28BFE01B
:102B00002E50C9E03DC031F02CC032F02D34336E70
:102B10002E30346E3332349E2BBE348E3EEF15F0A1
:102B20003336343602E32B842B7E06E12B80346A65
:102B3000336A326A316A1200342803E0D8803332B3
:102B40001200D890333202E12B8212002B86120041
:102B50003836393602E32B8C2B7E06E12B88396A16
:102B6000386A376A366A1200392803E0D88038326A
:102B70001200D8903832EAE12B8A1200E3EC14F00C
:102B80002BB6000C2BB0000C2BB4000C010C2A6AE5
:102B900038AED0EF15F0376C381EE86A38222A1E9E
:102BA00033AED8EF15F0326C331EE86A33222A1E9A
:102BB00069EC1EF033BEE8EF15F02AAE000C326C63
:102BC000331EE86A33222E6C2F1EE86A2F22000C77
:0A2BD0002ABEDFEF15F02B88FF0C82
:062BDA00D9CFE6FFDACFBF
:102BE000E6FFE1CFD9FFE2CFDAFF210EE12402E3D5
:102BF000E168E652E16ED950FA0FE96EFF0E04DA91
:102C0000D950050FE66E000EDA20E66ED950010F9E
:102C1000E96E000EEED92FEC1BF0006E060EE15CA3
:102C200002E2E16AE552E16E0050DF6E840EDF14CD
:102C300005E0210E0101426F436B0FDAD950FA0F04
:102C4000E96EFF0ED6D9F4EC1DF0E552E552E552DF
:102C5000E552190E30C0DBFF1A0E31C0DBFF1B0E30
:102C600032C0DBFF1C0E33C0DBFF95D902DA390E10
:102C700036DADAEC14F0010A07E108DAD950190F54
:102C8000E96E000EC1D931D186D9F3D91EDA06E139
:102C9000E4D9210E0101426F436B52D17CD9366ACF
:102CA000376A386A12DA01E079D0F90EDBCFE6FF35
:102CB000010EE552D880E754E76E0C0EE7CFDBFF3C
:102CC000006A016A026A3F0E036E086A096A800E92
:102CD0000A6E3F0E0B6E190EDBCF0CF01A0EDBCF17
:102CE0000DF01B0EDBCF0EF01C0EDBCF0FF00CC077
:102CF00036F00DC037F00EC038F00FC039F008C004
:102D000031F009C032F00AC033F00BC034F004ECEB
:102D100013F0C3D988D934C0DBFF006A016A026AA4
:102D2000C00E036E00C0E6FF01C0E6FF02C0E6FF72
:102D3000E66ED9501D0FE96E000E5BD972EC18F0EB
:102D4000E552E552E552E552E552E7CF03F0E55290
:102D5000E7CF02F0E552E7CF01F0E552E7CF00F010
:102D600030C004F031C005F032C006F033C007F0C7
:102D700030C036F031C037F032C038F033C039F0EF
:102D8000F4D8EEEC13F0190E31C0DBFF1A0E32C08E
:102D9000DBFF1B0E33C0DBFF1C0E0FD077D950D9E1
:102DA000190EDBCF36F01A0EDBCF37F01B0EDBCF60
:102DB00038F01C0EDBCF39F036D934C0DBFF1D0EE6
:102DC000DBCF04F01E0EDBCF05F01F0EDBCF06F0CD
:102DD000200EDBCF07F00B0E366E8D0E376EB10E68
:102DE000386EC00E396E04C031F005C032F006C036
:102DF00033F007C034F005EC13F0E7D8F00E366E70
:102E0000500E376EB30E386E400E396E05EC13F06F
:102E1000110E31C0DBFF120E32C0DBFF130E33C0C8
:102E2000DBFF140E34C0DBFF650E316E200E326EF8
:102E3000010E336EBF0E346EC8D86B0E366E160E92
:102E4000376E6F0E386E3F0E396E05EC13F00D0EB7
:102E500031C0DBFF0E0E32C0DBFF0F0E33C0DBFFD5
:102E6000100E34C0DBFF1D0EDBCF31F01E0EDBCFAA
:102E700032F01F0EDBCF33F0200EDBCF34F00D0E1F
:102E8000DBCF36F00E0EDBCF37F00F0EDBCF38F096
:102E9000100E21D9110EDBCF36F0120EDBCF37F03A
:102EA000130EDBCF38F0140EDBCF39F09BEC13F0B0
:102EB000150E31C0DBFF160E32C0DBFF170E33C01C
:102EC000DBFF180E34C0DBFF66D8BAD8150EDBCF97
:102ED00036F0160EDBCF37F0170EDBCF38F0180EBA
:102EE000FAD8DBD805EC13F063D8F90EDB500EE10D
:102EF0000C0EDB5006E042D8C1D8F1D805EC13F037
:102F000057D80B0EDB501CE0DAD819D00B0EDB5073
:102F10000CE00C0EDB500EE131D8DB0E366E0F0EDE
:102F2000376E490E386E400E07D0C9D841D80C0E06
:102F3000DB5006E023D8A2D8D2D805EC13F038D85D
:102F40001DD800C030F001C031F002C032F003C023
:102F500033F0210EE15C02E2E16AE552E16EE552F6
:102F6000E5CFDAFFE7CFD9FF120000C031F001C092
:102F700032F002C033F003C034F01200010EDBCF98
:102F800000F0020EDBCF01F0030EDBCF02F0040EE7
:102F9000DBCF03F01200190EDBCF00F01A0EDBCFEF
:102FA00001F01B0EDBCF02F01C0EDBCF03F0120092
:102FB000010E31C0DBFF020E32C0DBFF030E33C057
:102FC000DBFF040E34C0DBFF12001D0EDBCF36F03A
:102FD0001E0EDBCF37F01F0EDBCF38F0200E7BD874
:102FE00031C000F032C001F033C002F034C003F051
:102FF0001200DA20EA6EEECFE6FFEECFE6FFEECF6C
:10300000E6FFEFCFE6FF1200DA20EA6E010EEECF08
:10301000DBFF020EEECFDBFF030EEECFDBFF040E75
:10302000EECFDBFF1200EEEC13F01D0E31C0DBFF24
:103030001E0E32C0DBFF1F0E33C0DBFF200E12005E
:10304000190EDBCF31F01A0EDBCF32F01B0EDBCFC7
:1030500033F01C0EDBCF34F01200010EDB68020EE1
:10306000DB68030EDB687F0EF36E040EF3CFDBFF2D
:103070001200366A376A800E386E1200DB0E366E2A
:103080000F0E376EC90E386E3F0E1200F90EDB5070
:10309000E76E0C0EE7CFDBFF120031C004F032C048
:1030A00005F033C006F034C007F031C036F032C04E
:1030B00037F033C038F034C039F0B5EF17F05EDFC9
:1030C000D8DFBF0E0CD8EEEF13F03F0E08D8BEECE1
:1030D00015F0010A1200DBCF39F0EEEF13F0396E74
:0430E000B5EF17F041
:0C30E400D9CFE6FFDACFE6FFE1CFD9FF3D
:1030F000E2CFDAFF240EE12402E3E168E652E16E5A
:10310000D950FA0FE96EFF0EDA20EA6E020EEECF0A
:10311000DBFF030EEECFDBFF040EEECFDBFF050E71
:10312000EECFDBFFE8D9F2D92FEC1BF0006E060ED4
:10313000E15C02E2E16AE552E16E0050E76E0D0EDD
:10314000E7CFDBFFDB50800815E0A0D9366A376A8D
:10315000386A396A00C031F001C032F002C033F081
:1031600003C034F0DAEC14F0010A10E1210E010181
:10317000426F436B020EDB68030EDB68040EDB68F4
:103180007F0EF36E050EF3CFDBFF66D10D0EDB5025
:10319000050B01E061D10A0EDBCF00F00B0EDBCF97
:1031A00001F0830E0026FF0E012200C0DEFF01C0E9
:1031B000DDFFD950060F65D976D9DF50010B0FE03E
:1031C000DF06010E01E2DB06D950180F5AD9D8905C
:1031D000EF36010EEB36020EEB36030EEB36D9CF8F
:1031E000E9FFDACFEAFF020E376E386AEECF32F02F
:1031F000EDCF33F0C7EC15F032C0EEFF33C0EDFF7A
:10320000140EDB6A150EDB6A160EDB6A170EDB6A1C
:103210001C0EDB6A1D0EDB6A1E0EDB6A010EF36EEE
:103220001F0EF3CFDBFF010EF36E0E0EF3CFDBFFAD
:103230000F0EDB6A0E0EDBCF00F00F0EDBCF01F0BE
:10324000D890015004E61A0E005C000E015801E30C
:1032500098D0180EDBCF00F0190EDBCF01F01A0E5C
:10326000DBCF02F01B0EDBCF03F0010E1F0B07E0DC
:10327000D8900036013602360336E806F9E1180E1A
:1032800000C0DBFF190E01C0DBFF1A0E02C0DBFF1E
:103290001B0E03C0DBFF140EDBCF08F0150EDBCFD7
:1032A00009F0160EDBCF0AF0170EDBCF0BF0010E84
:1032B0001F0B07E0D890083609360A360B36E806A9
:1032C000F9E1D9501C0FDDD80850EE24046E0950E6
:1032D000EE20056E0A50EE20066E0B50EE20076EB3
:1032E000D950180FCED80450EE5C006E0550EE5841
:1032F000016E0650EE58026E0750EE58036E200E17
:1033000000C0DBFF210E01C0DBFF220E02C0DBFF8D
:10331000230E03C0DBFF200EDBCF31F0210EDBCF0D
:1033200032F0220EDBCF33F0230EDBCF34F0343417
:10333000000E341809E6D880000E3154000E3254C5
:10334000000E3354000E345411E2D950200F99D896
:10335000AAD8D8D81C0EDB50EE121D0EDB50EE1290
:103360001E0EDB50EE121F0EDB50EE12D9501C0F5A
:1033700088D8AFD80E0EDB2A0F0E01E25BD7DB2A0E
:1033800059D7C9D8100E00C0DBFF110E01C0DBFFFA
:10339000180EDBCF32F0190EDBCF33F0120E32C035
:1033A000DBFF130E33C0DBFFADD893D8D950100F1D
:1033B00068D8EE50ED1012E0D950120F62D8EE50DE
:1033C000ED1006E1A8D8005001100210031006E02D
:1033D00099D8EE2A000EEE22EE22EE220C0EDB6AC7
:1033E00091D8060EEECFDBFF070EEECFDBFF080E07
:1033F000EECFDBFF090EEECFDBFF7E0EF36E0A0E83
:10340000F3CFDBFF0B0EDB6AD950020FE66E000E26
:10341000DA20E66E70D8BDEC1BF0E552E552E552BD
:10342000E552DECFE6FFDDCFE6FF70D893EC1AF071
:10343000006E060EE15C02E2E16AE552E16E0050C8
:10344000020E30C0DBFF030E31C0DBFF040E32C0C2
:10345000DBFF050E33C0DBFF19D800C030F001C020
:1034600031F002C032F003C033F0240EE15C02E21E
:10347000E16AE552E16EE552E5CFDAFFE7CFD9FF29
:103480001200E96E000EDA20EA6E1200020EDBCFA7
:1034900000F0030EDBCF01F0040EDBCF02F0050ECF
:1034A000DBCF03F01200180EEECFDBFF190EEECFCC
:1034B000DBFF1A0EEECFDBFF1B0EEECFDBFF1200A1
:1034C000EECFE6FFEECFE6FFEECFE6FFEFCFE6FF73
:1034D0001200D890030EEB32020EEB32010EEB32EB
:1034E000EF321200EE500016EE500116EE500216AA
:1034F000EE5003161200D950060FE66E000EDA20C9
:10350000E66E1200D950140F41EF1AF0D950020F95
:10351000B8DF60EF1AF0010E006E016A026A036AFA
:06352000F1DF72EF1AF06A
:0A35260096D8E1CFD9FFE2CFDAFF1B
:103530000C0EE12402E3E168E652E16ED950FA0F85
:10354000E96EFF0EDA20EA6E080EEECFDBFF090E01
:10355000EECFDBFF0A0EEECFDBFF0B0EEECFDBFF75
:1035600079D8D950080FE96E000EDA20EA6EEECF56
:10357000E6FFEECFE6FFEECFE6FFEFCFE6FF2FEC64
:103580001BF0006E060EE15C02E2E16AE552E16EBC
:103590000050E76E070EE7CFDBFFDB50840B3AE10C
:1035A000070EDB041AE1060EDB5006E0006A016A32
:1035B000026A800E036E04D0006A016A026A036A1E
:1035C000080E00C0DBFF090E01C0DBFF0A0E02C0BF
:1035D000DBFF0B0E03C0DBFF1DD0F80EDBCF00F0CE
:1035E000F90EDBCF01F0D950040FE96E000EDA209E
:1035F000EA6E0050EE260150ED22D950080FE66E1B
:10360000000EDA20E66E26D8BDEC1BF0E552E5523E
:10361000E552E552080EDBCF00F0090EDBCF01F0DA
:103620000A0EDBCF02F00B0EDBCF03F000C030F050
:1036300001C031F002C032F003C033F00C0EE15C87
:1036400002E2E16AE552E16EE552E5CFDAFFE7CF4B
:0E365000D9FF1200D9CFE6FFDACFE6FF120055
:02365E00D9CFC2
:10366000E6FFDACFE6FFE1CFD9FFE2CFDAFFE6529D
:10367000006801687F0E026E036AD950FA0FE96E86
:10368000FF0EDA20EA6EEE500016EE500116EE50F4
:103690000216EE5003166AD800C0EEFF01C0EEFF1E
:1036A00002C0EEFF03C0EEFFFD0EDB50800B02E018
:1036B000010E01D0000EE66E59D8060EE926000E66
:1036C000EA22E552E750EF6EFC0EDBCF00F0FD0E74
:1036D000DBCF01F0D89000360136FC0E00C0DBFFD6
:1036E000FD0E01C0DBFFDB50E66E40D8040EE9267C
:1036F000000EEA22E552E750EE6EED6AFD0EDB5059
:10370000006E016AFF0E001818E1015016E12ED874
:10371000EECF00F0EECF01F0EECF02F0EFCF03F0EE
:10372000005001100210031006E0210E0101426F4B
:10373000436B800E0BD0040E09D0FD0EDB5008E168
:1037400015D8EE6AEE6AEE6AEE6A010EDF6E06D0FA
:10375000020EDF6E0BD8EE52EE52EE8EDF50E552C7
:10376000E552E5CFDAFFE7CFD9FF1200F80EDBCF45
:0A377000E9FFF90EDBCFEAFF1200BB
:06377A00D9CFE6FFDACF13
:10378000E6FFE1CFD9FFE2CFDAFF5BD8013411E2E7
:103790000050FE08000E01540CE276D805E06CD80B
:1037A000800EEE6EEE6847D067D8800EEE6E7F0E0C
:1037B0000ED047D8D890015004E6010E005C000EF0
:1037C00001580BE261D805E057D8EE6A800EEE6E24
:1037D00032D052D8EE6AEE6A2ED047D8EECF00F043
:1037E000EECF01F0EECF02F0EFCF03F032D800C001
:1037F000EEFF01C0EEFF02C0EEFF03C0EEFF21D8D6
:103800000050010B05E025D8020E3AD8EF8E04D007
:1038100020D8020E35D8EF9E14D8D890013200324D
:1038200018D8030E2DD800C0EFFF1AD804E011D825
:10383000030E26D8EF8EE552E5CFDAFFE7CFD9FFAA
:10384000120013D8040E1CD8EECF00F0EFCF01F019
:103850001200FA0EDBCFE9FFFB0EDBCFEAFF12000E
:1038600004D8060E0DD8EF501200FC0EDBCFE9FF96
:10387000FD0EDBCFEAFF1200ECDFEE6AEE6A12000B
:10388000E926000EEA221200220E0101426F436B6C
:0438900030EF1CF009
:0C389400180E036E080E016E000E026E8E
:1038A00058EF1CF0200E036E070E016E010E026E23
:1038B000948400EED5F07F0E046E056E8B94949484
:1038C0000B0E006E002E62EF1CF0948400000000CE
:1038D00000000000000000000000012E5EEF1CF060
:1038E00002528B949494D8A48AEF1CF0000000003C
:1038F00000000000000000000000000000009484B0
:103900000000070E006E0000002E83EF1CF0020680
:1039100071EF1CF00000000000000000000000003B
:10392000000000000000000000009484000000007F
:103930000000044EBFEF1CF082B499EF1CF07D0E26
:10394000046E044EBFEF1CF082A4A1EF1CF0054EE4
:10395000BFEF1CF082B4A7EF1CF00450055CFF0E13
:10396000D8B0000EEF6EE92A7F0E046E056E032EAE
:10397000A1EF1CF000EEA0F0000EEF6E120000EEC2
:10398000A0F0FF0EEF6E1200000EF36E00EE00F0DE
:10399000030E01D81200EA6002D0EE6AFCD7F350A1
:0839A000E9601200EE6AFCD799
:0839A8001201000200000008FA
:1039B000D8044400020001020301090229000101A8
:1039C00000C03209040000020300000009211101B7
:1039D000000122460007058103400001070501039D
:1039E000400001040309041603490061006E002031
:1039F00000470072006100680061006D001E034E08
:103A00000036003400200043006F006E0074007226
:103A1000006F006C006C006500720010034E0036F1
:103A20000034005F0031002E00300005010905A1BF
:103A30000115002501350045017501950A05091993
:103A400001290A81029506810105012507463B01EE
:103A5000750495016514093981426500950181015C
:103A600026FF0046FF0009300931750895028102E2
:103A7000C0BA3900E33900E73900FD39001B3A00CC
:103A8000020120511F0B010801E01200245101E046
:103A90001200060E215D1FE12351230A1CE0010ADA
:103AA0000EE0030A18E10001A40515E10001CC0EA7
:103AB000B46F390EB56F000EB66F090E08D0000155
:103AC0002B0EB46F3A0EB56F000EB66F460EB86F80
:103AD000B96BC00EB76F02012051600BE842E8429B
:103AE000E842E842E842010801E0120021510B0AD5
:103AF00026E0080A19E0090A11E0080A05E00B0AA5
:103B000023E0080A21E012000001400EB46F010E0C
:103B1000B56F010EB86FB96BC10E0FD00001800EEA
:103B2000B76F23C240F112000001410EB46F010EC5
:103B3000B56F010EB86FB96B810EB76F120000013F
:0A3B4000800EB76F22C241F112009F
:063B4A000A0EF66E100EDB
:103B5000F76E000EF86E00010900F550FB6F0900CA
:103B6000F550FC6F03E1FB6701D03DD00900F55033
:103B7000F66F0900F550F76F0900F550F86F09006E
:103B80000900F550E96E0900F550EA6E09000900D8
:103B90000900F550F96F0900F550FA6F09000900A6
:103BA000F6CFFDF0F7CFFEF0F8CFFFF0F6C0F6FF4E
:103BB000F7C0F7FFF8C0F8FF0001F95302E1FA532C
:103BC00007E00900F550EE6EF907F8E2FA07F9D7B9
:103BD000FDC0F6FFFEC0F7FFFFC0F8FF0001FB07C6
:083BE000000EFC5BBFD71200D0
:083BE800D9CFE6FFDACFE6FFBA
:103BF000E1CFD9FFE2CFDAFFE652E652D950FD0F0E
:103C0000006EFF0EDA2000C0DEFFDD6EDECFE9FFC2
:103C1000DDCFEAFFEF9EFA0EDBCF00F0FB0EDBCF2D
:103C200001F0FC0EDBCF02F0FD0EDBCF03F000C095
:103C300030F001C031F002C032F003C033F0E55281
:0E3C4000E552E552E5CFDAFFE7CFD9FF1200DB
:023C4E00D9CFCC
:103C5000E6FFDACFE6FFE1CFD9FFE2CFDAFF010ED0
:103C6000E66ED950FA0FE96EFF0EDA20EA6EEECF5B
:103C7000E6FFEECFE6FFEECFE6FFEFCFE6FFEDEC9F
:103C800015F0006E050EE15C02E2E16AE552E16EBC
:0E3C90000050E552E5CFDAFFE7CFD9FF120072
:023C9E00FE0E18
:103CA000E3CFE9FFFF0EE3CFEAFFE9CFF3FFEACF6F
:103CB000F4FFFB0EE35003E1FC0EE35009E0FB0EC2
:103CC000E30602E2FC0EE306FD0EE350EE6EF1D7D2
:023CD0001200E0
:0E3CD2002F6A2E6A100EE76ED8903236333607
:103CE0002E362F3637502E5C38502F5805E337507C
:0E3CF0002E5E38502F5A322AE72EF0D71200DF
:023CFE0011EEC5
:103D000000F021EE00F0F86A2B9CA5EC1DF003EC0E
:0A3D100008F0FDEC0EF0FBD71200E6
:063D1A00000000000000A3
:103D20000000000000000000000000000000000093
:0D3D30000000000000000000000000000086
:020000040030CA
:0100000000FF
:0100010012EC
:010003001EDE
:01000500807A
:00000001FF
