:020000040000FA
:0600000041EF13F01200B5
:0600080004EF08F01200F5
:060018000CEF08F01200DD
:0610000041EF13F01200A5
:021006001200D6
:021008001200D4
:06100A0001009E2600001B
:08101000D300000023000000E2
:021018001200C4
:06101A0086EC0EF0A0942C
:101020000F015F6B626A536B80EC0EF020EC0EF0E8
:10103000DF6ADF50146E156A080E145C000E155836
:1010400010E2DF50040DF3CFE9FFF4CFEAFF000E0A
:10105000E926020EEA22EE6AEE6AEE6AEE6ADF2AFC
:10106000E8D7648C0F015C6B6498649C62A607D01F
:1010700062960001B76BBC6BBD6BBE6BF7D700010E
:10108000010ECF6FD06FD16BD26BC56BDF6A020ED2
:10109000DF5C11E2EA6ADF3489EC0EF0EA22EE6AE4
:1010A000ED6AEA6ADF3490EC0EF0EA22EE6AED6A4D
:1010B000E9EC0DF0ECD70001080EAE6F020EAF6F39
:1010C0000F01160E536F0201200E026F020E036F06
:1010D000080E016F840E006F0001A46BA36BE55234
:1010E000BBEF0DF086EC0EF00001A3510BE1646A3A
:1010F000606A20EC0EF064B602D06486FCD7000172
:10110000010EA36FA30508E164BA06D0626A606AA3
:1011100060806088020EA36F6250040B05E060508F
:10112000040B02E062943CDB64B245D06250010BD8
:1011300008E06050010B05E070DF0001040EA36FB2
:1011400062906250100B05E06050100B02E01EDB55
:10115000629862AC0FD060AC05D030EC0EF0730E2C
:101160007FEC0DF0629C0001CD5101E0CD07CD5127
:1011700001E1F3D86250200B04E06050200B01E045
:10118000F4DA6250020B0CE06050020B09E030EC24
:101190000EF0E6687F0EE66E97EC0EF00F015F6BC7
:1011A000040E0001E76EA319E8AE02D0E73402D0C6
:1011B000E750A35D02E2A1942ED060A62BD0DF6A97
:1011C000040EDF5C27E262A625D063CFC6F00001E3
:1011D000C651780BE842E842E842C76F6296C6B54E
:1011E00004D0C751A5EC0EF003D0C751AAEC0EF005
:1011F000EA22EF70C75102E1DFDA0AD0000EE66E94
:10120000E66AC60EE66E000EE66E720E7FEC0DF01C
:10121000DF2AD6D7A194E552BBEF0DF05AEC0EF0C1
:10122000FD0EDBA403D0E66A28EC0EF0FD0EDBA277
:1012300004D0010EE66E28EC0EF0FE0EDB50156AAF
:10124000530F146E0F0E1AEC0EF0ACEC0DF0FD0EF9
:10125000DBCFEFFF020EE15C02E2E16AE552E16EF4
:10126000BBEF0DF05AEC0EF0FD0EDB5003E07AEC14
:101270000DF002D0DAEC0DF006EC0EF0D9CFE9FF5C
:10128000DACFEAFFEE50ED1003E1F36AF46A28D0FA
:10129000ACEC0DF0B9EC0EF0FB0EDBCFEEFFFC0E6C
:1012A000DBCFEDFFACEC0DF0EE52FA0EDBCFEFFF33
:1012B000400EAFEC0EF0880EBEEC0EF0FD0EDB50D3
:1012C00003E07AEC0DF002D0DAEC0DF0EA22EF74D4
:1012D000DECF14F0DDCF15F014C0F3FF15C0F4FF1E
:1012E000020EE15C02E2E16AE552E16EBBEF0DF055
:1012F0005AEC0EF0FE0EDB5003E168EC0EF009D064
:10130000DFEC0DF048EC0EF0DFEC0DF0010F48ECD7
:101310000EF0020EE15C02E2E16AE552E16EBBEF23
:101320000DF0B6EC0DF064A816D079EC0EF0400E7E
:10133000EE16EE6AEE6AEE6A79EC0EF0EE7CDADB1F
:10134000EA22EF74400E146E79EC0EF01450EF1692
:1013500079EC0EF0EF7CBBEF0DF00001CF5127E1EF
:10136000010ECF6FD05123E1010ED06F020EB35D9D
:1013700009E1B1EC0DF0EE52EF6AB1EC0DF0C80EE0
:10138000EF6E1200B30513E1C86BC7EC0DF0EE521F
:10139000080EEF6EC7EC0DF054EC0EF0C7EC0DF03C
:1013A000840EEF6E010EC86FA1DB800EEF6E12008F
:1013B0000001D16BD26B020EB35D06E1B3EC0EF00F
:1013C000EBDB43EC0EF010D0B8510201265D0001BA
:1013D000B9510201275904E226C2B8F027C2B9F078
:1013E00061D8BFDBD9DBBDDBC80EEF6E12005AEC53
:1013F0000EF0000EDE6E020EDD6EE1DB040DF4CFAA
:1014000015F0D9CFE9FFDACFEAFFF350EE261550F9
:10141000ED22A2DBEF9EFD0EDB5002E1CBDB01D023
:1014200069DBEA22DECFEEFFDDCFEDFF95DBEF9C3F
:1014300093DB040EE926000EEA22EF8C020EE15C3B
:1014400002E2E16AE552E16E96D364980001B7BF0B
:101450000DD0BCAF09D0020EB36FD25101E1A8DFAD
:101460000001D06BCF6B120068EF0EF0020120AFCD
:101470000DD00001010EB36FD15101E199DF0001E0
:10148000D06BCF6BCE510DE1ADEF09F00001020E34
:10149000B36F2CDB840EEF6ED06BCF6BCE5101E1BE
:1014A0005CDF120086EC0EF0080EDF6E0001B85D06
:1014B000000EB9590AE2B8C0DFFFB25102E1010ED5
:1014C00003D0B20502E1020EB26FDF50156AE85098
:1014D000B85DB86F1550B959B96F43DBEE52DFCF25
:1014E000EFFF280EC26F020EC36FB7B110D0DF50EE
:1014F0001AE0B4C0F6FFB42BB5C0F7FF000EB52359
:10150000B6C0F8FFB6230800F55073DBF0D7DF5004
:101510000AE0B4C0E9FFB5C0EAFFB42B000EB52362
:10152000EF5067DBF4D7E55226D3C4DB30DBEE5255
:10153000EFCFDFFFDFCF14F014500001BD5D000ED0
:10154000BE5902E2BDC0DFFFDF50146E156AE850DD
:10155000BD5DBD6F1550BE59BE6F010EDB6ADF5019
:10156000F36E010EDBCFF4FFF350F45C16E2010ED4
:10157000DB50EA6A280FE96E020EEA22EF50E66EAF
:10158000BAC0E9FFBBC0EAFFBA2B000EBB23E5528D
:10159000E750EF6E010EDB2AE2D7000ED880BD5572
:1015A000000EBE550DE2DFDBF7DAF1DAEF50400B4B
:1015B00003E169DBC80E02D066DB880EEF6E15D042
:1015C00095DA840EEF6EBF51C011C11109E007D04A
:1015D000C1C0FBFFC0C0FAFF0001BF51F96EF8DFC8
:1015E0000001BC9FCE5101E1B8DE020EE15C02E2D7
:1015F000E16AE552E16EBFD289DB0001B78F80DB83
:10160000200EE66EE66AE66A000EE66E020ECADAA2
:10161000648CDF6A020EDF5C02E2DBDAFBD72EDBD2
:10162000A50EE66E000EBEDA649C0001080EAE6FD9
:10163000020EAF6F000EA66F020EA76FA6C0A8F035
:10164000A96F22C2A4F0A45102E1100E0BD0010E2A
:10165000E66EE66AA40EE66E000EE66E010E4FDA46
:101660000001200EA36FE55286D2800E0201205D9C
:1016700040E10001C00EB76F02012351030A25E0CB
:10168000010A0BE0030A33E100017C0EB46F230E64
:10169000B56F000EB66F120E24D0450E146E240ED8
:1016A000156E000E30DA020EF626000EF722F82232
:1016B0000800F5CFB8F042DB030EF626000EF72245
:1016C000F8220800F5CFB9F01200030E225D0CE2FB
:1016D000480E146E240E156E000E15DA0800F55033
:1016E0000001B86FB96B12000001B76B1200000166
:1016F000B76B1200DFDA0201286B296B20511F0B38
:10170000020A11E0030A0CE0010A1EE10001B78F92
:10171000020128810001C40517E10201288314D0C9
:101720000001B78F11D00001B78F020124BF02D092
:10173000D6DA01D0D9DA6ADADFDA06E00DDAEF506C
:10174000040B02E0010E286F0001B7AF07D0280E8E
:10175000B46F020EB56FB781020EB86F020EE15C76
:1017600002E2E16AE552E16E06D20F0153A10CD00C
:101770000EDAEF50800807E1F4D9EF50840803E156
:1017800006DA8C0EEF6E5391629A120060846298B2
:1017900064820001010EC56F3FDA750E7FEF0DF018
:1017A0000001C56B39DA740EAAD96492609462A400
:1017B00002D06294FCD71200A9DA00012D0ECD6F81
:1017C000FD0EC61539E17E0EC615E8407F0B040DEF
:1017D000F3CFA6F0F4CFA7F0000EA627020EA723A2
:1017E000A6C0A8F0A7C0A9F0A875D1D9EF503C0BAE
:1017F000E842E8420D081EE1DF6A080EDF5C16E2EF
:10180000C6D9020EE926000EEED9EF50E66EDF5083
:10181000EA6A200FE96E020EEA22E552E750EF6E07
:10182000B6D9A7DAEE2AEF22DF2AE7D7B0D93CDA19
:101830000AD807D023D805D0FD0EC615040801E14B
:101840002CD8E55298D10001B26BCE6BD16BD26B24
:10185000C86BB36B86D9EF9EAE7583D9EF9EAE751C
:1018600012DAEF9EB76BB86BB96BBC6BBD6BBE6B1E
:1018700054D8D2D9030E43D925EF0AF0020E000145
:10188000B35D02E195EF0AF0B36BC85104E12ED9C4
:101890008C0EEF6E1200C86B120038DA62D9EF506E
:1018A000400B01E0010EDF6E0001AE75080EA35D76
:1018B0000BE122C25CFF0F015C5103E00001100E3E
:1018C00002D00001040EA36FB30513E14AD964D915
:1018D000E9DD020E0001B25D03E143D9840E07D0B9
:1018E000DF5003E13ED9C80E02D03BD9880EEF6E1F
:1018F00012D0BCAF0FD0BF51C011C11109E007D049
:10190000C1C0FBFFC0C0FAFF0001BF51F96EF8DF94
:101910000001BC9FB36BE5522ED102012051600B38
:10192000E842E842E842E842E842000901E01200E9
:1019300021510C0A45E00B0A3FE00C0A31E0010A94
:1019400022E00B0A1EE0020A1CE0030A18E0080A63
:1019500010E0010A0CE00F0A08E0030A01E012009F
:101960000001B78F080EA36F120035EF0BF0FCEFEC
:101970000AF00001A40EB46F000EB56F0CD07AEF20
:101980000BF0E1EF0CF024510001B46FB56BA50E24
:10199000B427000EB523B781010EB86FB78F1200C0
:1019A0000001B78F02012451EA6AA50FE96E000E0B
:1019B000EA2222C2EFFF12002FD9020E7FEF0DF0B4
:1019C0001200D4D8050EE1260201220510E12051B3
:1019D0001F0B00090CE10001B78F030E0201215D0E
:1019E00004E10001010EC46F02D00001C46B0201CA
:1019F000225101E074D020511F0B020870E12451E4
:101A00000F0B00096CE024510F0B010868E3200E56
:101A10000001A35D64E1B78F020124BF04D05FD948
:101A2000F5D800D903D060D9F1D800D9EA22020E46
:101A3000EFCFDBFF1CD9010B03E1000EDF9401D0D7
:101A4000DF8424BF02D04BD901D04ED9EA22DECFA9
:101A5000EEFFDDCFEDFF030E215D0CE14DD907E078
:101A600024BF02D0DFD801D0E1D8EA22EF82840E71
:101A700085D935D0DF7440D906E06ED8EF9E6CD89A
:101A8000EF8C1CD902D068D8EF8CDF74F0D8020B31
:101A900002E132D90DE0020124BF02D0C3D801D047
:101AA000C5D8EA22EF923B0E146E59D907D902D05D
:101AB0003B0E55D9020124510F0B156A530F146EBA
:101AC0000F0E1522030E14C0DBFF040E15C0DBFF42
:101AD000030EDBCFE9FF040EDBCFEAFFEF90050E2C
:101AE000E15C02E2E16AE552E16E45D03CD9DCD826
:101AF00043EF0EF0FE0EEA6ADB3489EF0EF0E66E7D
:101B0000E66A97EF0EF0166E22C217F0186A196A8D
:101B1000030E0C6E0D6A0E6A17C007F018C008F0AD
:101B200019C009F0DEEC12F014500424F36E1550C5
:101B30000520F46E16500620F86EF4CFF7FFF3CFB1
:101B4000F6FF0900F5CFB4F00900F5CFB5F00800B5
:101B5000F5CFB6F09EEF0EF0DECFE9FFDDCFEAFF66
:101B60001200AEC0E9FFAFC0EAFF1200D9CFE6FF16
:101B7000E1CFD9FF1200E552E7CFD9FF120024517F
:101B80000F0BE96EEA6AD890E936EA361200A6C071
:101B9000E9FFA7C0EAFF1200ECD8280EEE6E020E95
:101BA000ED6E1200E66E27EC13F0146E050EE15E8A
:101BB00014501200FE0EEA6ADB3490EF0EF0FD0EB8
:101BC000DB50E824166EFE0EDB50040DF350162495
:101BD0001200DF50BFD8EA22EF6ADF50B6D8EA22FF
:101BE000EF6ADF2A1200EA22EE50EFCFEAFFE96E39
:101BF0001200E66EC2C0E9FFC3C0EAFFC22B000EAE
:101C0000C323E552E750EF6EDF061200EA22EECF63
:101C1000DEFFEDCFDDFF1200000EE66EE66AE66E37
:101C2000E66A120024510F0BA5EF0EF024510F0BA2
:101C3000AAEF0EF0152214C0DEFF15C0DDFF120062
:101C4000160E616E0F019F0E5B6F7B0E606E1200B1
:101C5000FE0EDBCFE6FFF7EC09F0E552E55212008D
:101C6000010EE66EE66A000EE66EE66A1200D950D4
:101C7000020FE96EDACFEAFFEF501200010EE66EB6
:101C8000E66AE66A1200A8C0E9FFA9C0EAFF1200EE
:101C9000040DF3CF14F0F4CF15F0000E1426020E4D
:101CA000C9DF840EBEEF0EF064D8200EEE6E020E79
:101CB000ED6E12005BDF020EE1261200020EE66EF0
:101CC000E66ADECFE6FFDDCFE6FF050E7FEF0DF023
:101CD0000DDF8C0EEF6E45DF840EEF6E12004FDFCE
:101CE000AA0EE926000E12004ADFAE0EE926000E0B
:101CF000120000DFF3EF0DF02FDFEF50800B12002A
:101D0000BDDF540EE66E0F0ED2EF0DF02FDFE65260
:101D10001200FE0BEA36E96EAE0EE926000E120046
:101D2000FE0BEA36E96EAA0EE926000E1200C6EC9A
:101D300010F0146E060EE15E14501200B4C0F6FFEF
:101D4000B5C0F7FFB6C0F8FF1200EA6ACB0FE96E24
:101D5000000E1200EA6AC90FE96E000E1200FCDEE6
:101D6000E850EF1612008FDFEE52080EEF6E43EFD1
:101D70000EF0020EE926000EEA221200EDDEE85017
:041D8000EF1212004C
:0C1D84004ED241D24CD23FD25BDAFE0EB0
:101D9000DB5000082EE2FE0EDB04EA6AD50FE96E86
:101DA000000EEA22EF50010B146E156A166A176ACC
:101DB000FE0EDBCFE6FF180EE552D880E7541F0B6E
:101DC00007E0D8901436153616361736E806F9E1CE
:101DD000FC0EDBCFE9FFFD0EDBCFEAFF1450EE1265
:101DE0001550EE121650EE121750EE12FE0EDB06D4
:101DF000CED72DD204D872EC08F011D8FCD77E6A69
:101E00008B6A826A040E946E8A6A816A936AD16AC6
:101E100002D80DEF08F00001D36BD46B120012DA78
:101E2000090EE126200E0001E76EA319E8AE02D0EC
:101E3000E73402D0E750A35D01E26FD16450020B9A
:101E400001E06BD10001D351D41102E1000E08D0A2
:101E5000D3C0E9FFD4C0EAFFEF50800B01E0010ED0
:101E6000000901E05AD1060EDB6A070EDB6A3AEC84
:101E700011F00001A05114E00001F52BF551050807
:101E800001E34BD1200EE66EE66AE66AD50EE66EF9
:101E9000000EE66E27EC13F0146E050EE15E145092
:101EA0000001F56B010ED51502013091E8B03081CB
:101EB000010E0001D61502013093E8B03083010E07
:101EC0000001D71502013095E8B03085010E000100
:101ED000D81502013097E8B03087010E0001D915FE
:101EE00002013099E8B03089010E0001DA150201D3
:101EF000309BE8B0308B010E0001DB150201309DF4
:101F0000E8B0308D010E0001DC150201309FE8B011
:101F1000308F010E0001DF1502013191E8B03181EF
:101F2000010E0001E01502013193E8B031833291D6
:101F30003293329532870001E15108E0D950060F03
:101F4000E96EDACFEAFFEE06000EED5AE25108E044
:101F5000D950060FE96EDACFEAFFEE2A000EED2225
:101F6000080EE415166E040EE315156E020EE2154A
:101F7000146E010EE115141015101610E76E080E00
:101F8000E7CFDBFFDBA606D0060EDBCF14F0070E93
:101F9000020E07D0DBA40ED0060EDBCF14F0070E26
:101FA000060E142402010F0BF36EF00E3215F3101F
:101FB000326F14D0DBA005D00201329132933295FA
:101FC00006D0DBA206D002013291329332853297DD
:101FD00005D002013291329332953287010E000111
:101FE000EC151A6E020EEB15196E040EEA15186E3A
:101FF000080EE915176E100EE815166E200EE7157F
:10200000156E400EE615146E800EE5150CD9DF6EC8
:10201000010EF4151A6E020EF315196E040EF21568
:10202000186E080EF115176E100EF015166E200EB4
:10203000EF15156E400EEE15146E800EED15F3D8EB
:10204000E76E010EE7CFDBFFDFCF14F0156A14BE99
:1020500015687F0E1426000E1522020E14C0DBFF39
:10206000030E15C0DBFF010EDBCF14F0156A14BEA2
:1020700015687F0ED8801456000E1556040E14C035
:10208000DBFF050E15C0DBFF020EDBCF14F0030EE5
:10209000DBCF15F0153408E21450FF08000E15547C
:1020A00003E2020EDB680AD0020E030EDBCF15F04E
:1020B0000001800E151404E0020EDB6A030EDB6AD9
:1020C000BAD8153408E21450FF08000E155403E284
:1020D000040EDB6807D0AFD80001800E151404E0B1
:1020E000040EDB6A050EDB6A020EDBCF33F2040E50
:1020F000DBCF34F2050EE66E300EE66E020EE66EB3
:10210000010EE66EE66E32EC09F0146E050EE15E2D
:102110001450F3CFD3F0F4CFD4F0090EE15C02E217
:10212000E16AE552E16E93D0120012001200120033
:102130002AEF12F012001E0EE66E010EE66E0EEC95
:1021400009F0E552E55212000001C4051EE100014C
:10215000C5051BE1EADF64920001C56B0001100EAA
:10216000A16F0E0EA26FA107000EA25BA151A211DA
:10217000FAE16484080EA16F070EA26FA107000E9A
:10218000A25BA151A211FAE1649412005BD8FD0E8A
:10219000DBCF08F0FE0EDBCF09F0E868081802E19B
:1021A0007F0E09182FE0030E081801E1095028E0FE
:1021B000020E081801E1095021E0010E081801E1A2
:1021C00009501AE0740E081801E1095013E0750E69
:1021D000081801E109500CE0730E081801E10950DC
:1021E00005E0720E08180FE109500DD09FDF0BD0EB
:1021F0009BDF09D09ADF07D09EDF05D09BDF03D09D
:1022000097DF01D094DF010E22D0D8CFE4FFE0CFDA
:10221000E4FFE46E20D8E550E5CFE0FFE5CFD8FF3E
:10222000100019D8110014101510161017101810DE
:1022300019101A101200040EDBCF14F0050EDBCFBC
:1022400015F01200D9CFE6FFE1CFD9FF1200E55219
:10225000E7CFD9FF1200DACFE4FFE652E552E5CF2F
:04226000DAFF12008F
:0C226400180E036E080E016E000E026ED4
:1022700042EF11F0200E036E070E016E010E026E8A
:1022800042EF11F0948400EED5F07F0E046E056EDF
:102290008B9494940B0E006E002E4CEF11F09484EE
:1022A0000000000000000000000000000000012EFF
:1022B00048EF11F002528B949494D8A474EF11F06B
:1022C000000000000000000000000000000000000E
:1022D000000094840000070E006E0000002E6DEFD9
:1022E00011F002065BEF11F000000000000000009A
:1022F00000000000000000000000000000009484C6
:10230000000000000000044EA9EF11F082B483EF3A
:1023100011F07D0E046E044EA9EF11F082A48BEF34
:1023200011F0054EA9EF11F082B491EF11F00450B5
:10233000055CFF0ED8B0000EEF6EE92A7F0E046E2A
:10234000056E032E8BEF11F000EEA0F0000EEF6E85
:10235000120000EEA0F0FF0EEF6E1200000EF36E02
:1023600000EE00F0030E01D81200EA6002D0EE6A1F
:0C237000FCD7F350E9601200EE6AFCD7C5
:04237C001201000248
:1023800000000008D8044400020001020301090211
:102390002900010100C0320904000002030000000E
:1023A00009211101000122460007058103400001B7
:1023B00007050103400001040309041603490061F5
:1023C000006E002000470072006100680061006D2F
:1023D000001E034E0036003400200043006F006EE4
:1023E00000740072006F006C006C006500720010D9
:1023F000034E00360034005F0031002E003000052F
:10240000010905A10115002501350045017501955A
:102410000A05091901290A8102950681010501258C
:1024200007463B0175049501651409398142650031
:102430009501810126FF0046FF000930093175082A
:1024400095028102C08E2300B72300BB2300D12355
:0424500000EF230076
:0C245400020120511F0B010801E01200E2
:10246000245101E01200060E215D1FE12351230AD1
:102470001CE0010A0EE0030A18E10001A40515E1C1
:102480000001A00EB46F230EB56F000EB66F090EDB
:1024900008D00001FF0EB46F230EB56F000EB66FAB
:1024A000460EB86FB96BC00EB76F02012051600BBA
:1024B000E842E842E842E842E842010801E012004E
:1024C00021510B0A26E0080A19E0090A11E0080A5E
:1024D00005E00B0A23E0080A21E012000001400E8B
:1024E000B46F010EB56F010EB86FB96BC10E0FD08E
:1024F0000001800EB76F23C240F112000001410EAF
:10250000B46F010EB56F010EB86FB96B810EB76F66
:0E25100012000001800EB76F22C241F11200CE
:02251E000A0EA3
:10252000F66E100EF76E000EF86E00010900F55001
:10253000FB6F0900F550FC6F03E1FB6701D03DD054
:102540000900F550F66F0900F550F76F0900F550D6
:10255000F86F09000900F550E96E0900F550EA6EC0
:10256000090009000900F550F96F0900F550FA6FEC
:1025700009000900F6CFFDF0F7CFFEF0F8CFFFF02D
:10258000F6C0F6FFF7C0F7FFF8C0F8FF0001F953F7
:1025900002E1FA5307E00900F550EE6EF907F8E2A0
:1025A000FA07F9D7FDC0F6FFFEC0F7FFFFC0F8FF3E
:0C25B0000001FB07000EFC5BBFD712000F
:0425BC0009C013F04F
:1025C00008C012F007C011F007500C02F4CF05F05C
:1025D000F3CF04F008500D02F4CF07F0F3CF06F06C
:1025E0000C02F3500526F4500622E86A0722115027
:1025F0000D02F3500526F4500622E86A072209501E
:102600000C02F3500626F450072209500D02086A06
:10261000E86A0822F3500726F450082211500E02EF
:10262000F3500626F4500722096AE86A08220922B4
:1026300012500E02F3500726F4500822E86A0922CD
:0E26400013500E02F3500826F4500922000C2D
:02264E00FE0E7E
:10265000E3CFE9FFFF0EE3CFEAFFE9CFF3FFEACFD5
:10266000F4FFFB0EE35003E1FC0EE35009E0FB0E28
:10267000E30602E2FC0EE306FD0EE350EE6EF1D738
:02268000120046
:0E26820011EE00F021EE00F0F86A019C8FECE2
:0E26900012F003EC08F0FAEC0EF0FBD712008B
:02269E0000003A
:1026A000000000000000000000000000000000002A
:1026B000000000000000000000000000000000001A
:0126C0000019
:020000040030CA
:0100000000FF
:0100010012EC
:010003001EDE
:01000500807A
:00000001FF
