:020000040000FA
:0600000007EF02F0120000
:0A00060001004804000000020000A1
:0400100023000000C9
:0C0014000001606B616B626B636B646BDE
:10002000656B1200D9CFE6FFE1CFD9FF020EE126C2
:10003000FD0EDBCFE6FFFE0EDBCFE6FF15EC02F098
:10004000E552E55200016451F324006E6551F4203D
:10005000016E7E0E005C000E015801E372D0DE6A74
:10006000DD6ADECF00F0DDCF01F000C0E6FF01C0A9
:10007000E6FFFD0EDBCFE6FFFE0EDBCFE6FF15EC65
:1000800002F0E552E552E552E7CF01F0E552E7CF45
:1000900000F0F3CF02F0F4CF03F00250005C035005
:1000A000015828E2FD0EDBCF00F0FE0EDBCF01F0A1
:1000B000DE500024E96EDD500120EA6EEF50E66E5E
:1000C000660E00016225E96E000E6321EA6EE552BC
:1000D000E750EF6E010E6225626F000E6321636FC1
:1000E000636B629F642B000E6523DF2A010E01E320
:1000F000DB2AB7D7660E00016225E96E000E632188
:10010000EA6E0D0EEF6E010E6225626F000E632126
:10011000636F636B629F642B000E6523660E62251E
:10012000E96E000E6321EA6E0A0EEF6E010E622583
:10013000626F000E6321636F636B629F642B000E1E
:100140006523020EE15C02E2E16AE552E16EE552EE
:10015000E7CFD9FF1200D9CFE6FFE1CFD9FF040ED8
:10016000E126DE6ADD6A00013F0ED8806455000E8C
:10017000655504E23F0EDE6EDD6A04D064C0DEFF2A
:1001800065C0DDFFDECF00F0DDCF01F00006000E20
:10019000015AFD0EDBCFE9FFFE0EDBCFEAFF00C008
:1001A000EFFF6451651140E0010EF36E020EF3CFD4
:1001B000DBFF030EDB6A020EDBCF00F0030EDBCFAA
:1001C00001F0DECF02F0DDCF03F00250005C0350FF
:1001D00001582AE2660E6025E96E000E6121EA6E82
:1001E000EF50E66E020EDBCF00F0030EDBCF01F026
:1001F000FD0EDB500024E96EFE0EDB500120EA6E9E
:10020000E552E750EF6E010E6025606F000E612130
:10021000616F616B609F6407000E655B020EDB2AF5
:10022000030E01E3DB2AC7D7040EE15C02E2E16AB8
:0C023000E552E16EE552E7CFD9FF120065
:04023C007E6A220EA6
:10024000036E02EE03F0070E016E020E026EFF0E49
:10025000046E056E8B9494940B0E006E002E2EEFA0
:1002600001F0948400000000000000000000000085
:100270000000012E2AEF01F08B94949400000000FE
:10028000000000000000000000000000000000006E
:10029000000094840000070E006E0000002E4DEF59
:1002A00001F0022E3CEF01F09484044E7BEF01F04C
:1002B00082B455EF01F0FF0E046E044E7BEF01F0A7
:1002C00082A45DEF01F0054E69EF01F082B463EFA7
:1002D00001F00450055CFF0ED8B0000EEF6EE92A65
:1002E000FF0E046E056E032E5DEF01F000EEF0F0E0
:1002F000000EEF6E120000EEF0F0FF0EEF6E120037
:100300005F0E006E600E016E00000000012E84EF93
:1003100001F0002E82EF01F01200000EF36E00EEED
:1003200000F0030E01D81200EA6002D0EE6AFCD79A
:0A033000F350E9601200EE6AFCD7FA
:06033A00060EF66E000E37
:10034000F76E000EF86E00010900F550EB6F090022
:10035000F550EC6F03E1EB6701D03DD00900F5509B
:10036000E66F0900F550E76F0900F550E86F0900E6
:100370000900F550E96E0900F550EA6E0900090020
:100380000900F550E96F0900F550EA6F090009000E
:10039000F6CFEDF0F7CFEEF0F8CFEFF0E6C0F6FFD6
:1003A000E7C0F7FFE8C0F8FF0001E95302E1EA53B4
:1003B00007E00900F550EE6EE907F8E2EA07F9D721
:1003C000EDC0F6FFEEC0F7FFEFC0F8FF0001EB074E
:0803D000000EEC5BBFD7120028
:0803D8000ED81EEC01F000013B
:1003E000F05107E102011251000802E28A9E01D099
:1003F0008A8EF3D712007E6A8B6A826A040E946E2C
:0E0400008A6A816A7F0E936E06EF02F0120088
:02040E0011EEED
:1004100000F021EE00F0F86A059C9DEC01F023EC61
:0A04200002F0ECEC01F0FBD7120033
:06042A00FE0EE3CFE9FF26
:10043000FF0EE3CFEAFFF36AF46AEE5203E0F34AF9
:06044000F42AFBD71200B4
:020446001200A2
:080448000000010000000000AB
:10045000000000000000000000000000000000009C
:0B046000000000000000000000000091
:020000040030CA
:0100000000FF
:0100010012EC
:00000001FF
